:020000040800F2
:10000000987B00247103000845940008AD8900081E
:10001000CD9200080507000895B800080000000010
:10002000000000000000000000000000B102000815
:1000300079160008000000000D030008459B000829
:100040008B0300088B0300088B0300088B03000858
:100050008B0300088B0300088B0300088B03000848
:100060008B0300088B0300088B0300088D10000829
:100070009D100008AD100008BD100008CD1000084C
:100080008B0300088B0300088B030008A5160008EB
:10009000B51600088B0300088B0300088B030008CB
:1000A0008B0300088B0300088B0300088B030008F8
:1000B000859D00088B0300088B0300088B03000854
:1000C0008B0300088B0300088B0300088B030008D8
:1000D0008B0300084DB1000861B10008ADB4000801
:1000E0008B0300088B030008000000008B0300084E
:1000F0008B0300088B0300088B0300088B030008A8
:100100008B0300088B0300088B0300088B03000897
:100110008B0300088B0300088B0300088B03000887
:100120008B030008DD100008ED1000088B030008A9
:100130008B0300088B0300088B0300088B03000867
:1001400000000000000000000000000000000000AF
:100150008B030008FD1000088B030008C1B40008E1
:100160008B0300088B0300088B0300088B03000837
:100170008B0300088B0300088B0300088B03000827
:100180008B0300088B0300088B0300088B03000817
:100190008B0300088B0300088B0300088B03000807
:1001A0008B0300088B0300088B0300088B030008F7
:1001B0008B0300088B0300088B0300088B030008E7
:1001C0008B0300088B0300088B0300088B030008D7
:1001D0008B0300088B0300088B0300088B030008C7
:1001E0008B0300088B0300088B0300088B030008B7
:1001F0008B0300088B0300088B0300088B030008A7
:100200008B0300088B0300088B0300088B03000896
:100210008B0300088B0300088B0300088B03000886
:100220008B0300088B0300088B030008000000000C
:100230008B0300088B030008000000008B030008FC
:100240008B0300088B0300088B0300088B03000856
:100250008B0300088B0300088B0300088B03000846
:100260008B0300088B0300088B0300088B03000836
:100270008B0300088B0300088B03000800000000BC
:100280008B0300088B0300088B03000800000000AC
:10029000000000008B030008DFF810D000F0EEF83B
:1002A00000480047C9C70008AFF30080987B0024CE
:1002B0002C4B19680868B0E8F04F80F30988BFF349
:1002C0006F8F4FF0000080F311887047000000002E
:1002D00008480068006880F308884FF0000080F349
:1002E000148862B661B6BFF34F8FBFF36F8F00DF24
:1002F00000BF00BF08ED00E0DFF80C00016841F42A
:1003000070010160704700BF88ED00E0EFF30980E5
:10031000BFF36F8F134B1A681EF0100F08BF20ED4C
:10032000108A20E9F04F106009B44FF0500080F3BC
:100330001188BFF34F8FBFF36F8F0DF099FB4FF014
:10034000000080F3118809BC19680868B0E8F04F14
:100350001EF0100F08BFB0EC108A80F30988BFF3BD
:100360006F8F704730000024EFF305807047000066
:100370000648804706480047FEE7FEE7FEE7FEE73F
:10038000FEE7FEE7FEE7FEE7FEE7FEE7659C000806
:10039000990200082DE9F05F0546002092469B4631
:1003A00088460646814640241BE02846414647468B
:1003B000224600F053F853465A46C01A914110D3D2
:1003C00011461846224600F03AF82D1A67EB01084C
:1003D0004F4622460120002100F031F817EB0009BA
:1003E0004E41201EA4F10104DFDC484631462A4676
:1003F0004346BDE8F09F40EA01039B0703D009E0B4
:1004000008C9121F08C0042AFAD203E011F8013B00
:1004100000F8013B521EF9D27047D2B201E000F859
:10042000012B491EFBD270470022F6E710B5134698
:100430000A4604461946FFF7F0FF204610BD202A61
:1004400004DB203A00FA02F1002070479140C2F12B
:10045000200320FA03F3194390407047202A04DB5D
:10046000203A21FA02F00021704721FA02F3D0402D
:10047000C2F120029140084319467047064C074DCF
:1004800006E0E06840F0010394E807009847103464
:10049000AC42F6D3FFF704FFD8E40008F8E4000804
:1004A00070B58C1810F8015B15F0070301D110F836
:1004B000013B2A1106D110F8012B03E010F8016B63
:1004C00001F8016B5B1EF9D12B0705D40023521EE6
:1004D0000DD401F8013BFAE710F8013BCB1A921C4E
:1004E00003E013F8015B01F8015B521EF9D5A1424C
:1004F000D8D3002070BD000005200DF02BFA08486D
:1005000000F012F80AE001221021064804F0AEFDC6
:10051000034800F0D9F802200DF01CFAF3E70000C0
:10052000405A00240010025810B504460BF068FF32
:10053000206001F013FC606101F018FCC4F8C409EC
:1005400001F0B4FB60600BF057FFE06009F08AF93E
:100550009FED510A04F5D4700BF004FF04F5DC7034
:1005600009F0C4FA9FED4D2ADFED4D1A9FED4D1AAB
:10057000F7EE080A9FED4C0A04F118000CF0CCF9D4
:100580009FED4A0A84ED100A9FED490A84ED110A95
:10059000B2EE040A84ED0D0AB7EE000A84ED0F0AEC
:1005A000B2EE000A84ED0E0A9FED3C2ADFED3B1A05
:1005B000B1EE081ADFED390AB2EE050A04F178004F
:1005C0000CF0AAF99FED352ADFED351AB2EE021ACA
:1005D000DFED380A9FED380A04F1D8000CF09CF9E1
:1005E0009FED320A84ED400A9FED340A84ED410A02
:1005F000B1EE0C0A84ED3D0AB2EE040A84ED3F0A26
:10060000B3EE0E0A84ED3E0A9FED242ADFED231A95
:100610009FED221ADFED210AB2EE040A04F59C7068
:100620000CF07AF99FED1D2ADFED1C1A9FED241ABC
:10063000DFED1A0A9FED230A04F6C8100CF06CF9DE
:100640009FED162ADFED151A9FED141ADFED130A40
:10065000B2EE020A04F628200CF05EF99FED0F2A94
:10066000DFED0E1AB2EE0E1ADFED0C0A9FED140A42
:1006700004F688200CF050F99FED082ADFED071AE8
:10068000B7EE001ADFED050AB2EE0E0A04F6E82016
:100690000CF042F910BD00000F0BB53D000000004A
:1006A0000000FA440000964200007042000034430B
:1006B000000048C3CDCCCC3D0000104200007AC3FE
:1006C0000000C8420000024310B5044609F0CAF811
:1006D00008F0FEFD1C221921012008F04DFE10BD7E
:1006E00001EBD1735B105B42834202DD4A1E024480
:1006F00010B201EBD173B0EB630F02DD4A1E821A18
:1007000010B2704700BFFEE72DE9FC4107460C46DA
:1007100015461E4640F2FF1015490860002048604B
:1007200088604FF40020C86000200861486188613B
:10073000C8610862380A8DF80000F8B28DF801002F
:10074000200A8DF80200E0B28DF80300280A8DF827
:100750000400E8B28DF80500300A8DF80600F0B20A
:100760008DF807006A46034803F03AFDBDE8FC81B6
:1007700030660024C403002400B589B00020019035
:100780000290022003900120049000200590069022
:1007900001A9154803F06DFD4FF080400190002045
:1007A0000290022003900120049000200590069002
:1007B00001A90D4803F05DFD002003460222114609
:1007C0000090094803F0A9FD00220121064803F02A
:1007D000B3FC4FF000424021034803F0B8FD02484B
:1007E00004F013FB09B000BDC40300241CB504468B
:1007F0004FF48060164908600020486088604FF41C
:100800000020C8600020086148618861C8610862F2
:10081000A088000A8DF8000020798DF80100E0889A
:10082000000A8DF80200A0798DF803002089000AE3
:100830008DF80400207A8DF80500A07A8DF8060066
:10084000E07A8DF807006A46024803F0C9FC1CBD37
:100850000C660024640400241CB5044640F2FF40EA
:10086000124908600020486088604FF40020C8608A
:100870000020086148618861C86108628DF8000045
:100880008DF801008DF802008DF803008DF804004A
:100890008DF80500200A8DF80600E0B28DF80700FB
:1008A0006A46034803F09CFC1CBD0000306600242F
:1008B0006404002400B589B0002001900290022059
:1008C00003900120049000200590069001A915488E
:1008D00003F0CFFC4FF080400190002002900220F6
:1008E00003900120049000200590069001A90D4876
:1008F00003F0BFFC00200346022211460090094885
:1009000003F00BFD00220121064803F015FC4FF017
:1009100000424021034803F01AFD024804F075FA32
:1009200009B000BD640400241CB5044640F2FF1069
:10093000124908600020486088604FF40020C860B9
:100940000020086148618861C86108628DF8000074
:100950008DF801008DF802008DF803008DF8040079
:100960008DF80500200A8DF80600E0B28DF807002A
:100970006A46034803F034FC1CBD000030660024C6
:100980006404002410B504460AF0EAFF012804D1EB
:100990000CF060FC2A49088006E00AF0E1FF18B973
:1009A0000CF096FB26490880254800880A2805DBBC
:1009B0009FED240A244880ED000A40E0204800888A
:1009C0000A283CDA0BF00CFD01281AD10BF00EFDC1
:1009D000012816D1204600F039F801F0AFF90128BE
:1009E00005D101F09BF910B9002084F88C0201F0C8
:1009F000A5F920BB01F092F9012820D184F88C02DE
:100A00001DE00BF0EDFC10B10BF0F0FCB8B99FED60
:100A10000D0A0D4880ED000A01F090F9012805D17A
:100A200001F07CF910B9002084F88C0201F086F9FD
:100A300028B901F073F9012801D184F88C0210BDA6
:100A4000EE00002400000000E000002410B5044681
:100A50006C480088401C6B49088001F06FF9012840
:100A600003D001F05BF901280BD101206649088011
:100A70000020644908806549088065490880654907
:100A8000088060480088B0F5D77F19DD00205E49F6
:100A9000088008460088D8B900205A49088041F2E9
:100AA000504141F2243008F021FF5B4908600846BC
:100AB00090ED000AB8EEC00A584880ED000A07E041
:100AC000554890ED000AB8EEC00A544880ED000A7F
:100AD0004F480088401C4E49088001F02FF901283A
:100AE0000CD101F01BF948B901204D4908804FF4A1
:100AF000D7704C49088000204549088001F01EF954
:100B000068B901F00BF9012809D102204449088095
:100B10004FF4D7704449088000203D4908803A4886
:100B2000008890BB3E480088012815D138480088CD
:100B30003D490988884228DD94F88C0228BB0120B1
:100B400084F88C020020324908803748008800F57C
:100B5000D7703549088018E031480088022814D140
:100B60002B4800882F49098888420EDD94F88C02B2
:100B700001280AD1002084F88C02254908802948E0
:100B8000008800F5D770274908800CF069FB2749D9
:100B90000988081A264908800CF062FB234908805E
:100BA0001C480088401C1B490880084600884FF6F6
:100BB000F071884202DD0020164908801C48008838
:100BC0000A281EDB13480088B0F5D77F19DD0E48D0
:100BD0000088B0B994F88C0218B9012084F88C020E
:100BE00002E0002084F88C0241F62C200A490860BB
:100BF0000020044908800549088005490880054906
:100C0000088010BDF200002400010024F40000243C
:100C10000601002412010024F8000024E000002452
:100C2000080100240C0100240A0100240E01002404
:100C3000100100242DE9FC4107460C4615461E46CE
:100C40004FF40070154908600020486088604FF438
:100C50000020C8600020086148618861C86108629E
:100C6000380A8DF80000F8B28DF80100200A8DF8DE
:100C70000200E0B28DF80300280A8DF80400E8B203
:100C80008DF80500300A8DF80600F0B28DF80700E7
:100C90006A46034803F0A4FABDE8FC810C66002410
:100CA000C403002410B504462068B0F9000000EE2B
:100CB000100AB8EEC00A064880ED000A01F02EF8CE
:100CC0000449087001F03AF80349087010BD0000AB
:100CD000D80000241401002415010024002282847D
:100CE00040210A52A0F85C20A0F878209FED050A68
:100CF000054981ED000A054981ED000A044981EDAD
:100D0000000A704700000000E0000024DC0000241E
:100D1000D800002405200CF01DFE0E480BF044F90D
:100D200017E00CF0DBF90B480BF0E6F80022042189
:100D3000094804F09BF9074CB4F97830B4F95C2009
:100D4000B4F94010B4F92400FFF774FF02200CF04E
:100D500001FEE6E7E44B00240010025810B50446FB
:100D60009FED160A164880EDA00A9FED140A80ED4B
:100D7000A10A9FED120A80ED060A9FED100A80ED90
:100D80000D0A9FED0E0A80ED140A9FED0C0A80ED0E
:100D90001B0A00218184A0F84010A0F85C10A0F884
:100DA00078100020064981F85C0234B100231A460D
:100DB00019461846FFF73EFF00BF10BD00000000B7
:100DC000E44B00247CB504460D46164620887B493A
:100DD0000988401A00B2ADF8000028887749498890
:100DE000401A00B2ADF80200308874498988401A70
:100DF00000B2ADF80400724890F85C02092867D18F
:100E0000BDF9000000EE900AF8EEE00AB0EE600ACC
:100E10000BF0C0FAF1EE060AB4EEE00AF1EE10FAB9
:100E200022DDBDF9000000EE900AF8EEE00AB0EE17
:100E3000600A0BF0AFFABDF9000000EE900AB8EEC0
:100E4000E01AC1EE000A5D48B0F9000000EE100A99
:100E5000B8EEC00AB1EE061A00EE810ABDEEC00A75
:100E600010EE100A00B22080BDF9020000EE900AD8
:100E7000F8EEE00AB0EE600A0BF08CFAF0EE0C0A25
:100E8000B4EEE00AF1EE10FA22DDBDF9020000EE48
:100E9000900AF8EEE00AB0EE600A0BF07BFABDF9BA
:100EA000020000EE900AB8EEE01AC1EE000A4348D4
:100EB000B0F9020000EE100AB8EEC00AB0EE0C1A4B
:100EC00000EE810ABDEEC00A10EE100A00B22880C2
:100ED0003B4890F85C02082867D1BDF9000000EE9D
:100EE000900AF8EEE00AB0EE600A0BF053FAF1EE69
:100EF000060AB4EEE00AF1EE10FA22DDBDF90000B8
:100F000000EE900AF8EEE00AB0EE600A0BF042FA4A
:100F1000BDF9000000EE900AB8EEE01AC1EE000A3A
:100F20002648B0F9000000EE100AB8EEC00AB1EE93
:100F3000061A00EE810ABDEEC00A10EE100A00B2D9
:100F40002080BDF9020000EE900AF8EEE00AB0EE53
:100F5000600A0BF01FFAF0EE0C0AB4EEE00AF1EEB4
:100F600010FA22DDBDF9020000EE900AF8EEE00A68
:100F7000B0EE600A0BF00EFABDF9020000EE900A26
:100F8000B8EEE01AC1EE000A0C48B0F9020000EE1B
:100F9000100AB8EEC00AB0EE0C1A00EE810ABDEEDF
:100FA000C00A10EE100A00B2288020880349088089
:100FB00028884880308888807CBD0000AE000024EE
:100FC000E44B002410B5044694F85C02022802D1D8
:100FD00094F85C0278B10848006828B92068FFF7E7
:100FE00005FC01200449086003480068012802D17B
:100FF00000200149086010BDA800002410B501FBC5
:1010000002F303EBD374B0EB640F01DD01FB1200BC
:1010100001FB02F4634203EBD374B0EB640F02DA1A
:1010200001FB02F3181A10BD10B500244FF48051D3
:10103000154804F013F8012802D144F0010400E03F
:1010400000BF4FF40051104804F008F8012802D105
:1010500044F0020400E000BF4FF480410A4803F06E
:10106000FDFF012802D144F0040400E000BF4FF46A
:101070000041054803F0F2FF012802D144F00804C2
:1010800000E000BF204610BD0010025810B5024815
:1010900001F056FE10BD0000800A002410B5024881
:1010A00001F04EFE10BD0000E80B002410B5024810
:1010B00001F046FE10BD0000F80A002410B50248F9
:1010C00001F03EFE10BD0000600C002410B5024887
:1010D00001F036FE10BD0000700B002410B5024870
:1010E00001F02EFE10BD0000D80C002410B50248FF
:1010F00001F026FE10BD0000080A002410B50248C9
:1011000001F01EFE10BD0000500D00240146374ABC
:101110000868904249D0354A18320868904244D055
:10112000324A3032086890423FD0304A483208682C
:1011300090423AD02D4A60320868904235D02B4A0E
:1011400078320868904230D0284A9032086890423D
:101150002BD0264AA8320868904226D0244A086834
:10116000904222D0224A1832086890421DD0204A6C
:1011700030320868904218D01D4A483208689042C0
:1011800013D01B4A6032086890420ED0184A783259
:101190000868904209D0164A90320868904204D0FC
:1011A000134AA8320868904201D1012000E00020D3
:1011B000B0B10A78103A1823B2FBF3F000F007023E
:1011C0000C4B9A5CCA65032805D90A686FF30902BB
:1011D000121D8A6503E00A686FF309028A6503E05D
:1011E000086820F0FF008865886D70471000024095
:1011F0001004024078E0000810B502682B4C036828
:10120000A34222D0294C14340368A3421DD0274C9A
:1012100028340368A34218D0244C3C340368A3420A
:1012200013D0224C50340368A3420ED01F4C6434B8
:101230000368A34209D01D4C78340368A34204D04C
:101240001A4C8C340368A34201D1012300E000232F
:101250008BB10378083B1424B3FBF4F1144B03EB7C
:1012600081030366124B8033436601F01F040123A0
:10127000A340836618E00378103B1824B3FBF4F115
:101280000C4B9A4204D80B4BA83B9A4200D308312E
:10129000094B03EB81030366074B8033436601F080
:1012A0001F040123A340836610BD000008540258A8
:1012B00000580258B8040240000802400179A9B35E
:1012C000082940D8204B02689A4222D01E4B143382
:1012D00002689A421DD01C4B283302689A4218D0EB
:1012E000194B3C3302689A4213D0174B50330268B3
:1012F0009A420ED0144B643302689A4209D0124BC2
:10130000783302689A4204D00F4B8C3302689A42B9
:1013100001D1012200E000224AB14A1E0B4B03EB2F
:101320008202C266094A4032026708E00BE04A1EA8
:10133000074B03EB8202C266054A403202674A1E2F
:1013400001239340436770470854025800590258DC
:1013500000090240014600208A69D2B98A6A32B186
:10136000012A0DD0022A03D0032A10D10EE000BFBB
:10137000CA6A02F08072B2F1807F00D1012007E0DA
:10138000CA6AB2F1C07F00D1012001E000E000BFD5
:1013900036E08A69B2F5005F1BD18A6A32B1012A50
:1013A00007D0022A03D0032A11D10AE000BF01208E
:1013B0000EE0CA6A02F08072B2F1807F00D1012093
:1013C00006E0CA6AB2F1C07F00D1012000E000BF90
:1013D00016E08A6A32B1012A05D0022A04D0032A13
:1013E0000CD103E000BF00BF012008E0CA6A02F090
:1013F0008072B2F1807F00D1012000E000BF00BF09
:1014000070470000F0B5856D846D984F0668BE4248
:1014100070D0964F18370668BE426BD0934F303766
:101420000668BE4266D0914F48370668BE4261D01A
:101430008E4F60370668BE425CD08C4F78370668A6
:10144000BE4257D0894F90370668BE4252D0874F70
:10145000A8370668BE424DD0854F0668BE4249D0C7
:10146000834F18370668BE4244D0814F3037066834
:10147000BE423FD07E4F48370668BE423AD07C4FCE
:1014800060370668BE4235D0794F78370668BE426D
:1014900030D0774F90370668BE422BD0744FA837B4
:1014A0000668BE4226D0734F0668BE4222D0714FF6
:1014B00014370668BE421DD06E4F28370668BE42FC
:1014C00018D06C4F3C370668BE4213D0694F503776
:1014D0000668BE420ED0674F64370668BE4209D028
:1014E000644F78370668BE4204D0624F8C37066876
:1014F000BE4201D1012600E000263EB1D0E91976B6
:101500007E60C66E16B1D0E91C767E60574F0668C5
:10151000BE4249D0554F18370668BE4244D0534F9B
:1015200030370668BE423FD0504F48370668BE424B
:101530003AD04E4F60370668BE4235D04B4F7837B1
:101540000668BE4230D0494F90370668BE422BD065
:10155000464FA8370668BE4226D0454F0668BE42B1
:1015600022D0434F18370668BE421DD0404F303757
:101570000668BE4218D03E4F48370668BE4213D0B8
:101580003B4F60370668BE420ED0394F7837066849
:10159000BE4209D0364F90370668BE4204D0344F61
:1015A000A8370668BE4201D1012600E00026DEB160
:1015B00090F85C6006F01F073F26BE40AE600668EC
:1015C000366826F4802607683E6006687360866881
:1015D000402E04D10668B2600668F16044E00668F7
:1015E000B1600668F2603FE0224F0668BE4222D03A
:1015F000204F14370668BE421DD01E4F283706689C
:10160000BE4218D01B4F3C370668BE4213D0194F5C
:1016100050370668BE420ED0164F64370668BE4289
:1016200009D0144F78370668BE4204D0114F8C376A
:101630000668BE4201D1012600E00026A6B190F85E
:101640005C6006F01F070126BE4066600668736096
:101650008668402E04D10668B2600668F16003E037
:101660000668B1600668F260F0BD0000100002403C
:1016700010040240085402587047000005200CF086
:1016800069F908E00A21002008F030F902490860F1
:1016900002200CF05FF9F5E7A400002472B600BF49
:1016A000FEE7000010B5024802F074FF10BD000014
:1016B000C403002410B5024802F06CFF10BD000006
:1016C0006404002410B501464A6B0868D0F8840011
:1016D0004FF6FC74A04340EA82000C68C4F8840012
:1016E0000868D0F8840020F47F04088F44EA0040A2
:1016F0000C68C4F88400886B02440868D0F888003D
:101700004FF6FC74A04340EA82000C68C4F88800DD
:101710000868D0F8880020F4FE04888F44EA00406E
:101720000C68C4F88800C86B02EB40020868D0F867
:10173000A0004FF6FC74A04340EA82000C68C4F895
:10174000A0000868D0F8A00020F4FE044020405A11
:1017500044EA00400C68C4F8A000D1E9104004FB42
:1017600000220868D0F8B0004FF6FC74A04340EAAD
:1017700082000C68C4F8B0000868D0F8B00020F40B
:10178000FE04B1F8480044EA00400C68C4F8B00018
:10179000D1E9124004FB00220868D0F8AC004FF6F3
:1017A000FC74A04340EA82000C68C4F8AC00D1E9A4
:1017B000144004FB00220868D0F8F0004FF6FC74D7
:1017C000A04340EA82000C68C4F8F0000868D0F832
:1017D000F00020F47C14B1F8580044EA00400C6892
:1017E000C4F8F000886D02EB40020868D0F8C00031
:1017F0004FF6FC74A04340EA82000C68C4F8C000B5
:101800000868D0F8C00020F47C14B1F85C0044EA09
:1018100000400C68C4F8C0000868D0F8C00020F090
:101820007C5491F8600044EA00600C68C4F8C00081
:101830002A4C486B04EB8000C866CC6E886B04EBC6
:1018400080040C670C6FC86B04EBC0044C67D1E9D3
:10185000100460434C6F04EB80048C67D1E91204E0
:1018600060438C6F04EB8004CC67D1E914046043BF
:10187000CC6F04EB8004802044504458886D04EB06
:10188000C004842044508C6EC86D60438424645826
:1018900004EB8004882044508C6E086E60438824DA
:1018A000645804EB80049020445040580C4CA042F3
:1018B00009D99831486840F020004860032001F8B9
:1018C0009809012010BDCB6E02E0002018601B1D9E
:1018D000902040589842F8D80020F3E700AC004030
:1018E000FCD300402DE9F041054614461E46D1F8D0
:1018F00004C0BCF1000F0AD1D1F810C0D1F80880A3
:101900004CEA080CB1F800804CEA88430BE0D1F8AF
:1019100010C04CF0804CD1F808804CEA080CD1F88B
:1019200000804CEA080391F82080D1F81CC04CEAF2
:10193000086CD1F818804CEA080CD1F814804CEAF5
:10194000080CD1F80C804CEA0807D5F868C00CFBED
:1019500006FCD5F8848008EB8C021360121D17601A
:10196000121D002019E000F1030C14F80CC04FEA1E
:101970000C6800F1020C14F80CC048EA0C4800F1A5
:10198000010C14F80CC048EA0C2C14F800804CEA46
:10199000080CC2F800C0121D001DDFF81880D1F835
:1019A0000CC008EB1C4C9CF800C08445DBD8BDE89B
:1019B000F081000080E0000810B50BF0B1FD07F0E9
:1019C000F9FF684981F8CE0007F0DCFF654981F82E
:1019D000CD00084690F8CE0020B940F209400BF047
:1019E000A7FD17E05F4890F8CE00012804D140F22F
:1019F0002E400BF09DFD0DE05A4890F8CE000228D5
:101A000004D14FF461700BF093FD03E04FF461706B
:101A10000BF08EFD534890F8CD0002281CD15148A0
:101A20000068B0F9022042F21C5300214D480C30EE
:101A300007F0DAFF4B49A1F8D00008464068B0F93A
:101A4000022042F21C53002146480C3007F0CCFF24
:101A50004449A1F8D20083E0424890F8CD00E0BBB1
:101A60000BF0DAFD3F480068B0F902203D48D0EDA8
:101A7000370A3D48B0F9000000EE100AB8EEC00A7F
:101A800020EE800ABDEEC00A10EE100A01B242F24A
:101A90001C5334480C3007F0A7FF3249A1F8D0009E
:101AA00008464068B0F902200846D0ED370A2F48B2
:101AB000B0F9000000EE100AB8EEC00A20EE800A6D
:101AC000BDEEC00A10EE100A01B242F21C532548C6
:101AD0000C3007F089FF234900E002E0A1F8D200B2
:101AE0003EE0204890F8CD0003281DD11D48006835
:101AF000B0F9022042F21C5340F6E44119480C3080
:101B000007F072FF1749A1F8D00008464068B0F905
:101B1000022042F21C53164912480C3007F064FFB1
:101B20001049A1F8D2001BE00E480068B0F902206D
:101B300042F21C5300210B480C3007F055FF0949B5
:101B4000A1F8D00008464068B0F9022042F21C53C8
:101B5000002104480C3007F047FF0249A1F8D200E9
:101B600010BD0000044B0024A0000024A2000024AB
:101B70001CF3FFFF05200BF0EDFE00F027F81FE03F
:101B8000002210210F4803F071FA40F2DC500BF0F4
:101B9000CFFC07F023FF022805D007F01FFF10B18C
:101BA000FFF70AFF09E04FF461700BF0C1FC002061
:101BB0000549A1F8D000A1F8D20002200BF0CAFE1E
:101BC000DEE7000000100258044B002410B500F0BE
:101BD0009DF81A49086000F09DF8184948600220F5
:101BE00081F8CD0081F8CE009FED152ADFED141AA3
:101BF0009FED131ADFED120AB2EE080A01F10C0094
:101C00000AF08AFE9FED0E2ADFED0D1A9FED0D1AE8
:101C1000DFED0C0A9FED0C0A08486C300AF07CFEE0
:101C200000200649A1F8D000A1F8D20081F8D40024
:101C30004FF461700BF07CFC10BD0000044B0024DD
:101C400000000000CDCCCC3D0000484205200BF048
:101C500081FE134800F062FB21E01248008808B9B9
:101C60000AF03AFD002208210F4803F0FFF90C4862
:101C70000AF020FD0A4BB3F9C229DB68B3F9D21090
:101C8000074BDB68B3F9D0000023FEF73DFD0449A4
:101C9000B1F9560BFEF748FE02200BF05BFEDCE7C5
:101CA000744E0024B600002400100258004870470B
:101CB000BC67002430B5034613B94FF6FF7030BD42
:101CC00009E013F8014B82EA0400C0B2054D35F873
:101CD000100080EA2222081EA1F10101F1D1104674
:101CE000EDE700006AE2000830B5034605E013F8AE
:101CF000010B80EA02040448025D081EA1F1010103
:101D0000F5D1104630BD000069E100080048704779
:101D10005C680024004870477868002410B5802172
:101D2000044803F09BF940B2034908700846007864
:101D300010BD0000000002581601002410B540211B
:101D4000044803F08BF940B2034908700846007854
:101D500010BD000000000258170100240048704721
:101D6000B068002400487047946800240048704719
:101D7000CC68002400487047E868002401480078D7
:101D8000704700005401002410B50446207A012851
:101D90000FD1616989694FF4B47201FB02F0C11778
:101DA00000EB9151891200EE101AB8EEC00A84EDD2
:101DB000690A606890ED000AF1EE000A20EE200A40
:101DC00080ED0A0A606890ED010AF1EE000A20EE4B
:101DD000200A80ED0B0A6068D0ED0A0AB0EE600AB6
:101DE0009FED0D1ADFED0D0A0AF0DEFA606880ED56
:101DF0000A0A6068D0ED0B0AB0EE600ABAEE0E1A5D
:101E0000F2EE0E0A0AF0D0FA606880ED0B0A204666
:101E100000F044F810BD00000080BBC30000164372
:101E200010B50446606890ED000AB5EEC00AF1EE08
:101E300010FA0DD1606890ED010AB5EEC00AF1EE1E
:101E400010FA05D113480088401C1249088003E0AD
:101E500000201049088020720E480088B0F5C87F25
:101E600005DB4FF4C8700B49088001202072207AEE
:101E7000012805D1204600F0C7F802200649087065
:101E8000207A28B92046FFF77FFF0020024908701A
:101E900010BD000036010024350100241CB50446A5
:101EA00042F6F821606890ED0B0ABDEEC00A10EE14
:101EB000100A00B2CDE90001D4F8C409B0F902302B
:101EC000002204F6882104F6E82007F089FAA4F835
:101ED000560B4FF4FA5194ED690AB1EE400A60686E
:101EE000D0ED0A0A30EE600ABDEEC00A10EE100A0C
:101EF00000B2CDE900016069B0F9023094ED690AE1
:101F0000B1EE400ABDEEC00A10EE100A02B204F1B2
:101F1000D80104F59C700AF08BFCA4F8C2091CBD22
:101F200070B52DED028B82B004460D461646B7EE15
:101F3000000AB0EE408AB4F9C20900EE900AF8EE49
:101F4000E00AB0EE600A372104F5DC7007F086FD88
:101F5000BDEEC00A10EE100A01B2A4F8C219B4F91D
:101F6000C20900EE900AF8EEE00AB0EE600A04F54D
:101F7000D4700AF0D5F9BDEEC00A10EE100A01B215
:101F8000A4F8C2194FF4FA50CDE900606069B0F9C5
:101F90000230808A02B204F1180104F178000AF0DC
:101FA00047FCA4F8C209D4F8C4090069281A00EE55
:101FB000900AF8EEE00AB0EE600A9FED111ADFED2C
:101FC000110A0AF0D1FBB0EE408A42F6F821BDEECC
:101FD000C80A10EE100A00B2CDE90001D4F8C40915
:101FE000B0F90230002204F6C81104F6282007F0E8
:101FF000F7F9A4F8560B02B0BDEC028B70BD0000DF
:1020000000003443000034C310B50446D4F8C409BA
:1020100000690F2803DB01203049086008E0D4F88C
:10202000C409006910F10F0F02DC00202B49086081
:102030002A480068012808D1294890ED000ADFED00
:10204000290A30EE600A80ED000A2448006840B991
:10205000234890ED000ADFED230A30EE200A80EDE0
:10206000000A606940691E2803DB01201E490860E0
:1020700007E06069406910F10F0F02DC00201A4987
:1020800008601948006840B9184890ED000ADFED73
:10209000150A30EE200A80ED000A13480068012876
:1020A00008D1124890ED000ADFED0E0A30EE600A0A
:1020B00080ED000A0D4890ED000ABDEEC00A10EE5A
:1020C000100A02B2064890ED000ABDEEC00A10EEFA
:1020D000100A01B22046FFF723FF10BD3C01002487
:1020E00044010024CDCC4C3E400100244801002492
:1020F00010B504462068B0F9040000EE100AB8EEEE
:10210000C00ADFED3A0A20EE200ADFED390A20EEA0
:10211000200A384880ED000A2068B0F9040000EE7B
:10212000100AB8EEC00ADFED310A60EE200A32482C
:1021300090ED000A9FED2E1A00EE810A80ED000A54
:102140009FED2E1ADFED2E0A90ED000A0AF00CFB2F
:10215000294880ED000A2068B0F9060000EE100A58
:10216000B8EEC00ADFED210A60EE200A254890EDA6
:10217000000A9FED251A00EE810A80ED000ABAEEF2
:102180000E1AF3EE0E0A90ED000A0AF00DF91D4842
:1021900080ED000A2068B0F90800B0F5FA7F03DB93
:1021A00000201A4908700CE02068B0F9080010F50A
:1021B000FA7F03DC03201549087002E0022013496E
:1021C0000870104890ED000ABDEEC00A10EE100A2B
:1021D00002B2094890ED000ABDEEC00A10EE100AE6
:1021E00001B22046FFF79CFE10BD0000C3642A3BED
:1021F000CDCC4C3E4C0100242C0100240000344383
:10220000000034C330010024EC51B83D35010024F6
:102210000022A0F8C229A0F8562B9FED080A4168B9
:1022200081ED0A0A9FED050A416881ED0B0A022142
:10223000034A1170034A117070470000000000004B
:10224000340100243501002470B504462068C07AAA
:10225000401EC5B22068807A401EC6B2FFF78EFDD0
:102260000F2806D105EB450028490844805D2074FD
:1022700008E0FFF783FD28B905EB45002449084431
:10228000805D2074207C0B283DD2DFE800F02E3CDE
:102290000A3C34201927063810002046FFF7C0FDFD
:1022A00032E02046FFF7B4FF07F058FB2CE0204651
:1022B000FFF7B6FD0220174908701749087023E0A0
:1022C0002046FFF715FF0020124908701CE0204649
:1022D000FFF70EFF02200F49087015E02046FFF7B8
:1022E00007FF01200B4908700EE007F037FB20467E
:1022F000FFF78EFF08E02046FFF7FAFE04E02046D5
:10230000FFF782FE00E000BF00BF70BD180100248F
:1023100021010024340100243501002410B50446B5
:102320000AF06EF82060FFF725FDC4F8C409FFF736
:1023300019FD6061FFF7BAFC60600AF05DF8E060CB
:1023400007F090FA9FED520A04F5D4700AF00AF8EB
:1023500004F5DC7007F0CAFB9FED4E2ADFED4E1A44
:102360009FED4E1AF7EE080A9FED4D0A04F1180092
:102370000AF0D2FA9FED4B0A84ED100A9FED4A0A4B
:1023800084ED110AB2EE040A84ED0D0AB7EE000ADC
:1023900084ED0F0AB2EE000A84ED0E0A9FED3D2A8D
:1023A000DFED3C1AB1EE081ADFED3A0AB2EE050A8B
:1023B00004F178000AF0B0FA9FED362ADFED361A04
:1023C000B2EE021ADFED390A9FED390A04F1D800A6
:1023D0000AF0A2FA9FED330A84ED400A9FED350A18
:1023E00084ED410AB1EE0C0A84ED3D0AB2EE040A16
:1023F00084ED3F0AB3EE0E0A84ED3E0A9FED252AD6
:10240000DFED241A9FED231ADFED220AB2EE040A53
:1024100004F59C700AF080FA9FED1E2ADFED1D1A6C
:102420009FED251ADFED1B0A9FED240A04F6C81064
:102430000AF072FA9FED172ADFED161A9FED151AB2
:10244000DFED140AB2EE020A04F628200AF064FA5C
:102450009FED102ADFED0F1AB2EE0E1ADFED0D0A16
:102460009FED150A04F688200AF056FA9FED092A16
:10247000DFED081AB7EE001ADFED060AB2EE0E0A1B
:1024800004F6E8200AF048FA0AF02CF910BD000022
:102490000F0BB53D000000000000FA44000096421A
:1024A0000000704200003443000048C3CDCCCC3D56
:1024B0000000104200007AC30000C842000002433E
:1024C00010B504462046FFF7BFFE10BD2DE9F041D0
:1024D000044602F0D7FD804614B90120BDE8F08122
:1024E00094F83500022808D08020606500BF0020E5
:1024F00084F8340000BF0120F0E7FE4920688842DC
:1025000049D0FC4918312068884244D0F94930311B
:10251000206888423FD0F7494831206888423AD045
:10252000F44960312068884235D0F249783120681A
:10253000884230D0EF499031206888422BD0ED4955
:10254000A8312068884226D0EB492068884222D0F2
:10255000E9491831206888421DD0E74930312068A8
:10256000884218D0E44948312068884213D0E249B3
:102570006031206888420ED0DF4978312068884277
:1025800009D0DD4990312068884204D0DA49A83169
:102590002068884201D1012000E0002068B1206855
:1025A000006820F01E00216808602068406920F063
:1025B000800021684861256806E02068006820F0F6
:1025C0000E00216808602568CA492068884270D0DA
:1025D000C8491831206888426BD0C649303120681C
:1025E000884266D0C34948312068884261D0C149D9
:1025F0006031206888425CD0BE49783120688842CA
:1026000057D0BC4990312068884252D0B949A8318E
:10261000206888424DD0B8492068884249D0B649E0
:1026200018312068884244D0B3493031206888424C
:102630003FD0B1494831206888423AD0AE49603134
:102640002068884235D0AC4978312068884230D043
:10265000A9499031206888422BD0A749A831206829
:10266000884226D0A5492068884222D0A349143147
:10267000206888421DD0A14928312068884218D09E
:102680009E493C312068884213D09C4950312068D3
:1026900088420ED0994964312068884209D0974910
:1026A00078312068884204D094498C31206888426F
:1026B00001D1012000E0002028B1206E006820F444
:1026C0008070216E08608B492068884249D0894912
:1026D00018312068884244D08649303120688842C9
:1026E0003FD084494831206888423AD081496031DE
:1026F0002068884235D07F4978312068884230D0C0
:102700007C499031206888422BD07A49A8312068D2
:10271000884226D078492068884222D076491831EC
:10272000206888421DD0744930312068884218D012
:10273000714948312068884213D06F496031206860
:1027400088420ED06C4978312068884209D06A49A5
:1027500090312068884204D06749A83120688842B7
:1027600006D12068006820F001002168086005E0BB
:102770002068006820F001002168086011E002F084
:1027800081FCA0EB080005280BD92020606500BF64
:10279000002084F8340000BF032084F835000120B5
:1027A0009CE6286800F001000028E8D15149206823
:1027B000884249D04F4918312068884244D04D4959
:1027C0003031206888423FD04A49483120688842E9
:1027D0003AD0484960312068884235D0454978313F
:1027E0002068884230D043499031206888422BD0FD
:1027F0004049A8312068884226D03F492068884255
:1028000022D03D491831206888421DD03A493031E4
:102810002068884218D0384948312068884213D04F
:1028200035496031206888420ED0334978312068BC
:10283000884209D0304990312068884204D02E491E
:10284000A8312068884201D1012000E0002040B179
:10285000A66D94F85C0000F01F013F208840B06036
:1028600007E0A76D94F85C0000F01F01012088408C
:10287000786020492068884276D01E491831206847
:10288000884271D01B493031206888426CD0194988
:1028900048312068884267D01649603120688842F4
:1028A00062D014497831206888425DD01149903156
:1028B0002068884258D00F49A8312068884253D0F8
:1028C0000D49206888424FD00B4918312068884252
:1028D0004AD0094930312068884245D006494831FC
:1028E0002068884240D004496031206888423BD04B
:1028F000014905E01000024010040240085402584B
:102900007831206888422FD02549206888422BD012
:10291000234918312068884226D0224920688842FD
:1029200022D020491431206888421DD01D49283109
:102930002068884218D01B493C312068884213D057
:1029400018495031206888420ED0164964312068F9
:10295000884209D0134978312068884204D011494F
:102960008C312068884201D1012000E0002068B14C
:10297000D4E919104860E06E40B1E06E006820F4C0
:102980008070E16E0860D4E91C10486000BF002030
:1029900084F8340000BF012084F8350000209DE554
:1029A000A00402400854025870B504460CB9012036
:1029B00070BD94F83500022803D0802060650120A6
:1029C000F6E7DC492068884249D0DA4918312068A6
:1029D000884244D0D7493031206888423FD0D54919
:1029E0004831206888423AD0D24960312068884214
:1029F00035D0D04978312068884230D0CD499031E7
:102A0000206888422BD0CB49A8312068884226D044
:102A1000C9492068884222D0C749183120688842B5
:102A20001DD0C54930312068884218D0C24948318C
:102A30002068884213D0C0496031206888420ED097
:102A4000BD4978312068884209D0BB49903120685F
:102A5000884204D0B849A8312068884201D10120B9
:102A600000E00020F0B3042084F83500B14920686C
:102A700088424BD0AF4918312068884246D0AD49D2
:102A800030312068884241D0AA49483120688842C4
:102A90003CD0A84960312068884237D0A5497831B8
:102AA0002068884232D0A3499031206888422DD0D6
:102AB000A049A8312068884228D09F4920688842D0
:102AC00024D09D491831206888421FD09A4930315E
:102AD000206888421AD0984948312068884215D029
:102AE000954900E020E06031206888420ED092498C
:102AF00078312068884209D08F4990312068884217
:102B000004D08D49A8312068884206D12068006829
:102B100020F001002168086009E12068006820F0C9
:102B200001002168086002E12068006820F00E00C2
:102B3000216808607F492068884249D07D49183162
:102B40002068884244D07B493031206888423FD099
:102B500078494831206888423AD076496031206807
:102B6000884235D0734978312068884230D0714925
:102B70009031206888422BD06E49A8312068884265
:102B800026D06D492068884222D06B4918312068D0
:102B900088421DD0684930312068884218D0664983
:102BA00048312068884213D06349603120688842E8
:102BB0000ED0614978312068884209D05E49903151
:102BC0002068884204D05C49A8312068884206D138
:102BD0002068006820F001002168086005E0206896
:102BE000006820F00100216808605249206888428E
:102BF00070D050491831206888426BD04D4930312F
:102C00002068884266D04B4948312068884261D0AC
:102C100048496031206888425CD046497831206854
:102C2000884257D0434990312068884252D0414968
:102C3000A831206888424DD03F492068884249D059
:102C40003D4918312068884244D03B4930312068E2
:102C500088423FD038494831206888423AD03649C6
:102C600060312068884235D0334978312068884205
:102C700030D031499031206888422BD02E49A8317C
:102C80002068884226D02D492068884222D02B49CE
:102C90001431206888421DD0284928312068884294
:102CA00018D026493C312068884213D0234950313E
:102CB000206888420ED0214964312068884209D0BA
:102CC0001E4978312068884204D01C498C31206824
:102CD000884201D1012000E00020D8B1206E0068B8
:102CE00020F48070216E0860A56D94F85C0000F0FF
:102CF0001F01012088406860D4E919104860E06E27
:102D000040B1E06E006820F48070E16E0860D4E9A4
:102D10001C10486000BF002084F8340000BF012070
:102D200084F83500206D10B12046216D88470020C1
:102D30003EE6000010000240100402400854025811
:102D40002DE9F84F044600200090FE4800684FF43B
:102D50001651B0FBF1FAA66DD4F858803768D8F850
:102D60000090F9492068884249D0F7491831206815
:102D7000884244D0F4493031206888423FD0F2493B
:102D80004831206888423AD0EF4960312068884253
:102D900035D0ED4978312068884230D0EA49903109
:102DA000206888422BD0E849A8312068884226D084
:102DB000E6492068884222D0E449183120688842D8
:102DC0001DD0E24930312068884218D0DF494831AF
:102DD0002068884213D0DD496031206888420ED0D7
:102DE000DA4978312068884209D0D8499031206882
:102DF000884204D0D549A8312068884201D10120F9
:102E000000E0002000287DD094F85C0000F01F0155
:102E1000082088403840002868D0CB492068884284
:102E200049D0C94918312068884244D0C649303158
:102E3000206888423FD0C4494831206888423AD04F
:102E4000C14960312068884235D0BF497831206857
:102E5000884230D0BC499031206888422BD0BA4992
:102E6000A8312068884226D0B8492068884222D0FC
:102E7000B6491831206888421DD0B44930312068E5
:102E8000884218D0B14948312068884213D0AF49F0
:102E90006031206888420ED0AC4978312068884281
:102EA00009D0AA4990312068884204D0A749A831A6
:102EB0002068884204D12068006800F0040003E024
:102EC0002068006800F0080080B12068006820F0E9
:102ED00004002168086094F85C0000F01F010820DD
:102EE0008840B060606D40F00100606594F85C005F
:102EF00000F01F01012088403840E8B39249206863
:102F0000884200E0B8E24BD08F49183120688842EF
:102F100046D08D4930312068884241D08A494831B5
:102F2000206888423CD0884960312068884237D088
:102F3000854978312068884232D0834990312068B1
:102F400088422DD08049A8312068884228D07F4906
:102F50002068884224D07D491831206888421FD0DB
:102F60007A493031206888421AD07849483120683F
:102F7000884215D0754900E026E06031206888421B
:102F80000ED0724978312068884209D06F4990315B
:102F90002068884204D06D49A8312068884204D155
:102FA0002068406900F0800002E02068006800208E
:102FB00050B194F85C0000F01F0101208840B0601F
:102FC000606D40F00200606594F85C0000F01F0145
:102FD000042088403840E8B35B49206888424BD0E1
:102FE000594918312068884246D057493031206805
:102FF000884241D054494831206888423CD05249E7
:1030000060312068884237D04F4978312068884243
:1030100032D04D499031206888422DD04A49A8319C
:103020002068884228D049492068884224D04749EE
:103030001831206888421FD04449303120688842C6
:103040001AD0424948312068884215D03F49603142
:10305000206800E024E088420ED03C4978312068A6
:10306000884209D0394990312068884204D03749D4
:10307000A8312068884204D12068006800F002006E
:1030800002E020680068002050B194F85C0000F075
:103090001F0104208840B060606D40F0040060654E
:1030A00094F85C0000F01F01102088403840E8B31D
:1030B00025492068884251D0234918312068884228
:1030C0004CD0214930312068884247D01E494831D0
:1030D0002068884242D01C496031206888423DD037
:1030E000194978312068884238D0174990312068D2
:1030F000884233D01449A831206888422ED0134921
:10310000206888422AD0114918312068884225D089
:103110000E4930312068884220D00C49483120685F
:1031200088421BD009496031206800E04DE08842A8
:1031300014D006497831206888420FD00349903175
:10314000206805E02800002410000240100402401E
:10315000884203D0FE492068884204D12068006874
:1031600000F0080003E02068006800F0040060B38D
:1031700094F85C0000F01F0110208840B0602068C7
:10318000006800F4802080B12068006800F400200E
:1031900028B9206CC8B12046216C884715E0A06C86
:1031A00098B12046A16C88470FE02068006800F4C1
:1031B000807028B92068006820F008002168086045
:1031C000206C10B12046216C884794F85C0000F018
:1031D0001F0120208840384000287DD0DD4920682C
:1031E000884249D0DB4918312068884244D0D94907
:1031F0003031206888423FD0D64948312068884223
:103200003AD0D44960312068884235D0D1497831EC
:103210002068884230D0CF499031206888422BD036
:10322000CC49A8312068884226D0C949A8392068ED
:10323000884221D0C6499039206888421CD0C449B0
:1032400078392068884217D0C1496039206888429F
:1032500012D0BF494839206888420DD0BC49303966
:103260002068884208D0BA4918392068884203D0BB
:10327000B7492068884204D12068006800F0100037
:1032800003E02068006800F0020028B394F85C00B6
:1032900000F01F0120208840B06094F83500042819
:1032A0002DD12068006820F0160021680860206891
:1032B000406920F0800021684861206C08B9A06C4A
:1032C00028B12068006820F008002168086094F8A0
:1032D0005C0000F01F0100E03FE03F208840B0604C
:1032E00000BF002084F8340000BF012084F83500BE
:1032F000206D10B12046216D8847BDE8F88F206809
:10330000006800F4802080B12068006800F400208C
:1033100028B9606C08B32046616C88471DE0E06BFB
:10332000D8B12046E16B884717E02068006800F4B8
:10333000807068B92068006820F01000216808607B
:1033400000BF002084F8340000BF012084F835005D
:10335000E06B10B12046E16B8847606D00287DD09E
:10336000606D00F00100E8B3042084F8350079496D
:10337000206888424BD0774918312068884246D06F
:10338000744930312068884241D072494831206800
:1033900088423CD06F4960312068884237D06D49FF
:1033A00078312068884232D06A499031206888425A
:1033B0002DD06849A8312068884228D06449A839AE
:1033C0002068884223D062499039206888421ED004
:1033D0005F4978392068884219D05D496039206892
:1033E000884200E041E012D05949483920688842BB
:1033F0000DD0574930392068884208D054491839CF
:103400002068884203D052492068884206D120684B
:10341000006820F001002168086005E0206800686D
:1034200020F001002168086000BF0098401C009057
:10343000504500D905E02068006800F00100002830
:10344000F3D100BF00BF002084F8340000BF206823
:10345000006800F0010028B1032000E00BE084F8D0
:10346000350002E0012084F83500E06C002802D02D
:103470002046E16C8847D9E137492068884222D04C
:1034800035491431206888421DD0334928312068DD
:10349000884218D030493C312068884213D02E49E8
:1034A0005031206888420ED02B4964312068884210
:1034B00009D0294978312068884204D026498C31C6
:1034C0002068884201D1012000E000200028D2D0ED
:1034D0002068056894F85C0000F01F010420884013
:1034E00000EA0900D0B305F00400B8B394F85C001A
:1034F00000F01F0104208840C8F8040005F40040D3
:1035000080B105F4803030B9A06C0028B3D02046DB
:10351000A16C88478AE1206C0028ACD02046216C41
:10352000884783E105F02000F0BB0A492068884203
:1035300052D008491831206888424DD005493031B1
:103540002068884248D0034948312068884206E014
:10355000B804024010000240085402584FE03BD02B
:10356000B3492068884237D0B14918312068884271
:1035700032D0AF493031206888422DD0AC49483133
:103580002068884228D0AB492068884224D0A949C5
:103590001831206888421FD0A649303120688842FF
:1035A0001AD0A449483100E023E02068884213D0B3
:1035B000A0496031206888420ED09E497831206849
:1035C000884209D09B4990312068884204D09949AB
:1035D000A8312068884206D12068006820F00800E1
:1035E0002168086005E02068006820F00400216878
:1035F0000860206C10B32046216C884716E194F8CF
:103600005C0000F01F010220884000EA0900E8B3D6
:1036100005F00200D0B394F85C0000F01F01022016
:103620008840C8F8040005F4004070B105F480300B
:1036300028B9606C10B12046616C8847F6E0E06BF9
:10364000F0B32046E16B8847F0E005F02000C0BBF6
:1036500077496039206888424DD0754948392068DB
:10366000884248D0724930392068884243D0704936
:103670001839206888423ED06D49206888423AD087
:103680006B4918312068884235D000E04EE0684927
:103690003031206888422ED0654948312068884200
:1036A00029D064492068884225D0624918312068B1
:1036B000884220D05F493031206888421BD001E029
:1036C0006EE02DE05B4948312068884213D05949AB
:1036D0006031206888420ED056497831206888428F
:1036E00009D0544990312068884204D05149A8310A
:1036F0002068884206D12068006820F01400216804
:10370000086005E02068006820F00A002168086071
:1037100000BF002084F8340000BF012084F8350089
:10372000E06BE8B32046E16B88477FE094F85C00EB
:1037300000F01F010820884000EA090080B305F06E
:10374000080068B33A496039206888424AD038494D
:1037500048392068884245D0354930392068884248
:1037600040D033491839206888423BD0304920681E
:10377000884237D02E4918312068884232D02C49EF
:103780003031206888422DD029494831206888424C
:1037900028D028492068884224D02649183100E0E2
:1037A00044E0206888421DD0224930312068884298
:1037B00018D0204948312068884213D01D49603113
:1037C000206888420ED01B4978312068884209D091
:1037D000184990312068884204D01649A8312068E1
:1037E000884206D12068006820F01C00216808602B
:1037F00005E02068006820F00E002168086094F859
:103800005C0000F01F0101208840C8F8040001207E
:10381000606500BF002084F8340000BF012084F8F8
:103820003500E06C10B12046E16C884700BF64E5CC
:1038300070000240100402402DE9F041044601F0FE
:1038400021FC804614B90120BDE8F081FE492068C2
:10385000884249D0FC4918312068884244D0FA494E
:103860003031206888423FD0F7494831206888428B
:103870003AD0F54960312068884235D0F249783134
:103880002068884230D0F0499031206888422BD09F
:10389000ED49A8312068884226D0EC49206888424A
:1038A00022D0EA491831206888421DD0E7493031DA
:1038B0002068884218D0E54948312068884213D0F2
:1038C000E2496031206888420ED0E04978312068B2
:1038D000884209D0DD4990312068884204D0DB4914
:1038E000A8312068884201D1012000E00020002892
:1038F00073D0606A00B100BF00BF002084F83400BC
:1039000000BF022084F83500CF492068884249D0A2
:10391000CD4918312068884244D0CB4930312068E5
:1039200088423FD0C8494831206888423AD0C649C9
:1039300060312068884235D0C34978312068884298
:1039400030D0C1499031206888422BD0BE49A8317F
:103950002068884226D0BD492068884222D0BB49D1
:103960001831206888421DD0B8493031206888421B
:1039700018D0B64948312068884213D0B349603125
:10398000206888420ED0B14978312068884209D039
:10399000AE4990312068884204D0AC49A8312068F3
:1039A000884206D12068006820F001002168086084
:1039B00005E02068006820F00100216808600DE043
:1039C00001F060FBA0EB0800052807D92020606506
:1039D000032084F83500012036E76AE0206800689B
:1039E00000F001000028EBD12068056898480540E8
:1039F000D4E9020108432169084361690843A169C8
:103A00000843E1690843216A08430543606A0428C2
:103A100003D1D4E90B01084305438E4800686FF3D6
:103A20000F00B0F1005F1DD36068292802D36068E1
:103A30002E2811D960683F2802D3606842280BD92C
:103A40006068472802D36068482805D960684F2815
:103A500004D36068522801D8012000E0002008B19A
:103A600045F48015206805602068456925F0070544
:103A7000606A0543606A04280DD1A06A0543E06AC4
:103A800048B12046FDF766FC28B140206065012062
:103A900084F83500D8E6206845612046FDF736FBFE
:103AA000064694F85C0000F01F013F208840B0609B
:103AB0009EE069492068884222D067491431206815
:103AC00088421DD0644928312068884218D0624954
:103AD0003C312068884213D05F49503120688842C9
:103AE0000ED05D4964312068884209D05A49783146
:103AF0002068884204D058498C312068884201D11E
:103B0000012000E00020E0B353492068884222D021
:103B100051491431206888421DD04F49283120680E
:103B2000884218D04C493C312068884213D04A4919
:103B30005031206888420ED047496431206888425D
:103B400009D0454978312068884204D042498C31F7
:103B50002068884201D1012000E0002000B100BFB0
:103B600000BF002084F8340000BF022084F8350034
:103B70002068056839480540A068402802D1102116
:103B800006E02EE0A068802801D1C10100E00021FC
:103B9000E06841EAD001206941EAD001606941EA68
:103BA000D001A06941EAD001E06941EAD001206A70
:103BB00041EA101005432068056027492068401A33
:103BC0001421B0FBF1F08000E0652046FDF79EFA7D
:103BD000074694F85C0000F01F01012088407860DF
:103BE00006E040206065032084F8350001202BE6C4
:103BF0001549206888427FD01349183120688842CF
:103C00007AD0114930312068884275D00E49483148
:103C10002068884270D00C496031206888426BD09F
:103C2000094978312068884266D007499031206878
:103C3000884261D00449A831206888425CD0034999
:103C40002068884258D00BE0100002401004024067
:103C50003F8010FE0010005C085402580F00FEFF69
:103C60003B4918312068884246D0394930312068B4
:103C7000884241D036494831206888423CD0344996
:103C800060312068884237D03149783120688842D5
:103C900032D02F499031206888422DD02C49A8314C
:103CA0002068884228D02B492068884224D029499E
:103CB0001431206888421FD0264928312068884264
:103CC0001AD024493C312068884215D0214950310E
:103CD0002068884210D01F496431206888420BD088
:103CE0001C4978312068884206D01A498C312068F6
:103CF000884200E000E001D1012000E0002000B394
:103D00002046FDF779FAA068802801D10020606084
:103D10002079216E0860D4E919104860606860B1AC
:103D20006068082809D82046FDF7C8FA0020E16E2F
:103D30000860D4E91C10486003E00020E0662067BA
:103D4000606700206065012084F8350000207BE575
:103D500010040240085402582DE9F04104460D4673
:103D600016461F464FF0000814B90120BDE8F08147
:103D700000BF94F83400012801D10220F6E70120A9
:103D800084F8340000BF94F8350001287ED1022069
:103D900084F8350000206065E4492068884249D0F5
:103DA000E24918312068884244D0E0493031206827
:103DB00088423FD0DD494831206888423AD0DB490B
:103DC00060312068884235D0D849783120688842EF
:103DD00030D0D6499031206888422BD0D349A831C1
:103DE0002068884226D0D2492068884222D0D04913
:103DF0001831206888421DD0CD4930312068884272
:103E000018D0CB4948312068884213D0C849603166
:103E1000206888420ED0C64978312068884209D08F
:103E2000C34990312068884204D0C149A831206834
:103E3000884206D12068006820F0010021680860EF
:103E400005E02068006820F00100216808603B461A
:103E5000324629462046FDF7D5FAB4492068884203
:103E60004BD0B24918312068884246D0AF49303132
:103E70002068884241D0AD494831206888423CD012
:103E8000AA4960312068884237D000E042E1A74962
:103E900078312068884230D0A44990312068884227
:103EA0002BD0A249A8312068884226D0A04920689A
:103EB000884222D09E491831206888421DD09C49F2
:103EC00030312068884218D09949483120688842AA
:103ED00013D097496031206888420ED094497831D8
:103EE0002068884209D0924990312068884204D0E5
:103EF0008F49A8312068884201D1012000E00020CC
:103F000080B12068006820F01E0040F01600216893
:103F10000860206CB0B12068006840F0080021689B
:103F200008600FE02068006820F00E0040F00A00F2
:103F300021680860206C28B12068006840F0040007
:103F40002168086079492068884270D07749183123
:103F5000206888426BD0754930312068884266D02D
:103F6000724948312068884261D0704960312068C8
:103F700088425CD06D4978312068884257D06B49BF
:103F800090312068884252D06849A8312068884220
:103F90004DD067492068884249D06549183120686A
:103FA000884244D062493031206888423FD060491D
:103FB0004831206888423AD05D49603120688842A3
:103FC00035D05B4978312068884230D058499031EB
:103FD000206888422BD05649A8312068884226D0D4
:103FE00054492068884222D05249143120688842BE
:103FF0001DD0504928312068884218D04D493C31A5
:104000002068884213D04B495031206888420ED036
:10401000484964312068884209D04649783120688F
:10402000884204D043498C312068884201D1012064
:1040300000E0002090B1206E006800F4803028B1CC
:10404000206E006840F48070216E0860E06E28B138
:10405000E06E006840F48070E16E086033492068CB
:10406000884249D0314918312068884244D02F49CC
:104070003031206888423FD02C494831206888423E
:104080003AD02A4960312068884235D027497831B2
:104090002068884230D025499031206888422BD052
:1040A0002249A8312068884226D0214920688842C8
:1040B00022D01F491831206888421DD01C49303158
:1040C0002068884218D01A4948312068884213D0A5
:1040D00017496031206888420ED015497831206830
:1040E000884209D0124990312068884204D0104992
:1040F000A8312068884206D12068006840F001009D
:104100002168086010E02068006840F00100216824
:10411000086009E000BF002084F8340000BF4FF4BD
:10412000006060654FF0010840461FE61000024045
:10413000100402400854025830B5034693F89840E2
:10414000012C01D0022C3ED11868806D084030B996
:104150001868C06D40F001001D68E8650EE0186841
:10416000806D0840884206D11868C06D40F002009A
:104170001D68E86502E003201D68E86501F4007031
:1041800030B11868D0F8E00010431D68C5F8E000B1
:1041900001F4806030B11868D0F8E40010431D6865
:1041A000C5F8E40000BF1868406D0B4D0D40284372
:1041B0001D6868650948006840EA9170074D2860ED
:1041C00000BF002030BDD3F89C0040F00200C3F8CF
:1041D0009C000120F6E70000FFFFCF3F14A800403D
:1041E0002DE9F04104460E461746706800B900E01C
:1041F00000BF94F89800022832D12068D0F8C0009F
:1042000000F07C5040B9D4F89C0040F02000C4F885
:104210009C000120BDE8F0812068D0F8C40000F4C3
:10422000001038B1D4F89C0040F40070C4F89C0031
:104230000120EFE72068D0F8C400C0F304452B4606
:104240003A4631462046FDF74DFB0120A840216843
:10425000C1F8D0000120A840C4F894000020D9E79C
:10426000D4F89C0040F00800C4F89C000120D1E77D
:104270007047F0B5024692F89860012E01D0022EE8
:1042800043D1C868072800D100BF086818BBC868B8
:10429000072800D000BFC86807280BD1088A4FF054
:1042A000605747EA0040CF6940EA07208F6940EA3B
:1042B00007040AE0087A80070F7B40EAC7600F8A8C
:1042C00040EA07404F6940EA0704D76E486807EBA9
:1042D00080031C6017E0C868072800D000BF0F7B70
:1042E000086940EA4774C868072801D18D6903E06E
:1042F0000F7A486940EA8775176F486807EBC00373
:104300001C601B1D1D600020F0BDD2F89C0040F019
:104310000200C2F89C000120F6E770B50446049D37
:1043200094F8980001280AD1080140EA820040EA86
:10433000430028432668C6F88000002070BDD4F8EA
:104340009C0040F00400C4F89C000120F6E710B582
:10435000034693F89800012816D1402909D118681E
:10436000D0F8A00020F0004010431C68C4F8A00062
:1043700008E01868D0F8B00020F0004010431C6836
:10438000C4F8B000002010BDD3F89C0040F0040039
:10439000C3F89C000120F6E7704770472DE9F04311
:1043A00004460D469C46002394F89880B8F1020F0D
:1043B00074D1402D38D12068D0F8A00000F4FE0060
:1043C00040B9D4F89C0040F02000C4F89C000120C3
:1043D000BDE8F0832068D0F8A40000F07F0038B971
:1043E000D4F89C0040F48070C4F89C000120EFE7F2
:1043F0002068D0F8A400C0F3006040B12068D0F875
:10440000A0004FF00049B9EBD07F00D10123206814
:10441000D0F8A400C0F305200344606C5843D4F8DE
:10442000749009EB80014BE0412D38D12068D0F821
:10443000B00000F4FE0038B9D4F89C0040F0200031
:10444000C4F89C000120C3E72068D0F8B40000F055
:104450007F0038B9D4F89C0040F48070C4F89C0008
:104460000120B5E72068D0F8B400C0F3006040B187
:104470002068D0F8B0004FF00049B9EBD07F00D1F0
:1044800001232068D0F8B400C0F305200344E06C99
:104490005843D4F8789009EB800111E06EE0206D6C
:1044A000A84207D8D4F89C0040F02000C4F89C0033
:1044B00001208DE7606D6843D4F87C9009EB8001A2
:1044C000086800F080405060506820B90868C0F368
:1044D0008A40106003E0086820F0604010600868BF
:1044E00000F000509060086800F000401061091D65
:1044F000088880B2D061086800F47020D060086835
:1045000000F480105061086800F4001090610868A1
:10451000C0F3066010620868C00F5062091D0F46A4
:10452000002603E0B85D0CF80600761CDFF85C900E
:10453000D06809EB10400078B042F3D8402D03D189
:104540002068C0F8A83017E0412D03D12068C0F8DA
:10455000B83011E0202D06D20120A840D4F80090F8
:10456000C9F8980008E005F01F09012000FA09F0D9
:10457000D4F80090C9F89C00002029E7D4F89C00EA
:1045800040F00800C4F89C00012021E780E000080A
:10459000704700002DE9F04F89B00446F5480068E7
:1045A0008507F448001D006805EA80752068006DE5
:1045B00000F470462068406D06402068006D00F0F1
:1045C0000F072068406D07402068006D00F0F0087C
:1045D0002068406D00EA08082068006D00F07159FD
:1045E0002068406D00EA09092068006D00F0607ADB
:1045F0002068406D00EA0A0A2068406D00F480706F
:1046000080B12068006D00F4807058B100BF4FF495
:104610008070216808650020D649086000BF2046E8
:10462000FFF7B6FF2068406D00F48060D8B12068C5
:10463000006D00F48060B0B12068D0F8DC00079015
:104640002068D0F8E40007990840079000BF4FF4B5
:104650008060216808650020C649086000BF2046C8
:10466000079900F0F2FB65B100BFC34828402168FC
:104670000865A80FBF49086000BF29462046FFF71C
:10468000F7FD66B100BFBC48304021680865B00F37
:10469000B849086000BF3146204600F0D8FB67B13A
:1046A00000BFB548384021680865B80FB1490860B7
:1046B00000BF3946204600F087FBB8F1000F0ED04E
:1046C00000BFAD4808EA0000216808654FEA98700D
:1046D000A849086000BF4146204600F095FB2068CD
:1046E000406D00F4006080B12068006D00F400604F
:1046F00058B100BF4FF400602168086500209D4953
:10470000086000BF204600F0A3FB2068406D00F465
:104710000070D8B12068006D00F40070B0B120685E
:10472000D0F8D80008902068D0F8E0000899084038
:10473000089000BF4FF400702168086500208D4983
:10474000086000BF2046089900F080FB2068406D9B
:1047500000F4002080B12068006D00F4002058B102
:1047600000BF4FF4002021680865002081490860DF
:1047700000BF204600F026FB2068406D00F480302A
:1047800080B12068006D00F4803058B100BF4FF454
:1047900080302168086500207649086000BF204607
:1047A00000F052FB2068406D00F4802080B120684A
:1047B000006D00F4802058B100BF4FF480202168C4
:1047C000086500206B49086000BF204600F03BFBF5
:1047D0002068406D00F4003098B12068006D00F44E
:1047E000003070B100BF4FF4003021680865002030
:1047F0006049086000BFD4F89C0040F08000C4F815
:104800009C00BAF1000F0ED000BF5B480AEA00001E
:10481000216808654FEA9A705649086000BF514602
:104820002046FFF7BAFDB9F1000F10D000BF524883
:1048300009EA0000216808654FEA99704D4908604F
:1048400000BFD4F89C0040EA0900C4F89C004B4922
:10485000206888427DD16068806800F003000028ED
:104860007ED06068006A00F00F0B6068406A00EA62
:104870000B0B6068006A00F0300006906068406AC8
:104880000699084006906068006A00F4C0700590C0
:104890006068406A0599084005906068006A00F405
:1048A000FC4004906068406A049908400490606885
:1048B000006A00F4F02003906068406A03990840A1
:1048C0000390BBF1000F06D06068C0F820B05946D5
:1048D000204600F0B5FA069830B106986168086283
:1048E0002046069900F0AEFA6068406A00F0400089
:1048F000A8B16068006A00F0400080B16068C06BD9
:10490000000C02906068C06B00F03F0001904020F6
:10491000616808622046DDE9012100F092FA0598FD
:1049200030B10598616808622046059900F087FA61
:10493000049840B1049861680862D4F89C00049916
:104940000843C4F89C00039818B103986168086292
:1049500000E005E0D4F89C0003990843C4F89C00EB
:10496000D4F89C0010B12046FFF716FD09B0BDE851
:10497000F08F000010A80040FFFFCF3F00A00040D4
:1049800070B594B004464C22B34901A8FBF733FD3F
:1049900014B9012014B070BDB0492068884203D119
:1049A000206800F580706060A068B0F5407F00D19D
:1049B00000BF206C00B100BFA06C00B100BF206D33
:1049C00000B100BF206E00B100BFD4E91710084449
:1049D00000B100BF94F8980028B9002084F899002D
:1049E000204600F03DF92068806920F01000216821
:1049F000886100F047FB05460EE000F043FB401BDA
:104A00000A2809D99834606840F0010060600320EA
:104A100004F898090120BDE72068806900F00800CB
:104A20000828EAD02068806940F001002168886188
:104A300000F028FB05460EE000F024FB401B0A288E
:104A400009D99834606840F001006060032004F8E0
:104A5000980901209EE72068806900F00100002885
:104A6000EAD02068806940F0020021688861207CDB
:104A7000012806D12068806920F040002168886103
:104A800005E02068806940F0400021688861607C12
:104A9000012806D12068806940F48040216888613F
:104AA00005E02068806920F4804021688861A07C4E
:104AB000012806D12068806920F48050216888612F
:104AC00005E02068806940F4805021688861206892
:104AD000806920F44070A1680843216888612068DB
:104AE000806920F0A400216888612068006920F0B6
:104AF000100021680861E068012806D120688069FB
:104B000040F004002168886120E0E068F0B1E068CE
:104B1000022815D02068806940F0800021688861F3
:104B20002068006940F0100021680861E0680328EF
:104B30000CD12068806940F020002168886105E080
:104B40002068806940F0200021688861207E401E36
:104B50004106E069401E41EA0020216A491E0843DF
:104B6000A18A491E40EA01402168C861A068B0F5E9
:104B7000407F0FD1A06A401EE16A491E40EA012130
:104B8000206B401E41EA0011A08C401E41EA00400B
:104B90002168C860206E38B12068D0F8C000616E0E
:104BA00008432168C1F8C000D4E91710084460B177
:104BB0002068D0F8C80020F0070001AAA16E52F8C2
:104BC000211008432168C1F8C800206C60B120683A
:104BD000D0F8BC0020F0070001AA616C52F8211047
:104BE00008432168C1F8BC00A06C68B12068D0F807
:104BF000BC0020F0700101AAE06C52F8200041EAEC
:104C000000102168C1F8BC00206D68B12068D0F8A0
:104C1000BC0020F4E06101AA606D52F8200041EA76
:104C200000202168C1F8BC000C492068884205D1E9
:104C30006068806820F0030061688860002044F8A4
:104C4000940FA06001202071943C2046FCF73AFDAF
:104C5000064630469EE6000090E0000800A00040B6
:104C600010B5B6B00446142131A8FBF7DDFBBC211A
:104C700002A8FBF7D9FB4D492068884248D14FF480
:104C80000040029040031D9002A800F07DFD08B195
:104C9000FCF704FD46480068401C4549086008468A
:104CA000006801280DD100BF4248006840F48070C0
:104CB000404908600846006800F48070019000BF19
:104CC00000BF00BF3B480C38006840F00100394984
:104CD0000C3908600846006800F00100019000BF30
:104CE00000BF4FF4C050319002203290002033902A
:104CF00034900920359031A92F4800F0ABF80022FC
:104D00000521132000F07CFA132000F065FA4AE038
:104D10002A492068884246D14FF40040029040035F
:104D20001D9002A800F030FD08B1FCF7B7FC204848
:104D30000068401C1E4908600846006801280DD123
:104D400000BF1C48006840F480701A49086008469B
:104D5000006800F48070019000BF00BF00BF1548DC
:104D60000C38006840F0020012490C39086008460F
:104D7000006800F00200019000BF00BF6020319089
:104D8000022032900020339034900920359031A9D0
:104D90000B4800F05FF800220521142000F030FAE3
:104DA000142000F019FA36B010BD000000A0004039
:104DB00018000024EC4402580000025800A40040EF
:104DC000000402587047000070B504460D460A48BA
:104DD000844206D10948006818B1074807490968A4
:104DE00088470748844206D10648006818B104483D
:104DF00004490968884770BDC4030024CC0000241E
:104E000064040024D00000247047014691F8980003
:104E100001280CD1022081F898000868806920F0F0
:104E200001000A6890610020C1F89C007047D1F829
:104E30009C0040F00400C1F89C000120F6E7704798
:104E400070477047704770477047704770477047AA
:104E500070470000F8B502460023734DDEE00127DD
:104E60009F400E6806EA0704002C71D04E68012EA0
:104E700008D04E68022E05D04E68112E02D04E6822
:104E8000122E13D190685F000326BE40B0435F002E
:104E9000CE68BE4030439060506801269E40B043CB
:104EA0000E79C6F300169E4030435060D0685F0014
:104EB0000326BE40B0435F008E68BE403043D060E2
:104EC0004E68022E02D04E68122E13D1DF0802F176
:104ED000200656F827005E07F70E0F26BE40B043A7
:104EE0005F07FF0E0E69BE403043DF0802F1200667
:104EF00046F8270010685F000326BE40B0430E79D5
:104F000006F003065F00BE40304310604E6806F0B6
:104F10008056B6F1805F1BD100BF444E366846F024
:104F20000206424F3E603E46366806F00206009694
:104F300000BF00BF3E4E9F0856F827009E07370F60
:104F40000F26BE40B0433B4EB24202D100262EE0B7
:104F500063E0394EB24201D1012628E0374EB24219
:104F600001D1022623E0364EB24201D103261EE0D3
:104F7000344EB24201D1042619E0334EB24201D17F
:104F8000052614E0314EB24201D106260FE0304E24
:104F9000B24201D107260AE02E4EB24201D10826C4
:104FA00005E02D4EB24201D1092600E00A269F07F6
:104FB0003F0FBE4030431E4E9F0846F8270028682A
:104FC000A0434E6806F48036B6F5803F00D12043FA
:104FD00028606868A0434E6806F40036B6F5003FC6
:104FE00000D1204368604FF0B0463068A0434E685F
:104FF00006F48016B6F5801F00D120434FF0B0466E
:1050000030607068A0434E6806F40016B6F5001FC5
:1050100000D120434FF0B04670605B1C0E68DE404C
:10502000002E7FF41CAFF8BD80000058F4440258F5
:1050300008040058000002580004025800080258F2
:10504000000C0258001002580014025800180258B0
:10505000001C02580020025800240258024613691E
:105060000B400BB1012000E0002070470AB18161C4
:1050700001E00B048361704701480068000C704731
:105080000010005C01480068704700001C0000240C
:1050900003480068034909780844014908607047DB
:1050A0001C0000242400002410B5032000F0E6F8C2
:1050B00001F02CFB10490968C1F303210F4A515C30
:1050C00001F01F0120FA01F40B48006800F00F0006
:1050D0001146085C00F01F0024FA00F0084908603F
:1050E000084804600F2000F00FF808B1012010BD3F
:1050F00000F05AF80020FAE71844025804E10008CA
:105100002C00002428000024F0B58BB00446102C9D
:105110000AD2002221461C2000F072F81C2000F068
:105120005BF81D48046002E001200BB0F0BD00BF39
:105130001A48006840F001001849086008460068F5
:1051400000F00100019000BF00BF02A903A801F018
:105150005DFA089E1EB901F0B5FA054602E001F0BD
:10516000B1FA45000E48B5FBF0F0471E4FF0804005
:105170000C49086040F2E7310A48C16047600021ED
:105180000161816002F066FA18B9064802F09AFAE5
:10519000CBE70120C9E7000020000024E8440258C2
:1051A00040420F00C80D002408B500BF0948006840
:1051B00040F00200074908600846006800F002005D
:1051C000009000BF00BF00220F21901E00F018F8D1
:1051D00008BD0000F44402580146084600280DDBD3
:1051E00000BF00BF00F01F0301229A4043099B004B
:1051F00003F1E023C3F8002100BF00BF00BF7047E8
:105200002DE9F05F80460D46164606F07DFB074609
:1052100039462A46334601F00700C0F1070ABAF1C1
:10522000040F02D94FF0040A01E0C0F1070AD14689
:1052300000F1040ABAF1070F02D24FF0000A01E0B0
:10524000A0F1030AD4464FF0010A0AFA09FAAAF1BA
:10525000010A0AEA020A0AFA0CFA4FF0010B0BFAE9
:105260000CFBABF1010B0BEA030B4AEA0B042146E2
:10527000404606F051FBBDE8F09F000000BF00F083
:105280000702064B19684FF6FF031940044B0B4306
:1052900043EA0221014B196000BF70470CED00E0AA
:1052A0000000FA0570B5044615480068C0F3800098
:1052B00048B91348006800F00700A04201D001205F
:1052C00070BD0020FCE70E48006820F00700204376
:1052D0000B490860FFF7D6FE054607E0FFF7D2FE50
:1052E000401BB0F57A7F01D90120E9E7044808386E
:1052F0000068C0F340300028F0D00020E0E7000054
:105300000C48025810B501F0B7F905490968C1F316
:105310000211044A515C01F01F01C84010BD000099
:105320002044025804E1000870B50146844D2D6800
:1053300005F00303824D2D68C5F30530804D2D1D0A
:105340002D68C5F300147E4D14352D68C5F3CC05CA
:1053500015FB04F501EE105AB8EE411AF0EE410AC1
:1053600000286FD023B1012B4ED0022B6BD16BE004
:10537000734D283D2D68C5F340153DB3704D283D54
:105380002D68C5F3C1066F4D25FA06F201EE102A0D
:10539000F8EE411A01EE100AB8EE411A81EE812AA8
:1053A0009FED691AC0EE811A654D10352D68C5F361
:1053B000080501EE105AB8EE411A31EE811AF7EEE7
:1053C000001A31EE211A22EE010A1CE001EE100A49
:1053D000B8EE411ADFED5D1A81EE812A9FED5A1A6F
:1053E000C0EE811A564D10352D68C5F3080501EE43
:1053F000105AB8EE411A31EE811AF7EE001A31EE6A
:10540000211A22EE010A5BE001EE100AB8EE411A01
:10541000DFED4F1A81EE812A9FED4B1AC0EE811A03
:10542000474D10352D68C5F3080501EE105AB8EE4A
:10543000411A31EE811AF7EE001A31EE211A22EEEE
:10544000010A3DE077E01DE001EE100AB8EE411AD6
:105450009FED402AC2EE011A9FED3B1A80EE812A91
:10546000374D10352D68C5F3080501EE105AB8EE1A
:10547000411A32EE011AB7EE002A31EE021A21EE7D
:10548000810A1DE001EE100AB8EE411ADFED301A74
:1054900081EE812A9FED2C1AC0EE811A284D10351D
:1054A0002D68C5F3080501EE105AB8EE411A31EE29
:1054B000811AF7EE001A31EE211A22EE010A00BF1E
:1054C00000BF1F4D10352D68C5F3462501EE105A5B
:1054D000B8EE411AF7EE001A31EE211AC0EE011AA9
:1054E000BCEEE11A81ED001A154D10352D68C5F39B
:1054F000064501EE105AB8EE411AF7EE001A31EEE9
:10550000211AC0EE011ABCEEE11A81ED011A0C4D10
:1055100010352D68C5F3066501EE105AB8EE411A34
:10552000F7EE001A31EE211AC0EE011ABCEEE11AB4
:1055300081ED021A03E000250D604D608D6070BDA5
:10554000284402580090D003000000460024744C08
:105550000024744A20BCBE4B70B50146844D2D68B2
:1055600005F00303824D2D68C5F30550804D2D1DB8
:105570002D68C5F300247E4D1C352D68C5F3CC0580
:1055800015FB04F501EE105AB8EE411AF0EE410A8F
:1055900000286FD023B1012B4ED0022B6BD16BE0D2
:1055A000734D283D2D68C5F340153DB3704D283D22
:1055B0002D68C5F3C1066F4D25FA06F201EE102ADB
:1055C000F8EE411A01EE100AB8EE411A81EE812A76
:1055D0009FED691AC0EE811A654D18352D68C5F327
:1055E000080501EE105AB8EE411A31EE811AF7EEB5
:1055F000001A31EE211A22EE010A1CE001EE100A17
:10560000B8EE411ADFED5D1A81EE812A9FED5A1A3C
:10561000C0EE811A564D18352D68C5F3080501EE08
:10562000105AB8EE411A31EE811AF7EE001A31EE37
:10563000211A22EE010A5BE001EE100AB8EE411ACF
:10564000DFED4F1A81EE812A9FED4B1AC0EE811AD1
:10565000474D18352D68C5F3080501EE105AB8EE10
:10566000411A31EE811AF7EE001A31EE211A22EEBC
:10567000010A3DE077E01DE001EE100AB8EE411AA4
:105680009FED402AC2EE011A9FED3B1A80EE812A5F
:10569000374D18352D68C5F3080501EE105AB8EEE0
:1056A000411A32EE011AB7EE002A31EE021A21EE4B
:1056B000810A1DE001EE100AB8EE411ADFED301A42
:1056C00081EE812A9FED2C1AC0EE811A284D1835E3
:1056D0002D68C5F3080501EE105AB8EE411A31EEF7
:1056E000811AF7EE001A31EE211A22EE010A00BFEC
:1056F00000BF1F4D18352D68C5F3462501EE105A21
:10570000B8EE411AF7EE001A31EE211AC0EE011A76
:10571000BCEEE11A81ED001A154D18352D68C5F360
:10572000064501EE105AB8EE411AF7EE001A31EEB6
:10573000211AC0EE011ABCEEE11A81ED011A0C4DDE
:1057400018352D68C5F3066501EE105AB8EE411AFA
:10575000F7EE001A31EE211AC0EE011ABCEEE11A82
:1057600081ED021A03E000250D604D608D6070BD73
:10577000284402580090D003000000460024744CD6
:105780000024744A20BCBE4B2DE9F041044600259C
:10579000A846206800F00060B0F1006F30D1606E64
:1057A00048B1B0F5801F0DD0B0F5001F10D0B0F596
:1057B000401F15D113E0F948006840F40030F74964
:1057C00008600FE00221201D03F03EFE054609E0BF
:1057D000022104F1240003F0E9FE054602E001E0A5
:1057E000012500BF00BF55B9EC482430006820F403
:1057F0004010616E0843E9492431086000E0A84682
:10580000208800F48070B0F5807F2DD1606D052870
:105810001AD2DFE800F0030A10171800DF4800680A
:1058200040F40030DD49086010E00021201D03F045
:105830000BFE05460AE0002104F1240003F0B6FE49
:10584000054603E002E001E0012500BF00BF55B9B5
:10585000D2482430006820F00700616D0843CF492A
:105860002431086000E0A846208800F40070B0F5FC
:10587000007F33D1A06D802817D003DC40B14028D1
:105880001CD10CE0C02817D0B0F5807F16D114E0F1
:10589000C248006840F40030C049086010E00021B0
:1058A000201D03F0D1FD05460AE0002104F124008B
:1058B00003F07CFE054603E002E001E0012500BFA5
:1058C00000BF55B9B5482430006820F4E070A16DE0
:1058D0000843B2492431086000E0A846208800F45B
:1058E0008060B0F5806F38D1D4F8A400B0F5800F97
:1058F00019D004DC50B1B0F5001F1DD10DE0B0F59A
:10590000C00F17D0B0F5000F16D114E0A3480068FF
:1059100040F40030A149086010E00021201D03F090
:1059200093FD05460AE0002104F1240003F03EFE49
:10593000054603E002E001E0012500BF00BF5DB9BC
:1059400096482C30006820F46000D4F8A410084376
:1059500092492C31086000E0A846208800F40060DD
:10596000B0F5006F38D1D4F8A800B0F1007F19D09D
:1059700004DC50B1B0F1807F1DD10DE0B0F1407F6B
:1059800017D0B0F1806F16D114E08448006840F45D
:1059900000308249086010E00021201D03F054FD12
:1059A00005460AE0002104F1240003F0FFFD05464E
:1059B00003E002E001E0012500BF00BF5DB97748C8
:1059C0002C30006820F0E060D4F8A8100843734938
:1059D0002C31086000E0A846206800F00070B0F1AB
:1059E000007F27D1A06CA0B1102804D0202809D0B6
:1059F00030280FD10CE06948006840F40030674956
:105A0000086009E00221201D03F01EFD054603E0A9
:105A100002E001E0012500BF00BF55B95F4820301A
:105A2000006820F03000A16C08435C492031086018
:105A300000E0A846208800F48050B0F5805F36D1A1
:105A4000E06DB0F5005F19D004DC50B1B0F5805FB7
:105A50001DD10DE0B0F5405F17D0B0F5804F16D1E5
:105A600014E04E48006840F400304C49086010E0F3
:105A70000021201D03F0E8FC05460AE0002104F1A6
:105A8000240003F093FD054603E002E001E0012558
:105A900000BF00BF55B941482430006820F4E04001
:105AA000E16D08433D492431086000E0A8462088A4
:105AB00000F40050B0F5005F34D1206EB0F5403FE7
:105AC0001DD007DC68B1B0F5803F0BD0B0F5003FCA
:105AD00018D10DE0B0F5802F12D0B0F5A02F11D164
