:020000040800F2
:10000000506A0024FD030008C78A0008F781000831
:100010007989000821070008F9AA000800000000FB
:100020000000000000000000000000003D03000888
:10003000E11500080000000099030008D1910008B4
:100040001704000817040008170400081704000824
:100050001704000817040008170400081704000814
:10006000170400081704000817040008F50F00081B
:1000700005100008151000082510000835100008AC
:100080001704000817040008170400080D160008DC
:100090001D160008170400081704000817040008BC
:1000A00017040008170400081704000817040008C4
:1000B000119400081704000817040008170400082A
:1000C00017040008170400081704000817040008A4
:1000D0001704000819A400082DA4000879A7000837
:1000E00017040008170400080000000017040008A7
:1000F0001704000817040008170400081704000874
:100100001704000817040008170400081704000863
:100110001704000817040008170400081704000853
:1001200017040008451000085510000817040008BF
:100130001704000817040008170400081704000833
:1001400000000000000000000000000000000000AF
:100150001704000865100008170400088DA70008A0
:100160001704000817040008170400081704000803
:1001700017040008170400081704000817040008F3
:1001800017040008170400081704000817040008E3
:1001900017040008170400081704000817040008D3
:1001A00017040008170400081704000817040008C3
:1001B00017040008170400081704000817040008B3
:1001C00017040008170400081704000817040008A3
:1001D0001704000817040008170400081704000893
:1001E0001704000817040008170400081704000883
:1001F0001704000817040008170400081704000873
:100200001704000817040008170400081704000862
:100210001704000817040008170400081704000852
:100220001704000817040008170400080000000065
:100230001704000817040008000000001704000855
:100240001704000817040008170400081704000822
:100250001704000817040008170400081704000812
:100260001704000817040008170400081704000802
:100270001704000817040008170400080000000015
:100280001704000817040008170400080000000005
:10029000000000001704000800F002F800F03EF82B
:1002A0000AA090E8000C82448344AAF10107DA45D1
:1002B00001D100F033F8AFF2090EBAE80F0013F0E5
:1002C000010F18BFFB1A43F0010318476CCB000065
:1002D0008CCB0000103A24BF78C878C1FAD85207F6
:1002E00024BF30C830C144BF04680C6070470000B0
:1002F0000023002400250026103A28BF78C1FBD82F
:10030000520728BF30C148BF0B6070471FB50CF0C3
:10031000A1FC00F0ADF91FBD10B510BD00F0BBF998
:100320001146FFF7F3FF0BF003FA00F0D9F903B41D
:10033000FFF7F2FF03BC0AF0BBFC00002C4B19686E
:100340000868B0E8F04F80F30988BFF36F8F4FF073
:10035000000080F311887047000000000848006822
:10036000006880F308884FF0000080F3148862B6BC
:1003700061B6BFF34F8FBFF36F8F00DF00BF00BFC9
:1003800008ED00E0DFF80C00016841F47001016045
:10039000704700BF88ED00E0EFF30980BFF36F8F77
:1003A000134B1A681EF0100F08BF20ED108A20E9C9
:1003B000F04F106009B44FF0500080F31188BFF384
:1003C0004F8FBFF36F8F0CF095F94FF0000080F363
:1003D000118809BC19680868B0E8F04F1EF0100FCA
:1003E00008BFB0EC108A80F30988BFF36F8F7047A5
:1003F00030000024EFF30580704700000948804773
:1004000009480047FEE7FEE7FEE7FEE7FEE7FEE7F6
:10041000FEE7FEE7FEE7FEE704480549054A064B0E
:1004200070470000F192000899020008506400240F
:10043000506A00245066002450660024704753EA36
:10044000020C00F069802DE9F04B4FF00006002B04
:100450001FBFB3FA83F503FA05F424FA05F65E40EC
:1004600012BF1643B2FA82F502FA05F4C5F120056F
:100470001EBF22FA05FC44EA0C04203556EA044C5F
:100480004FEA144418BF641C4FF000084FF00009F5
:10049000904271EB030C39D3002919BFB1FA81F7EF
:1004A00001FA07F6B0FA80F700FA07F6C7F120075D
:1004B0001EBF20FA07FC46EA0C062037B6FBF4FC08
:1004C000A7EB0507103F07F01F0BCBF120060CFA36
:1004D0000BFB2CFA06F644BFB3460026202FA4BF20
:1004E0005E464FF0000B5BEA060C08BF4FF0010BB5
:1004F00019EB0B09ABFB027C48EB0608C01B06FBA3
:1005000002CC0BFB03CC71EB0C01C1E70B4602469E
:1005100041464846BDE8F08B13B54FF000004FF060
:100520000001AFF30080BDE81C407047032A40F291
:10053000308010F0030C00F0158011F8013BBCF185
:10054000020F624498BF11F801CB00F8013B38BF9D
:1005500011F8013BA2F1040298BF00F801CB38BFAB
:1005600000F8013B11F0030300F02580083AC0F0C9
:10057000088051F8043B083A51F804CBA0E8081071
:10058000F5E7121D5CBF51F8043B40F8043BAFF3A4
:100590000080D20724BF11F8013B11F801CB48BFFE
:1005A00011F8012B24BF00F8013B00F801CB48BF34
:1005B00000F8012B704710B5203AC0F00B80B1E86D
:1005C0001850203AA0E81850B1E81850A0E8185088
:1005D000BFF4F5AF5FEA027C24BFB1E81850A0E891
:1005E000185044BF18C918C0BDE810405FEA827CAB
:1005F00024BF51F8043B40F8043B08BF7047D207C2
:1006000028BF31F8023B48BF11F8012B28BF20F862
:10061000023B48BF00F8012B70474FF0000200B5C5
:10062000134694469646203922BFA0E80C50A0E815
:100630000C50B1F12001BFF4F7AF090728BFA0E8C3
:100640000C5048BF0CC05DF804EB890028BF40F88F
:10065000042B08BF704748BF20F8022B11F0804FD1
:1006600018BF00F8012B70477047704770470000B3
:1006700070B5064C7C44064D7D4403E02068204460
:100680008047241DAC42F9D170BD0000E0C70000D6
:10069000E0C700007047754600F02CF8AE46050034
:1006A0006946534620F00700854618B020B5FFF78D
:1006B000B3FEBDE820404FF000064FF000074FF0BA
:1006C00000084FF0000B21F00701AC46ACE8C00970
:1006D000ACE8C009ACE8C009ACE8C0098D46704779
:1006E00010B50446AFF300802046BDE81040FFF788
:1006F0001EBE000000487047F063002401EBD17378
:100700005B105B42834202DD4A1E024410B201EBE1
:10071000D173B0EB630F02DD4A1E821A10B270472C
:1007200000BFFEE72DE9FC4107460C4615461E4674
:1007300040F2FF10154908600020486088604FF4BF
:100740000020C8600020086148618861C8610862B3
:10075000380A8DF80000F8B28DF80100200A8DF8F3
:100760000200E0B28DF80300280A8DF80400E8B218
:100770008DF80500300A8DF80600F0B28DF80700FC
:100780006A46034803F098FCBDE8FC81045A002443
:10079000FC03002410B58CB004466B4602AA40212D
:1007A000504803F067FD00287CD1002201214D480C
:1007B00003F02EFC0298A0F2012030B1042859D099
:1007C000052872D006286FD11DE09DF801009DF824
:1007D000001000EB0120444908809DF803009DF8BB
:1007E000021000EB012000B23F4948809DF805004F
:1007F0009DF8041040EA012000B23B4988809DF832
:10080000060088716AE09DF803009DF8021040EA36
:10081000012000B2354948809DF801009DF8001084
:1008200040EA0120314908804FF400521C212F4832
:1008300008F0F8F82D4989694FF4B47201FB02F011
:10084000C11700EBD141491300EE101AB8EEC01BDE
:10085000B7EE082B81EE020BB3EE031B80EE012BEB
:100860009FED230B32EE400BBDEEC00B1F4981ED17
:10087000050A33E09DF801009DF8001040EA0120D0
:100880001D4908804FF4005203211B4808F0CAF8A4
:100890009DF803009DF8021040EA012000B21649BD
:1008A00048801BE01BE000E017E09DF801009DF888
:1008B000001040EA0120114908804FF40052032142
:1008C0000E4808F0AFF89DF803009DF8021040EACA
:1008D000012000B20949488000E000BF00BF0CB011
:1008E00010BD0000FC030024005B0024A85B002472
:1008F0000000000000804740705B00248C5B0024F7
:1009000000B589B0002001900290022003900120E0
:10091000049000200590069001A9154803F015FCED
:100920004FF08040019000200290022003900120AF
:10093000049000200590069001A90D4803F005FCE5
:1009400000200346022211460090094803F051FCA2
:1009500000220121064803F05BFB4FF000424021DA
:10096000034803F060FC024804F0AFF909B000BD91
:10097000FC0300241CB504464FF48060164908604F
:100980000020486088604FF40020C86000200861A3
:1009900048618861C8610862A088000A8DF800007B
:1009A00020798DF80100E088000A8DF80200A07916
:1009B0008DF803002089000A8DF80400207A8DF854
:1009C0000500A07A8DF80600E07A8DF807006A46E7
:1009D000024803F071FB1CBDE05900249C04002474
:1009E00010B58CB004466B4602AA40212F4803F094
:1009F00041FC002858D1002201212C4803F008FBBB
:100A00000298B0F5027F03D0B0F5806F4AD126E09E
:100A10009DF801009DF8001000EB0120244908809A
:100A20004FF400525F21224807F0FCFF20498969FA
:100A30004FF4B47201FB02F0C11700EBD14149132E
:100A40005F2291FBF2F11A4A11619DF803009DF8B3
:100A5000021000EB012000B21146488023E09DF80F
:100A600001009DF8001040EA012000B21149888081
:100A70009DF803009DF8021040EA012000B20D49E4
:100A8000C8809DF805009DF8041040EA012000B2DE
:100A9000084908819DF8060088729DF807100548EE
:100AA000C17200E000BF00BF0CB010BD9C04002468
:100AB000C45B0024085C002400B589B000200190CC
:100AC00002900220039001200490002005900690DF
:100AD00001A9154803F039FB4FF080400190002038
:100AE00002900220039001200490002005900690BF
:100AF00001A90D4803F029FB0020034602221146FC
:100B00000090094803F075FB00220121064803F01C
:100B10007FFA4FF000424021034803F084FB024873
:100B200004F0D3F809B000BD9C0400241CB50446B1
:100B300040F2FF10124908600020486088604FF4BE
:100B40000020C8600020086148618861C8610862AF
:100B50008DF800008DF801008DF802008DF803007B
:100B60008DF804008DF80500200A8DF80600E0B22B
:100B70008DF807006A46034803F09EFA1CBD00008A
:100B8000045A00249C0400249FED020A024981EDCE
:100B9000000A704700007AC5CC00002470470000AE
:100BA0002DE9FC4107460C4615461E464FF40070E1
:100BB000154908600020486088604FF40020C86034
:100BC0000020086148618861C8610862380A8DF8B0
:100BD0000000F8B28DF80100200A8DF80200E0B2A2
:100BE0008DF80300280A8DF80400E8B28DF805009E
:100BF000300A8DF80600F0B28DF807006A46034807
:100C000003F05AFABDE8FC81E0590024FC030024FB
:100C100010B504462068B0F9000000EE100AB8EEE6
:100C2000C00A064880ED000A00F0FCFF0449087085
:100C300001F008F80349087010BD0000C40000244A
:100C4000DB000024DC0000240022828440210A52C0
:100C5000A0F85C20A0F878209FED050A054981EDF9
:100C6000000A054981ED000A044981ED000A704738
:100C700000000000CC000024C8000024C4000024B0
:100C800005200BF0A9FC0D480AF070FA15E00B489E
:100C90000AF014FA00220421094804F047F9074C2D
:100CA000B4F97830B4F95C20B4F94010B4F92400F8
:100CB000FFF776FF02200BF08FFCE8E7844B00245F
:100CC0000010025810B504469FED160A164880ED34
:100CD000A00A9FED140A80EDA10A9FED120A80ED93
:100CE000060A9FED100A80ED0D0A9FED0E0A80EDB9
:100CF000140A9FED0C0A80ED1B0A00218184A0F8E4
:100D00004010A0F85C10A0F878100020064981F887
:100D10005C0234B100231A4619461846FFF740FF1B
:100D200000BF10BD00000000844B00247CB50446C9
:100D30000D46164620887B490988401A00B2ADF856
:100D40000000288877494988401A00B2ADF80200AF
:100D5000308874498988401A00B2ADF8040072489E
:100D600090F85C02092867D1BDF9000000EE900AF6
:100D7000F8EEE00AB0EE600A0AF0EEFBF1EE060AC9
:100D8000B4EEE00AF1EE10FA22DDBDF9000000EE4B
:100D9000900AF8EEE00AB0EE600A0AF0DDFBBDF959
:100DA000000000EE900AB8EEE01AC1EE000A5D48BD
:100DB000B0F9000000EE100AB8EEC00AB1EE061A53
:100DC00000EE810ABDEEC00A10EE100A00B22080CB
:100DD000BDF9020000EE900AF8EEE00AB0EE600AFB
:100DE0000AF0BAFBF0EE0C0AB4EEE00AF1EE10FAEB
:100DF00022DDBDF9020000EE900AF8EEE00AB0EE46
:100E0000600A0AF0A9FBBDF9020000EE900AB8EEF4
:100E1000E01AC1EE000A4348B0F9020000EE100AE1
:100E2000B8EEC00AB0EE0C1A00EE810ABDEEC00AA0
:100E300010EE100A00B228803B4890F85C020828A7
:100E400067D1BDF9000000EE900AF8EEE00AB0EEBE
:100E5000600A0AF081FBF1EE060AB4EEE00AF1EE58
:100E600010FA22DDBDF9000000EE900AF8EEE00A6B
:100E7000B0EE600A0AF070FBBDF9000000EE900AC7
:100E8000B8EEE01AC1EE000A2648B0F9000000EE04
:100E9000100AB8EEC00AB1EE061A00EE810ABDEEE5
:100EA000C00A10EE100A00B22080BDF9020000EE68
:100EB000900AF8EEE00AB0EE600A0AF04DFBF0EEA0
:100EC0000C0AB4EEE00AF1EE10FA22DDBDF90200E0
:100ED00000EE900AF8EEE00AB0EE600A0AF03CFB81
:100EE000BDF9020000EE900AB8EEE01AC1EE000A69
:100EF0000C48B0F9020000EE100AB8EEC00AB0EEDD
:100F00000C1A00EE810ABDEEC00A10EE100A00B203
:100F10002880208803490880288848803088888075
:100F20007CBD0000AE000024844B002410B50446B4
:100F300094F85C02022802D194F85C0278B1084867
:100F4000006828B92068FFF715FD012004490860F2
:100F500003480068012802D100200149086010BD43
:100F6000A800002410B501FB02F303EBD374B0EB2F
:100F7000640F01DD01FB120001FB02F4634203EB8D
:100F8000D374B0EB640F02DA01FB02F3181A10BD40
:100F900010B500244FF48051154803F0BFFF01281D
:100FA00002D144F0010400E000BF4FF400511048AA
:100FB00003F0B4FF012802D144F0020400E000BFB6
:100FC0004FF480410A4803F0A9FF012802D144F000
:100FD000040400E000BF4FF40041054803F09EFF09
:100FE000012802D144F0080400E000BF204610BDF3
:100FF0000010025810B5024801F00EFE10BD0000AE
:10100000200A002410B5024801F006FE10BD0000C1
:10101000880B002410B5024801F0FEFD10BD000051
:10102000980A002410B5024801F0F6FD10BD00003A
:10103000000C002410B5024801F0EEFD10BD0000C8
:10104000100B002410B5024801F0E6FD10BD0000B1
:10105000780C002410B5024801F0DEFD10BD000040
:10106000A809002410B5024801F0D6FD10BD00000B
:10107000F00C00240146374A0868904249D0354AAE
:1010800018320868904244D0324A303208689042A0
:101090003FD0304A4832086890423AD02D4A6032F8
:1010A0000868904235D02B4A78320868904230D098
:1010B000284A9032086890422BD0264AA832086805
:1010C000904226D0244A0868904222D0224A183200
:1010D000086890421DD0204A30320868904218D0EB
:1010E0001D4A48320868904213D01B4A6032086893
:1010F00090420ED0184A78320868904209D0164AB9
:1011000090320868904204D0134AA832086890428E
:1011100001D1012000E00020B0B10A78103A182374
:10112000B2FBF3F000F007020C4B9A5CCA6503288F
:1011300005D90A686FF30902121D8A6503E00A687F
:101140006FF309028A6503E0086820F0FF008865F4
:10115000886D7047100002401004024008CD00085E
:1011600010B502682B4C0368A34222D0294C1434DA
:101170000368A3421DD0274C28340368A34218D02B
:10118000244C3C340368A34213D0224C50340368EF
:10119000A3420ED01F4C64340368A34209D01D4CF7
:1011A00078340368A34204D01A4C8C340368A342F9
:1011B00001D1012300E000238BB10378083B142404
:1011C000B3FBF4F1144B03EB81030366124B803342
:1011D000436601F01F040123A340836618E00378EF
:1011E000103B1824B3FBF4F10C4B9A4204D80B4B80
:1011F000A83B9A4200D30831094B03EB81030366F5
:10120000074B8033436601F01F040123A34083662C
:1012100010BD00000854025800580258B80402409B
:10122000000802400179A9B3082940D8204B026880
:101230009A4222D01E4B143302689A421DD01C4B96
:10124000283302689A4218D0194B3C3302689A42FC
:1012500013D0174B503302689A420ED0144B6433AC
:1012600002689A4209D0124B783302689A4204D03D
:101270000F4B8C3302689A4201D1012200E0002218
:101280004AB14A1E0B4B03EB8202C266094A403246
:10129000026708E00BE04A1E074B03EB8202C266BE
:1012A000054A403202674A1E012393404367704754
:1012B0000854025800590258000902400146002013
:1012C0008A69D2B98A6A32B1012A0DD0022A03D0C2
:1012D000032A10D10EE000BFCA6A02F08072B2F198
:1012E000807F00D1012007E0CA6AB2F1C07F00D13F
:1012F000012001E000E000BF36E08A69B2F5005F3E
:101300001BD18A6A32B1012A07D0022A03D0032AEC
:1013100011D10AE000BF01200EE0CA6A02F080721B
:10132000B2F1807F00D1012006E0CA6AB2F1C07F2D
:1013300000D1012000E000BF16E08A6A32B1012A24
:1013400005D0022A04D0032A0CD103E000BF00BF5D
:10135000012008E0CA6A02F08072B2F1807F00D1F9
:10136000012000E000BF00BF70470000F0B5856DB0
:10137000846D984F0668BE4270D0964F1837066845
:10138000BE426BD0934F30370668BE4266D0914F55
:1013900048370668BE4261D08E4F60370668BE424D
:1013A0005CD08C4F78370668BE4257D0894F903753
:1013B0000668BE4252D0874FA8370668BE424DD05D
:1013C000854F0668BE4249D0834F18370668BE4233
:1013D00044D0814F30370668BE423FD07E4F4837F9
:1013E0000668BE423AD07C4F60370668BE4235D0B0
:1013F000794F78370668BE4230D0774F903706680D
:10140000BE422BD0744FA8370668BE4226D0734F19
:101410000668BE4222D0714F14370668BE421DD006
:101420006E4F28370668BE4218D06C4F3C370668AE
:10143000BE4213D0694F50370668BE420ED0674F88
:1014400064370668BE4209D0644F78370668BE42EA
:1014500004D0624F8C370668BE4201D1012600E0FD
:1014600000263EB1D0E919767E60C66E16B1D0E98D
:101470001C767E60574F0668BE4249D0554F1837DC
:101480000668BE4244D0534F30370668BE423FD054
:10149000504F48370668BE423AD04E4F6037066814
:1014A000BE4235D04B4F78370668BE4230D0494FE8
:1014B00090370668BE422BD0464FA8370668BE421A
:1014C00026D0454F0668BE4222D0434F18370668E3
:1014D000BE421DD0404F30370668BE4218D03E4F46
:1014E00048370668BE4213D03B4F60370668BE429D
:1014F0000ED0394F78370668BE4209D0364F903744
:101500000668BE4204D0344FA8370668BE4201D1F7
:10151000012600E00026DEB190F85C6006F01F07AF
:101520003F26BE40AE600668366826F4802607680F
:101530003E60066873608668402E04D10668B2601B
:101540000668F16044E00668B1600668F2603FE05A
:10155000224F0668BE4222D0204F14370668BE4292
:101560001DD01E4F28370668BE4218D01B4F3C378F
:101570000668BE4213D0194F50370668BE420ED0DF
:10158000164F64370668BE4209D0144F7837066894
:10159000BE4204D0114F8C370668BE4201D10126ED
:1015A00000E00026A6B190F85C6006F01F07012657
:1015B000BE406660066873608668402E04D1066887
:1015C000B2600668F16003E00668B1600668F26028
:1015D000F0BD000010000240100402400854025800
:1015E0007047000005200AF0F7FF08E00A210020FC
:1015F00007F0C6FC0249086002200AF0EDFFF5E79B
:10160000A400002472B600BFFEE7000010B5024837
:1016100002F02CFF10BD0000FC03002410B50248AE
:1016200002F024FF10BD00009C04002410B5014608
:101630004A6B0868D0F884004FF6FC74A04340EA77
:1016400082000C68C4F884000868D0F8840020F494
:101650007F04088F44EA00400C68C4F88400886B5B
:1016600002440868D0F888004FF6FC74A04340EAB2
:1016700082000C68C4F888000868D0F8880020F45C
:10168000FE04888F44EA00400C68C4F88800C86BE8
:1016900002EB40020868D0F8A0004FF6FC74A043AB
:1016A00040EA82000C68C4F8A0000868D0F8A000E6
:1016B00020F4FE044020405A44EA00400C68C4F87C
:1016C000A000D1E9104004FB00220868D0F8B00067
:1016D0004FF6FC74A04340EA82000C68C4F8B000E6
:1016E0000868D0F8B00020F4FE04B1F8480044EADD
:1016F00000400C68C4F8B000D1E9124004FB00229D
:101700000868D0F8AC004FF6FC74A04340EA8200B1
:101710000C68C4F8AC00D1E9144004FB002208684E
:10172000D0F8F0004FF6FC74A04340EA82000C6849
:10173000C4F8F0000868D0F8F00020F47C14B1F888
:10174000580044EA00400C68C4F8F000886D02EBD1
:1017500040020868D0F8C0004FF6FC74A04340EA8D
:1017600082000C68C4F8C0000868D0F8C00020F4FB
:101770007C14B1F85C0044EA00400C68C4F8C00076
:101780000868D0F8C00020F07C5491F8600044EA6A
:1017900000600C68C4F8C0002A4C486B04EB800061
:1017A000C866CC6E886B04EB80040C670C6FC86B4A
:1017B00004EBC0044C67D1E9100460434C6F04EBA8
:1017C00080048C67D1E9120460438C6F04EB8004C1
:1017D000CC67D1E914046043CC6F04EB8004802013
:1017E00044504458886D04EBC004842044508C6EEF
:1017F000C86D60438424645804EB800488204450FE
:101800008C6E086E60438824645804EB800490203A
:10181000445040580C4CA04209D99831486840F0D7
:1018200020004860032001F89809012010BDCB6E0C
:1018300002E0002018601B1D902040589842F8D804
:101840000020F3E700AC0040FCD300402DE9F0415C
:10185000054614461E46D1F804C0BCF1000F0AD15B
:10186000D1F810C0D1F808804CEA080CB1F800801B
:101870004CEA88430BE0D1F810C04CF0804CD1F812
:1018800008804CEA080CD1F800804CEA080391F873
:101890002080D1F81CC04CEA086CD1F818804CEAC2
:1018A000080CD1F814804CEA080CD1F80C804CEAF2
:1018B0000807D5F868C00CFB06FCD5F8848008EB57
:1018C0008C021360121D1760121D002019E000F138
:1018D000030C14F80CC04FEA0C6800F1020C14F869
:1018E0000CC048EA0C4800F1010C14F80CC048EA9E
:1018F0000C2C14F800804CEA080CC2F800C0121D31
:10190000001DDFF81880D1F80CC008EB1C4C9CF8C7
:1019100000C08445DBD8BDE8F081000010CD000890
:1019200010B50AF01FFC07F08BFB684981F8CE0068
:1019300007F06EFB654981F8CD00084690F8CE00AF
:1019400020B940F2A3400AF015FC17E05F4890F878
:10195000CE00012804D140F2CE400AF00BFC0DE08D
:101960005A4890F8CE00022804D14FF47A700AF059
:1019700001FC03E04FF47A700AF0FCFB534890F846
:10198000CD0002281CD151480068B0F9022042F273
:101990001C5300214D480C3007F06CFB4B49A1F85B
:1019A000D00008464068B0F9022042F21C530021E2
:1019B00046480C3007F05EFB4449A1F8D20083E0B2
:1019C000424890F8CD00E0BB0AF08EFC3F4800682A
:1019D000B0F902203D48D0ED370A3D48B0F900008B
:1019E00000EE100AB8EEC00A20EE800ABDEEC00A72
:1019F00010EE100A01B242F21C5334480C3007F0CA
:101A000039FB3249A1F8D00008464068B0F90220FD
:101A10000846D0ED370A2F48B0F9000000EE100A52
:101A2000B8EEC00A20EE800ABDEEC00A10EE100A21
:101A300001B242F21C5325480C3007F01BFB23492E
:101A400000E002E0A1F8D2003EE0204890F8CD008E
:101A500003281DD11D480068B0F9022042F21C5332
:101A600040F6E44119480C3007F004FB1749A1F88F
:101A7000D00008464068B0F9022042F21C531649D3
:101A800012480C3007F0F6FA1049A1F8D2001BE01A
:101A90000E480068B0F9022042F21C5300210B48A6
:101AA0000C3007F0E7FA0949A1F8D0000846406871
:101AB000B0F9022042F21C53002104480C3007F018
:101AC000D9FA0249A1F8D20010BD0000A44A0024AE
:101AD000A0000024A20000241CF3FFFF05200AF050
:101AE0007BFD00F023F81BE0002210210D4803F0DD
:101AF0001DFA07F0B9FA022805D007F0B5FA10B1BF
:101B0000FFF70EFF09E04FF47A700AF033FB002074
:101B10000549A1F8D000A1F8D20002200AF05CFD2E
:101B2000E2E7000000100258A44A002410B500F0BB
:101B300071F81A49086000F071F8184948600220ED
:101B400081F8CD0081F8CE009FED152ADFED141A43
:101B50009FED131ADFED120AB2EE080A01F10C0034
:101B600009F08AFE9FED0E2ADFED0D1A9FED0D1A8A
:101B7000DFED0C0A9FED0C0A08486C3009F07CFE82
:101B800000200649A1F8D000A1F8D20081F8D400C5
:101B90004FF47A700AF0EEFA10BD0000A44A002457
:101BA00000000000CDCCCC3D0000484205200AF0EA
:101BB00013FD134800F01EFB21E01248008808B90D
:101BC00009F016FD002208210F4803F0AFF90C4878
:101BD00009F004FD0A4BB3F9C229DB68B3F9D2104E
:101BE000074BDB68B3F9D0000023FEF79BFD0449E7
:101BF000B1F9560BFEF79AFF02200AF0EDFCDCE784
:101C0000144E0024B400002400100258004870470D
:101C1000D05A002400487047705B00240048704789
:101C20008C5B002410B58021044803F077F940B2A2
:101C3000034908700846007810BD000000000258F3
:101C4000DD00002410B54021044803F067F940B2DC
:101C5000034908700846007810BD000000000258D3
:101C6000DE00002400487047A85B0024004870474D
:101C7000C45B002410B50446207A01280FD16169A5
:101C800089694FF4B47201FB02F0C11700EB915166
:101C9000891200EE101AB8EEC00A84ED690A606875
:101CA00090ED000AF1EE000A20EE200A80ED0A0A0B
:101CB000606890ED010AF1EE000A20EE200A80ED46
:101CC0000B0A6068D0ED0A0AB0EE600A9FED0D1AAB
:101CD000DFED0D0A09F04AFC606880ED0A0A6068D1
:101CE000D0ED0B0AB0EE600ABAEE0E1AF2EE0E0A52
:101CF00009F03CFC606880ED0B0A204600F044F8D7
:101D000010BD00000000FAC30000614310B5044696
:101D1000606890ED000AB5EEC00AF1EE10FA0DD140
:101D2000606890ED010AB5EEC00AF1EE10FA05D137
:101D300013480088401C1249088003E00020104925
:101D4000088020720E480088B0F5C87F05DB4FF48C
:101D5000C8700B49088001202072207A012805D123
:101D6000204600F0C7F8022006490870207A28B9FA
:101D70002046FFF77FFF00200249087010BD0000D9
:101D8000F6000024F50000241CB5044642F6F821B4
:101D9000606890ED0B0ABDEEC00A10EE100A00B2AA
:101DA000CDE90001D4F8C409B0F90230002204F6EC
:101DB000882104F6E82006F054FEA4F8560B4FF4F0
:101DC000FA5194ED690AB1EE400A6068D0ED0A0A52
:101DD00030EE600ABDEEC00A10EE100A00B2CDE986
:101DE00000016069B0F9023094ED690AB1EE400A71
:101DF000BDEEC00A10EE100A02B204F1D80104F5DB
:101E00009C7009F0C5FCA4F8C2091CBD70B52DED8D
:101E1000028B82B004460D461646B7EE000AB0EEBD
:101E2000408AB4F9C20900EE900AF8EEE00AB0EE7A
:101E3000600A372104F5DC7007F056F9BDEEC00AE0
:101E400010EE100A01B2A4F8C219B4F9C20900EEEA
:101E5000900AF8EEE00AB0EE600A04F5D47009F0DA
:101E600041FBBDEEC00A10EE100A01B2A4F8C2197F
:101E70004FF4FA50CDE900606069B0F90230808A11
:101E800002B204F1180104F1780009F081FCA4F811
:101E9000C209D4F8C4090069281A00EE900AF8EEC5
:101EA000E00AB0EE600A9FED111ADFED110A09F0A9
:101EB0000FFCB0EE408A42F6F821BDEEC80A10EEE3
:101EC000100A00B2CDE90001D4F8C409B0F902301B
:101ED000002204F6C81104F6282006F0C2FDA4F87A
:101EE000560B02B0BDEC028B70BD00000000344305
:101EF000000034C310B504462A480068012808D100
:101F0000294890ED000ADFED290A30EE600A80EDE5
:101F1000000A2448006840B9234890ED000ADFED2C
:101F2000230A30EE200A80ED000A606940692D28FE
:101F300003DB01201E49086007E06069406910F179
:101F4000140F02DC00201A4908601948006840B9E3
:101F5000184890ED000ADFED150A30EE200A80EDFA
:101F6000000A13480068012808D1124890ED000AC1
:101F7000DFED0E0A30EE600A80ED000A0D4890EDAC
:101F8000000ABDEEC00A10EE100A02B2064890ED3B
:101F9000000ABDEEC00A10EE100A01B22046FFF79B
:101FA00035FF10BDFC00002404010024CDCC4C3EC4
:101FB000000100240801002410B504462068B0F98F
:101FC000040000EE100AB8EEC00ADFED3A0A20EE77
:101FD000200ADFED390A20EE200A384880ED000A99
:101FE0002068B0F9040000EE100AB8EEC00ADFED78
:101FF000310A60EE200A324890ED000A9FED2E1A59
:1020000000EE810A80ED000A9FED2E1ADFED2E0A08
:1020100090ED000A09F05CFB294880ED000A206879
:10202000B0F9060000EE100AB8EEC00ADFED210A92
:1020300060EE200A254890ED000A9FED251A00EE7B
:10204000810A80ED000ABBEE041ADFED220A90ED52
:10205000000A09F08BFA1D4880ED000A2068B0F9EB
:102060000800B0F5FA7F03DB00201B4908700CE084
:102070002068B0F9080010F5FA7F03DC0320164948
:10208000087002E0022014490870104890ED000A20
:10209000BDEEC00A10EE100A02B2094890ED000A27
:1020A000BDEEC00A10EE100A01B22046FFF7AEFEE8
:1020B00010BD0000C3642A3BCDCC4C3E0C01002473
:1020C000EC00002400003443000034C3F00000247E
:1020D000EC51B83D00003442F50000240022A0F885
:1020E000C229A0F8562B9FED080A416881ED0A0A23
:1020F0009FED050A416881ED0B0A0221034A117028
:10210000034A11707047000000000000F400002432
:10211000F500002470B504462068C07A401EC5B2A0
:102120002068807A401EC6B205EB45002D49084460
:10213000805D2074207C0B284BD2DFE800F03C4A05
:102140000A4A422E273506461E002046FFF7DEFDCE
:1021500040E0012D01D0012E03D12348008805283D
:1021600005DB2046FFF7BAFF06F03EFF04E01E48FD
:102170000088401C1C4908802CE02046FFF7C6FD63
:1021800002201A4908701A49087023E02046FFF718
:1021900013FF0020154908701CE02046FFF70CFFD4
:1021A00002201249087015E02046FFF705FF0120C4
:1021B0000E4908700EE006F017FF2046FFF78EFF6D
:1021C00008E02046FFF7F8FE04E02046FFF792FE05
:1021D00000E000BF00BF207C022802D0002002499E
:1021E000088070BDE0000024F8000024F400002402
:1021F000F500002410B5044609F0D8F92060FFF777
:1022000035FDC4F8C409FFF72DFD6061FFF7FEFC42
:10221000606009F0C7F9E06006F066FE9FED520AC3
:1022200004F5D47009F080F904F5DC7006F0A4FF21
:102230009FED4E2ADFED4E1A9FED4E1AF7EE080A7B
:102240009FED4D0A04F1180009F016FB9FED4B0AB3
:1022500084ED100A9FED4A0A84ED110AB2EE040AD9
:1022600084ED0D0AB7EE000A84ED0F0AB2EE000A03
:1022700084ED0E0A9FED3D2ADFED3C1AB1EE081AFF
:10228000DFED3A0AB2EE050A04F1780009F0F4FA3B
:102290009FED362ADFED361AB2EE021ADFED390A6B
:1022A0009FED390A04F1D80009F0E6FA9FED330AF0
:1022B00084ED400A9FED350A84ED410AB1EE0C0A27
:1022C00084ED3D0AB2EE040A84ED3F0AB3EE0E0A35
:1022D00084ED3E0A9FED252ADFED241A9FED231A97
:1022E000DFED220AB2EE040A04F59C7009F0C4FA8C
:1022F0009FED1E2ADFED1D1A9FED251ADFED1B0A4B
:102300009FED240A04F6C81009F0B6FA9FED172ACB
:10231000DFED161A9FED151ADFED140AB2EE020A70
:1023200004F6282009F0A8FA9FED102ADFED0F1A15
:10233000B2EE0E1ADFED0D0A9FED150A04F68820A5
:1023400009F09AFA9FED092ADFED081AB7EE001A94
:10235000DFED060AB2EE0E0A04F6E82009F08CFA68
:1023600009F074F910BD00000F0BB53D000000002E
:102370000000FA440000964200007042000034431E
:10238000000048C3CDCCCC3D0000104200007AC311
:102390000000C8420000024310B504462046FFF783
:1023A000B9FE10BD2DE9F041044602F0CBFD804698
:1023B00014B90120BDE8F08194F83500022808D056
:1023C0008020606500BF002084F8340000BF012039
:1023D000F0E7FE492068884249D0FC49183120685E
:1023E000884244D0F9493031206888423FD0F749CB
:1023F0004831206888423AD0F449603120688842E8
:1024000035D0F24978312068884230D0EF49903198
:10241000206888422BD0ED49A8312068884226D018
:10242000EB492068884222D0E94918312068884267
:102430001DD0E74930312068884218D0E44948313E
:102440002068884213D0E2496031206888420ED06B
:10245000DF4978312068884209D0DD499031206811
:10246000884204D0DA49A8312068884201D101208D
:1024700000E0002068B12068006820F01E0021689C
:1024800008602068406920F0800021684861256864
:1024900006E02068006820F00E00216808602568CA
:1024A000CA492068884270D0C849183120688842DB
:1024B0006BD0C64930312068884266D0C349483164
:1024C0002068884261D0C1496031206888425CD070
:1024D000BE4978312068884257D0BC499031206885
:1024E000884252D0B949A831206888424DD0B849B5
:1024F0002068884249D0B64918312068884244D0C3
:10250000B3493031206888423FD0B1494831206812
:1025100088423AD0AE4960312068884235D0AC4913
:1025200078312068884230D0A949903120688842AB
:102530002BD0A749A8312068884226D0A549206819
:10254000884222D0A3491431206888421DD0A14975
:1025500028312068884218D09E493C312068884242
:1025600013D09C495031206888420ED0994964317B
:102570002068884209D0974978312068884204D081
:1025800094498C312068884201D1012000E000206C
:1025900028B1206E006820F48070216E08608B499D
:1025A0002068884249D0894918312068884244D03F
:1025B00086493031206888423FD0844948312068BC
:1025C00088423AD0814960312068884235D07F49BD
:1025D00078312068884230D07C4990312068884228
:1025E0002BD07A49A8312068884226D078492068C3
:1025F000884222D076491831206888421DD074491B
:1026000030312068884218D07149483120688842AA
:1026100013D06F496031206888420ED06C49783100
:102620002068884209D06A4990312068884204D0E5
:102630006749A8312068884206D12068006820F0E8
:1026400001002168086005E02068006820F00100B2
:102650002168086011E002F075FCA0EB0800052875
:102660000BD92020606500BF002084F8340000BF33
:10267000032084F8350001209CE6286800F0010062
:102680000028E8D151492068884249D04F49183183
:102690002068884244D04D493031206888423FD07C
:1026A0004A494831206888423AD048496031206818
:1026B000884235D0454978312068884230D0434936
:1026C0009031206888422BD04049A8312068884248
:1026D00026D03F492068884222D03D4918312068E1
:1026E00088421DD03A4930312068884218D0384994
:1026F00048312068884213D03549603120688842CB
:102700000ED0334978312068884209D03049903161
:102710002068884204D02E49A8312068884201D11F
:10272000012000E0002040B1A66D94F85C0000F0AC
:102730001F013F208840B06007E0A76D94F85C005F
:1027400000F01F01012088407860204920688842FD
:1027500076D01E4918312068884271D01B4930312B
:10276000206888426CD0194948312068884267D077
:10277000164960312068884262D014497831206857
:1027800088425DD0114990312068884258D00F4965
:10279000A8312068884253D00D49206888424FD024
:1027A0000B491831206888424AD0094930312068E5
:1027B000884245D0064948312068884240D00449C3
:1027C0006031206888423BD0014905E0100002409A
:1027D00010040240085402587831206888422FD0F3
:1027E0002549206888422BD0234918312068884227
:1027F00026D022492068884222D0204914312068FE
:1028000088421DD01D4928312068884218D01B49B4
:102810003C312068884213D01849503120688842E2
:102820000ED0164964312068884209D013497831A6
:102830002068884204D011498C312068884201D137
:10284000012000E0002068B1D4E919104860E06E72
:1028500040B1E06E006820F48070E16E0860D4E959
:102860001C10486000BF002084F8340000BF012025
:1028700084F8350000209DE5A00402400854025869
:1028800070B504460CB9012070BD94F835000228DB
:1028900003D0802060650120F6E7DC49206888428B
:1028A00049D0DA4918312068884244D0D7493031BC
:1028B000206888423FD0D5494831206888423AD0C4
:1028C000D24960312068884235D0D04978312068BB
:1028D000884230D0CD499031206888422BD0CB49F6
:1028E000A8312068884226D0C9492068884222D071
:1028F000C7491831206888421DD0C5493031206849
:10290000884218D0C24948312068884213D0C04953
:102910006031206888420ED0BD49783120688842F5
:1029200009D0BB4990312068884204D0B849A83109
:102930002068884201D1012000E00020F0B304208B
:1029400084F83500B149206888424BD0AF4918312E
:102950002068884246D0AD4930312068884241D055
:10296000AA494831206888423CD0A8496031206893
:10297000884237D0A54978312068884232D0A349AF
:102980009031206888422DD0A049A8312068884223
:1029900028D09F492068884224D09D49183120685A
:1029A00088421FD09A493031206888421AD098490D
:1029B00048312068884215D0954900E020E0603118
:1029C000206888420ED0924978312068884209D028
:1029D0008F4990312068884204D08D49A831206801
:1029E000884206D12068006820F001002168086054
:1029F00009E12068006820F001002168086002E118
:102A00002068006820F00E00216808607F49206877
:102A1000884249D07D4918312068884244D07B499A
:102A20003031206888423FD0784948312068884258
:102A30003AD0764960312068884235D07349783180
:102A40002068884230D071499031206888422BD06C
:102A50006E49A8312068884226D06D492068884296
:102A600022D06B491831206888421DD06849303126
:102A70002068884218D0664948312068884213D0BF
:102A800063496031206888420ED0614978312068FE
:102A9000884209D05E4990312068884204D05C4960
:102AA000A8312068884206D12068006820F0010023
:102AB0002168086005E02068006820F001002168B6
:102AC000086052492068884270D050491831206807
:102AD00088426BD04D4930312068884266D04B49DE
:102AE00048312068884261D0484960312068884276
:102AF0005CD0464978312068884257D043499031AC
:102B00002068884252D04149A831206888424DD07F
:102B10003F492068884249D03D49183120688842A1
:102B200044D03B493031206888423FD03849483151
:102B3000206888423AD0364960312068884235D0D2
:102B4000334978312068884230D03149903120684B
:102B500088422BD02E49A8312068884226D02D49A2
:102B60002068884222D02B491431206888421DD029
:102B7000284928312068884218D026493C312068ED
:102B8000884213D023495031206888420ED0214911
:102B900064312068884209D01E4978312068884213
:102BA00004D01C498C312068884201D1012000E00A
:102BB0000020D8B1206E006820F48070216E08607B
:102BC000A56D94F85C0000F01F010120884068604A
:102BD000D4E919104860E06E40B1E06E006820F45E
:102BE0008070E16E0860D4E91C10486000BF0020CE
:102BF00084F8340000BF012084F83500206D10B146
:102C00002046216D884700203EE60000100002406B
:102C100010040240085402582DE9F84F04460020E1
:102C20000090FE4800684FF41651B0FBF1FAA66D13
:102C3000D4F858803768D8F80090F949206888425D
:102C400049D0F74918312068884244D0F4493031DE
:102C5000206888423FD0F2494831206888423AD003
:102C6000EF4960312068884235D0ED4978312068DD
:102C7000884230D0EA499031206888422BD0E84918
:102C8000A8312068884226D0E6492068884222D0B0
:102C9000E4491831206888421DD0E249303120686B
:102CA000884218D0DF4948312068884213D0DD4976
:102CB0006031206888420ED0DA4978312068884235
:102CC00009D0D84990312068884204D0D549A8312C
:102CD0002068884201D1012000E0002000287DD03A
:102CE00094F85C0000F01F0108208840384000285C
:102CF00068D0CB492068884249D0C949183120683A
:102D0000884244D0C6493031206888423FD0C44907
:102D10004831206888423AD0C149603120688842F1
:102D200035D0BF4978312068884230D0BC499031D5
:102D3000206888422BD0BA49A8312068884226D022
:102D4000B8492068884222D0B649183120688842A4
:102D50001DD0B44930312068884218D0B14948317B
:102D60002068884213D0AF496031206888420ED075
:102D7000AC4978312068884209D0AA49903120684E
:102D8000884204D0A749A8312068884204D120682D
:102D9000006800F0040003E02068006800F008000C
:102DA00080B12068006820F004002168086094F871
:102DB0005C0000F01F0108208840B060606D40F0AA
:102DC0000100606594F85C0000F01F01012088405C
:102DD0003840E8B392492068884200E0B8E24BD01E
:102DE0008F4918312068884246D08D49303120689B
:102DF000884241D08A494831206888423CD088497D
:102E000060312068884237D085497831206888420F
:102E100032D083499031206888422DD08049A83132
:102E20002068884228D07F492068884224D07D4984
:102E30001831206888421FD07A4930312068884292
:102E40001AD0784948312068884215D0754900E089
:102E500026E06031206888420ED0724978312068BF
:102E6000884209D06F4990312068884204D06D496A
:102E7000A8312068884204D12068406900F08000B1
:102E800002E020680068002050B194F85C0000F077
:102E90001F0101208840B060606D40F00200606555
:102EA00094F85C0000F01F01042088403840E8B32B
:102EB0005B49206888424BD05949183120688842C4
:102EC00046D0574930312068884241D05449483172
:102ED000206888423CD0524960312068884237D00F
:102EE0004F4978312068884232D04D49903120686E
:102EF00088422DD04A49A8312068884228D04949C3
:102F00002068884224D047491831206888421FD061
:102F100044493031206888421AD0424948312068FB
:102F2000884215D03F496031206800E024E08842A3
:102F30000ED03C4978312068884209D03949903117
:102F40002068884204D03749A8312068884204D1DB
:102F50002068006800F0020002E02068006800209D
:102F600050B194F85C0000F01F0104208840B0606C
:102F7000606D40F00400606594F85C0000F01F0193
:102F8000102088403840E8B325492068884251D055
:102F900023491831206888424CD0214930312068BB
:102FA000884247D01E4948312068884242D01C4997
:102FB0006031206888423DD01949783120688842C4
:102FC00038D0174990312068884233D01449A8314D
:102FD000206888422ED01349206888422AD011499F
:102FE00018312068884225D00E4930312068884247
:102FF00020D00C494831206888421BD009496031F3
:10300000206800E04DE0884214D0064978312068FD
:1030100088420FD003499031206805E02800002441
:103020001000024010040240884203D0FE4920688C
:10303000884204D12068006800F0080003E020689E
:10304000006800F0040060B394F85C0000F01F0119
:1030500010208840B0602068006800F4802080B1B3
:103060002068006800F4002028B9206CC8B1204610
:10307000216C884715E0A06C98B12046A16C884768
:103080000FE02068006800F4807028B920680068AC
:1030900020F0080021680860206C10B12046216CE7
:1030A000884794F85C0000F01F01202088403840D9
:1030B00000287DD0DD492068884249D0DB4918319D
:1030C0002068884244D0D9493031206888423FD0B6
:1030D000D6494831206888423AD0D44960312068C6
:1030E000884235D0D14978312068884230D0CF49E4
:1030F0009031206888422BD0CC49A8312068884282
:1031000026D0C949A8392068884221D0C6499039BB
:10311000206888421CD0C44978392068884217D07A
:10312000C14960392068884212D0BF4948392068B7
:1031300088420DD0BC4930392068884208D0BA494D
:1031400018392068884203D0B7492068884204D1E2
:103150002068006800F0100003E02068006800F0BC
:10316000020028B394F85C0000F01F012020884082
:10317000B06094F8350004282DD12068006820F054
:103180001600216808602068406920F080002168EE
:103190004861206C08B9A06C28B12068006820F054
:1031A00008002168086094F85C0000F01F0100E04E
:1031B0003FE03F208840B06000BF002084F834002A
:1031C00000BF012084F83500206D10B12046216D2C
:1031D0008847BDE8F88F2068006800F4802080B13F
:1031E0002068006800F4002028B9606C08B320460D
:1031F000616C88471DE0E06BD8B12046E16B8847E1
:1032000017E02068006800F4807068B920680068E2
:1032100020F010002168086000BF002084F834000E
:1032200000BF012084F83500E06B10B12046E16B4F
:103230008847606D00287DD0606D00F00100E8B324
:10324000042084F835007949206888424BD07749BA
:1032500018312068884246D074493031206888424D
:1032600041D072494831206888423CD06F49603172
:103270002068884237D06D4978312068884232D042
:103280006A499031206888422DD06849A831206869
:10329000884228D06449A8392068884223D06249EE
:1032A0009039206888421ED05F497839206888426A
:1032B00019D05D4960392068884200E041E012D0B1
:1032C00059494839206888420DD05749303920681B
:1032D000884208D0544918392068884203D052499E
:1032E0002068884206D12068006820F0010021682B
:1032F000086005E02068006820F00100216808608F
:1033000000BF0098401C0090504500D905E020689F
:10331000006800F001000028F3D100BF00BF0020CA
:1033200084F8340000BF2068006800F0010028B174
:10333000032000E00BE084F8350002E0012084F86F
:103340003500E06C002802D02046E16C8847D9E1C6
:1033500037492068884222D0354914312068884294
:103360001DD0334928312068884218D030493C317B
:103370002068884213D02E495031206888420ED0F0
:103380002B4964312068884209D029497831206866
:10339000884204D026498C312068884201D101201E
:1033A00000E000200028D2D02068056894F85C0076
:1033B00000F01F010420884000EA0900D0B305F0A6
:1033C0000400B8B394F85C0000F01F0104208840AA
:1033D000C8F8040005F4004080B105F4803030B92D
:1033E000A06C0028B3D02046A16C88478AE1206CED
:1033F0000028ACD02046216C884783E105F02000EE
:10340000F0BB0A492068884252D008491831206828
:1034100088424DD0054930312068884248D0034960
:1034200048312068884206E0B8040240100002409B
:10343000085402584FE03BD0B3492068884237D047
:10344000B14918312068884232D0AF493031206804
:1034500088422DD0AC4948312068884228D0AB49F9
:103460002068884224D0A9491831206888421FD09A
:10347000A6493031206888421AD0A449483100E07A
:1034800023E02068884213D0A04960312068884238
:103490000ED09E4978312068884209D09B499031EE
:1034A0002068884204D09949A8312068884206D112
:1034B0002068006820F008002168086005E02068A6
:1034C000006820F0040021680860206C10B32046DA
:1034D000216C884716E194F85C0000F01F0102207F
:1034E000884000EA0900E8B305F00200D0B394F880
:1034F0005C0000F01F0102208840C8F8040005F4B9
:10350000004070B105F4803028B9606C10B12046DD
:10351000616C8847F6E0E06BF0B32046E16B8847CA
:10352000F0E005F02000C0BB774960392068884290
:103530004DD0754948392068884248D072493039A1
:103540002068884243D070491839206888423ED0AC
:103550006D49206888423AD06B491831206888420A
:1035600035D000E04EE068493031206888422ED0E6
:10357000654948312068884229D0644920688842DA
:1035800025D0624918312068884220D05F49303107
:10359000206888421BD001E06EE02DE05B49483195
:1035A0002068884213D059496031206888420ED083
:1035B000564978312068884209D0544990312068B2
:1035C000884204D05149A8312068884206D1206839
:1035D000006820F014002168086005E02068006899
:1035E00020F00A002168086000BF002084F8340041
:1035F00000BF012084F83500E06BE8B32046E16BA2
:1036000088477FE094F85C0000F01F0108208840A4
:1036100000EA090080B305F0080068B33A49603950
:10362000206888424AD0384948392068884245D0C5
:10363000354930392068884240D0334918392068EC
:1036400088423BD030492068884237D02E49183113
:103650002068884232D02C493031206888422DD0F1
:10366000294948312068884228D028492068884262
:1036700024D02649183100E044E0206888421DD05B
:10368000224930312068884218D0204948312068CA
:10369000884213D01D496031206888420ED01B49F2
:1036A00078312068884209D01849903120688842D2
:1036B00004D01649A8312068884206D120680068E5
:1036C00020F01C002168086005E02068006820F0F8
:1036D0000E002168086094F85C0000F01F010120D2
:1036E0008840C8F804000120606500BF002084F80D
:1036F000340000BF012084F83500E06C10B1204692
:10370000E16C884700BF64E570000240100402408D
:103710002DE9F041044601F015FC804614B9012062
:10372000BDE8F081FE492068884249D0FC49183143
:103730002068884244D0FA493031206888423FD01E
:10374000F7494831206888423AD0F549603120680D
:10375000884235D0F24978312068884230D0F0492B
:103760009031206888422BD0ED49A83120688842EA
:1037700026D0EC492068884222D0EA4918312068D6
:1037800088421DD0E74930312068884218D0E54989
:1037900048312068884213D0E2496031206888426D
:1037A0000ED0E04978312068884209D0DD49903157
:1037B0002068884204D0DB49A8312068884201D1C2
:1037C000012000E00020002873D0606A00B100BF33
:1037D00000BF002084F8340000BF022084F83500C8
:1037E000CF492068884249D0CD49183120688842A5
:1037F00044D0CB493031206888423FD0C849483155
:10380000206888423AD0C64960312068884235D065
:10381000C34978312068884230D0C149903120684E
:1038200088422BD0BE49A8312068884226D0BD49A5
:103830002068884222D0BB491831206888421DD0B8
:10384000B84930312068884218D0B64948312068DC
:10385000884213D0B3496031206888420ED0B14904
:1038600078312068884209D0AE499031206888427A
:1038700004D0AC49A8312068884206D1206800688D
:1038800020F001002168086005E02068006820F051
:103890000100216808600DE001F054FBA0EB080076
:1038A000052807D920206065032084F83500012011
:1038B00036E76AE02068006800F001000028EBD1DC
:1038C0002068056898480540D4E902010843216949
:1038D000084361690843A1690843E1690843216A13
:1038E00008430543606A042803D1D4E90B01084367
:1038F00005438E4800686FF30F00B0F1005F1DD3E1
:103900006068292802D360682E2811D960683F2892
:1039100002D3606842280BD96068472802D36068E8
:10392000482805D960684F2804D36068522801D818
:10393000012000E0002008B145F4801520680560F2
:103940002068456925F00705606A0543606A042818
:103950000DD1A06A0543E06A48B12046FDF7AEFCF0
:1039600028B140206065012084F83500D8E6206841
:1039700045612046FDF77EFB064694F85C0000F0AA
:103980001F013F208840B0609EE06949206888425E
:1039900022D067491431206888421DD064492831FB
:1039A0002068884218D062493C312068884213D090
:1039B0005F495031206888420ED05D4964312068EB
:1039C000884209D05A4978312068884204D0584941
:1039D0008C312068884201D1012000E00020E0B352
:1039E00053492068884222D05149143120688842C6
:1039F0001DD04F4928312068884218D04C493C31AD
:103A00002068884213D04A495031206888420ED03D
:103A1000474964312068884209D045497831206897
:103A2000884204D042498C312068884201D101206B
:103A300000E0002000B100BF00BF002084F8340087
:103A400000BF022084F83500206805683948054029
:103A5000A068402802D1102106E02EE0A06880284E
:103A600001D1C10100E00021E06841EAD0012069F4
:103A700041EAD001606941EAD001A06941EAD00180
:103A8000E06941EAD001206A41EA1010054320684C
:103A9000056027492068401A1421B0FBF1F080002E
:103AA000E0652046FDF7E6FA074694F85C0000F072
:103AB0001F0101208840786006E0402060650320F7
:103AC00084F8350001202BE61549206888427FD014
:103AD00013491831206888427AD011493031206862
:103AE000884275D00E4948312068884270D00C4910
:103AF0006031206888426BD009497831206888425B
:103B000066D0074990312068884261D00449A831C5
:103B1000206888425CD003492068884258D00BE076
:103B200010000240100402403F8010FE0010005CB4
:103B3000085402580F00FEFF3B49183120688842A4
:103B400046D0394930312068884241D03649483121
:103B5000206888423CD0344960312068884237D0A0
:103B6000314978312068884232D02F49903120681D
:103B700088422DD02C49A8312068884228D02B4972
:103B80002068884224D029491431206888421FD0F7
:103B900026492831206888421AD024493C312068BF
:103BA000884215D0214950312068884210D01F49E1
:103BB0006431206888420BD01C49783120688842E3
:103BC00006D01A498C312068884200E000E001D11B
:103BD000012000E0002000B32046FDF7C1FAA068F4
:103BE000802801D1002060602079216E0860D4E92E
:103BF00019104860606860B16068082809D82046DC
:103C0000FDF710FB0020E16E0860D4E91C1048604D
:103C100003E00020E0662067606700206065012007
:103C200084F8350000207BE5100402400854025857
:103C30002DE9F04104460D4616461F464FF0000898
:103C400014B90120BDE8F08100BF94F834000128C8
:103C500001D10220F6E7012084F8340000BF94F877
:103C6000350001287ED1022084F8350000206065EF
:103C7000E4492068884249D0E249183120688842E6
:103C800044D0E0493031206888423FD0DD49483196
:103C9000206888423AD0DB4960312068884235D0BC
:103CA000D84978312068884230D0D6499031206890
:103CB00088422BD0D349A8312068884226D0D249E7
:103CC0002068884222D0D0491831206888421DD00F
:103CD000CD4930312068884218D0CB49483120681E
:103CE000884213D0C8496031206888420ED0C64946
:103CF00078312068884209D0C349903120688842D1
:103D000004D0C149A8312068884206D120680068E3
:103D100020F001002168086005E02068006820F0BC
:103D20000100216808603B46324629462046FDF7DF
:103D30001DFBB449206888424BD0B2491831206835
:103D4000884246D0AF4930312068884241D0AD49E1
:103D50004831206888423CD0AA49603120688842B6
:103D600037D000E042E1A74978312068884230D05E
:103D7000A4499031206888422BD0A249A8312068FC
:103D8000884226D0A0492068884222D09E49183116
:103D9000206888421DD09C4930312068884218D064
:103DA000994948312068884213D09749603120688A
:103DB00088420ED0944978312068884209D09249CF
:103DC00090312068884204D08F49A8312068884209
:103DD00001D1012000E0002080B12068006820F0BF
:103DE0001E0040F0160021680860206CB0B1206809
:103DF000006840F00800216808600FE02068006853
:103E000020F00E0040F00A0021680860206C28B104
:103E10002068006840F00400216808607949206843
:103E2000884270D077491831206888426BD0754934
:103E300030312068884266D0724948312068884213
:103E400061D070496031206888425CD06D4978311A
:103E50002068884257D06B4990312068884252D000
:103E60006849A831206888424DD067492068884257
:103E700049D0654918312068884244D062493031C0
:103E8000206888423FD060494831206888423AD053
:103E90005D4960312068884235D05B4978312068BF
:103EA000884230D058499031206888422BD05649FA
:103EB000A8312068884226D054492068884222D000
:103EC00052491431206888421DD050492831206859
:103ED000884218D04D493C312068884213D04B4964
:103EE0005031206888420ED04849643120688842A9
:103EF00009D0464978312068884204D043498C3142
:103F00002068884201D1012000E0002090B1206E9D
:103F1000006800F4803028B1206E006840F48070A2
:103F2000216E0860E06E28B1E06E006840F4807099
:103F3000E16E086033492068884249D03149183120
:103F40002068884244D02F493031206888423FD0D1
:103F50002C494831206888423AD02A49603120688B
:103F6000884235D0274978312068884230D02549A9
:103F70009031206888422BD02249A831206888429D
:103F800026D021492068884222D01F491831206854
:103F900088421DD01C4930312068884218D01A4907
:103FA00048312068884213D0174960312068884220
:103FB0000ED0154978312068884209D012499031D5
:103FC0002068884204D01049A8312068884206D170
:103FD0002068006840F001002168086010E0206857
:103FE000006840F001002168086009E000BF00207F
:103FF00084F8340000BF4FF4006060654FF00108A2
:1040000040461FE6100002401004024008540258C7
:1040100030B5034693F89840012C01D0022C3ED1D4
:104020001868806D084030B91868C06D40F0010014
:104030001D68E8650EE01868806D0840884206D16A
:104040001868C06D40F002001D68E86502E00320BA
:104050001D68E86501F4007030B11868D0F8E00020
:1040600010431D68C5F8E00001F4806030B11868A5
:10407000D0F8E40010431D68C5F8E40000BF1868DC
:10408000406D0B4D0D4028431D6868650948006868
:1040900040EA9170074D286000BF002030BDD3F882
:1040A0009C0040F00200C3F89C000120F6E70000ED
:1040B000FFFFCF3F14A800402DE9F04104460E4613
:1040C0001746706800B900E000BF94F89800022815
:1040D00032D12068D0F8C00000F07C5040B9D4F84C
:1040E0009C0040F02000C4F89C000120BDE8F08155
:1040F0002068D0F8C40000F4001038B1D4F89C0057
:1041000040F40070C4F89C000120EFE72068D0F86C
:10411000C400C0F304452B463A4631462046FDF71D
:1041200095FB0120A8402168C1F8D0000120A840DB
:10413000C4F894000020D9E7D4F89C0040F00800AF
:10414000C4F89C000120D1E77047F0B5024692F810
:104150009860012E01D0022E43D1C868072800D1F3
:1041600000BF086818BBC868072800D000BFC8682F
:1041700007280BD1088A4FF0605747EA0040CF6903
:1041800040EA07208F6940EA07040AE0087A8007BE
:104190000F7B40EAC7600F8A40EA07404F6940EA58
:1041A0000704D76E486807EB80031C6017E0C868F7
:1041B000072800D000BF0F7B086940EA4774C86831
:1041C000072801D18D6903E00F7A486940EA8775B5
:1041D000176F486807EBC0031C601B1D1D600020A3
:1041E000F0BDD2F89C0040F00200C2F89C00012013
:1041F000F6E770B50446049D94F8980001280AD1AA
:10420000080140EA820040EA430028432668C6F8D5
:104210008000002070BDD4F89C0040F00400C4F879
:104220009C000120F6E710B5034693F8980001289A
:1042300016D1402909D11868D0F8A00020F000401C
:1042400010431C68C4F8A00008E01868D0F8B0005B
:1042500020F0004010431C68C4F8B000002010BDDE
:10426000D3F89C0040F00400C3F89C000120F6E75E
:10427000704770472DE9F04304460D469C460023E5
:1042800094F89880B8F1020F74D1402D38D120688D
:10429000D0F8A00000F4FE0040B9D4F89C0040F033
:1042A0002000C4F89C000120BDE8F0832068D0F80D
:1042B000A40000F07F0038B9D4F89C0040F480706E
:1042C000C4F89C000120EFE72068D0F8A400C0F3F8
:1042D000006040B12068D0F8A0004FF00049B9EB71
:1042E000D07F00D101232068D0F8A400C0F30520BE
:1042F0000344606C5843D4F8749009EB80014BE0A0
:10430000412D38D12068D0F8B00000F4FE0038B953
:10431000D4F89C0040F02000C4F89C000120C3E7C2
:104320002068D0F8B40000F07F0038B9D4F89C00C1
:1043300040F48070C4F89C000120B5E72068D0F8F4
:10434000B400C0F3006040B12068D0F8B0004FF076
:104350000049B9EBD07F00D101232068D0F8B40028
:10436000C0F305200344E06C5843D4F8789009EB7F
:10437000800111E06EE0206DA84207D8D4F89C00BF
:1043800040F02000C4F89C0001208DE7606D684378
:10439000D4F87C9009EB8001086800F08040506000
:1043A000506820B90868C0F38A40106003E00868CC
:1043B00020F060401060086800F0005090600868CD
:1043C00000F000401061091D088880B2D0610868C3
:1043D00000F47020D060086800F480105061086814
:1043E00000F4001090610868C0F30660106208686D
:1043F000C00F5062091D0F46002603E0B85D0CF89F
:104400000600761CDFF85C90D06809EB104000785D
:10441000B042F3D8402D03D12068C0F8A83017E08F
:10442000412D03D12068C0F8B83011E0202D06D20C
:104430000120A840D4F80090C9F8980008E005F0E1
:104440001F09012000FA09F0D4F80090C9F89C0077
:10445000002029E7D4F89C0040F00800C4F89C0034
:10446000012021E710CD0008704700002DE9F04F32
:1044700089B00446F54800688507F448001D0068C7
:1044800005EA80752068006D00F470462068406D74
:1044900006402068006D00F00F072068406D07405F
:1044A0002068006D00F0F0082068406D00EA080800
:1044B0002068006D00F071592068406D00EA09091C
:1044C0002068006D00F0607A2068406D00EA0A0AFA
:1044D0002068406D00F4807080B12068006D00F4A9
:1044E000807058B100BF4FF48070216808650020CB
:1044F000D649086000BF2046FFF7B6FF2068406D30
:1045000000F48060D8B12068006D00F48060B0B124
:104510002068D0F8DC0007902068D0F8E400079904
:104520000840079000BF4FF48060216808650020B4
:10453000C649086000BF2046079900F0E6FB65B158
:1045400000BFC348284021680865A80FBF4908601C
:1045500000BF29462046FFF7F7FD66B100BFBC4803
:10456000304021680865B00FB849086000BF314687
:10457000204600F0CCFB67B100BFB5483840216849
:104580000865B80FB149086000BF3946204600F001
:1045900087FBB8F1000F0ED000BFAD4808EA00005D
:1045A000216808654FEA9870A849086000BF414635
:1045B000204600F089FB2068406D00F4006080B167
:1045C0002068006D00F4006058B100BF4FF4006037
:1045D0002168086500209D49086000BF204600F062
:1045E00097FB2068406D00F40070D8B12068006D22
:1045F00000F40070B0B12068D0F8D80008902068AE
:10460000D0F8E00008990840089000BF4FF400700F
:104610002168086500208D49086000BF2046089980
:1046200000F074FB2068406D00F4002080B1206829
:10463000006D00F4002058B100BF4FF40020216845
:10464000086500208149086000BF204600F026FB75
:104650002068406D00F4803080B12068006D00F467
:10466000803058B100BF4FF48030216808650020C9
:104670007649086000BF204600F046FB2068406D88
:1046800000F4802080B12068006D00F4802058B1D3
:1046900000BF4FF480202168086500206B49086046
:1046A00000BF204600F02FFB2068406D00F4003072
:1046B00098B12068006D00F4003070B100BF4FF475
:1046C00000302168086500206049086000BFD4F808
:1046D0009C0040F08000C4F89C00BAF1000F0ED09E
:1046E00000BF5B480AEA0000216808654FEA9A703B
:1046F0005649086000BF51462046FFF7BAFDB9F1A0
:10470000000F10D000BF524809EA00002168086578
:104710004FEA99704D49086000BFD4F89C0040EA08
:104720000900C4F89C004B49206888427DD160682C
:10473000806800F0030000287ED06068006A00F006
:104740000F0B6068406A00EA0B0B6068006A00F0BB
:10475000300006906068406A0699084006906068DC
:10476000006A00F4C07005906068406A05990840CE
:1047700005906068006A00F4FC4004906068406A3C
:104780000499084004906068006A00F4F0200390E7
:104790006068406A039908400390BBF1000F06D09F
:1047A0006068C0F820B05946204600F0A9FA069883
:1047B00030B10698616808622046069900F0A2FAB6
:1047C0006068406A00F04000A8B16068006A00F0CC
:1047D000400080B16068C06B000C02906068C06BE4
:1047E00000F03F0001904020616808622046DDE94A
:1047F000012100F086FA059830B1059861680862D9
:104800002046059900F07BFA049840B1049861684D
:104810000862D4F89C0004990843C4F89C000398EB
:1048200018B103986168086200E005E0D4F89C00C4
:1048300003990843C4F89C00D4F89C0010B12046AA
:10484000FFF716FD09B0BDE8F08F000010A800408A
:10485000FFFFCF3F00A0004070B594B004464C224B
:10486000B34901A8FBF7A7FE14B9012014B070BD2D
:10487000B0492068884203D1206800F580706060EC
:10488000A068B0F5407F00D100BF206C00B100BF30
:10489000A06C00B100BF206D00B100BF206E00B160
:1048A00000BFD4E91710084400B100BF94F8980085
:1048B00028B9002084F89900204600F03DF92068CE
:1048C000806920F010002168886100F03BFB0546FC
:1048D0000EE000F037FB401B0A2809D998346068C5
:1048E00040F001006060032004F898090120BDE752
:1048F0002068806900F008000828EAD020688069F4
:1049000040F001002168886100F01CFB05460EE0C4
:1049100000F018FB401B0A2809D99834606840F061
:1049200001006060032004F8980901209EE72068D8
:10493000806900F001000028EAD02068806940F01A
:10494000020021688861207C012806D120688069E6
:1049500020F040002168886105E02068806940F00F
:10496000400021688861607C012806D12068806948
:1049700040F480402168886105E02068806920F467
:10498000804021688861A07C012806D12068806968
:1049900020F480502168886105E02068806940F437
:1049A0008050216888612068806920F44070A16887
:1049B0000843216888612068806920F0A40021688C
:1049C00088612068006920F0100021680861E068B3
:1049D000012806D12068806940F0040021688861C0
:1049E00020E0E068F0B1E068022815D02068806916
:1049F00040F08000216888612068006940F0100064
:104A000021680861E06803280CD12068806940F0C3
:104A100020002168886105E02068806940F020005E
:104A200021688861207E401E4106E069401E41EAFF
:104A30000020216A491E0843A18A491E40EA01401C
:104A40002168C861A068B0F5407F0FD1A06A401E00
:104A5000E16A491E40EA0121206B401E41EA001133
:104A6000A08C401E41EA00402168C860206E38B129
:104A70002068D0F8C000616E08432168C1F8C0000A
:104A8000D4E91710084460B12068D0F8C80020F0BD
:104A9000070001AAA16E52F8211008432168C1F84D
:104AA000C800206C60B12068D0F8BC0020F007007E
:104AB00001AA616C52F8211008432168C1F8BC00BA
:104AC000A06C68B12068D0F8BC0020F0700101AA89
:104AD000E06C52F8200041EA00102168C1F8BC00E7
:104AE000206D68B12068D0F8BC0020F4E06101AA14
:104AF000606D52F8200041EA00202168C1F8BC0036
:104B00000C492068884205D16068806820F0030065
:104B100061688860002044F8940FA0600120207133
:104B2000943C2046FCF782FD064630469EE6000097
:104B300020CD000800A0004010B5B6B004461421F6
:104B400031A8FBF76AFDBC2102A8FBF766FD4D49C1
:104B50002068884248D14FF40040029040031D90E5
:104B600002A800F071FD08B1FCF74CFD4648006852
:104B7000401C454908600846006801280DD100BF67
:104B80004248006840F48070404908600846006868
:104B900000F48070019000BF00BF00BF3B480C389C
:104BA000006840F0010039490C3908600846006887
:104BB00000F00100019000BF00BF4FF4C0503190E1
:104BC000022032900020339034900920359031A992
:104BD0002F4800F09FF800220521132000F070FA02
:104BE000132000F059FA4AE02A492068884246D149
:104BF0004FF40040029040031D9002A800F024FDF5
:104C000008B1FCF7FFFC20480068401C1E49086002
:104C10000846006801280DD100BF1C48006840F418
:104C200080701A4908600846006800F4807001909E
:104C300000BF00BF00BF15480C38006840F00200FC
:104C400012490C3908600846006800F00200019023
:104C500000BF00BF602031900220329000203390CE
:104C600034900920359031A90B4800F053F8002208
:104C70000521142000F024FA142000F00DFA36B0BB
:104C800010BD000000A0004018000024EC440258B1
:104C90000000025800A400400004025870470000C1
:104CA00070B504460D460648844201D1FBF772FDFB
:104CB0000448844202D10248FBF792FE70BD000016
:104CC000FC0300249C0400247047014691F89800DE
:104CD00001280CD1022081F898000868806920F032
:104CE00001000A6890610020C1F89C007047D1F86B
:104CF0009C0040F00400C1F89C000120F6E77047DA
:104D000070477047704770477047704770477047EB
:104D100070470000F8B502460023734DDEE001271E
:104D20009F400E6806EA0704002C71D04E68012EE1
:104D300008D04E68022E05D04E68112E02D04E6863
:104D4000122E13D190685F000326BE40B0435F006F
:104D5000CE68BE4030439060506801269E40B0430C
:104D60000E79C6F300169E4030435060D0685F0055
:104D70000326BE40B0435F008E68BE403043D06023
:104D80004E68022E02D04E68122E13D1DF0802F1B7
:104D9000200656F827005E07F70E0F26BE40B043E8
:104DA0005F07FF0E0E69BE403043DF0802F12006A8
:104DB00046F8270010685F000326BE40B0430E7916
:104DC00006F003065F00BE40304310604E6806F0F8
:104DD0008056B6F1805F1BD100BF444E366846F066
:104DE0000206424F3E603E46366806F002060096D6
:104DF00000BF00BF3E4E9F0856F827009E07370FA2
:104E00000F26BE40B0433B4EB24202D100262EE0F8
:104E100063E0394EB24201D1012628E0374EB2425A
:104E200001D1022623E0364EB24201D103261EE014
:104E3000344EB24201D1042619E0334EB24201D1C0
:104E4000052614E0314EB24201D106260FE0304E65
:104E5000B24201D107260AE02E4EB24201D1082605
:104E600005E02D4EB24201D1092600E00A269F0737
:104E70003F0FBE4030431E4E9F0846F8270028686B
:104E8000A0434E6806F48036B6F5803F00D120433B
:104E900028606868A0434E6806F40036B6F5003F07
:104EA00000D1204368604FF0B0463068A0434E68A0
:104EB00006F48016B6F5801F00D120434FF0B046AF
:104EC00030607068A0434E6806F40016B6F5001F07
:104ED00000D120434FF0B04670605B1C0E68DE408E
:104EE000002E7FF41CAFF8BD80000058F444025837
:104EF0000804005800000258000402580008025834
:104F0000000C0258001002580014025800180258F1
:104F1000001C02580020025800240258024613695F
:104F20000B400BB1012000E0002070470AB1816105
:104F300001E00B048361704701480068000C704772
:104F40000010005C01480068704700001C0000244D
:104F5000034800680349097808440149086070471C
:104F60001C0000242400002410B5032000F0E6F803
:104F700001F02CFB10490968C1F303210F4A515C71
:104F800001F01F0120FA01F40B48006800F00F0047
:104F90001146085C00F01F0024FA00F00849086080
:104FA000084804600F2000F00FF808B1012010BD80
:104FB00000F05AF80020FAE71844025894CD00088F
:104FC0002C00002428000024F0B58BB00446102CDF
:104FD0000AD2002221461C2000F072F81C2000F0AA
:104FE0005BF81D48046002E001200BB0F0BD00BF7B
:104FF0001A48006840F00100184908600846006837
:1050000000F00100019000BF00BF02A903A801F059
:105010005DFA089E1EB901F0B5FA054602E001F0FE
:10502000B1FA45000E48B5FBF0F0471E4FF0804046
:105030000C49086040F2E7310A48C160476000212E
:105040000161816002F0ABF918B9064802F0E0F99D
:10505000CBE70120C9E7000020000024E844025803
:1050600040420F00680D002408B500BF09480068E1
:1050700040F00200074908600846006800F002009E
:10508000009000BF00BF00220F21901E00F018F812
:1050900008BD0000F44402580146084600280DDB14
:1050A00000BF00BF00F01F0301229A4043099B008C
:1050B00003F1E023C3F8002100BF00BF00BF704729
:1050C0002DE9F05F80460D46164605F017FD0746B0
:1050D00039462A46334601F00700C0F1070ABAF103
:1050E000040F02D94FF0040A01E0C0F1070AD146CB
:1050F00000F1040ABAF1070F02D24FF0000A01E0F2
:10510000A0F1030AD4464FF0010A0AFA09FAAAF1FB
:10511000010A0AEA020A0AFA0CFA4FF0010B0BFA2A
:105120000CFBABF1010B0BEA030B4AEA0B04214623
:10513000404605F0EBFCBDE8F09F000000BF00F02A
:105140000702064B19684FF6FF031940044B0B4347
:1051500043EA0221014B196000BF70470CED00E0EB
:105160000000FA0570B5044615480068C0F38000D9
:1051700048B91348006800F00700A04201D00120A0
:1051800070BD0020FCE70E48006820F007002043B7
:105190000B490860FFF7D6FE054607E0FFF7D2FE91
:1051A000401BB0F57A7F01D90120E9E704480838AF
:1051B0000068C0F340300028F0D00020E0E7000095
:1051C0000C48025810B501F0B7F905490968C1F358
:1051D0000211044A515C01F01F01C84010BD0000DB
:1051E0002044025894CD000870B50146844D2D68C6
:1051F00005F00303824D2D68C5F30530804D2D1D4C
:105200002D68C5F300147E4D14352D68C5F3CC050B
:1052100015FB04F501EE105AB8EE411AF0EE410A02
:1052200000286FD023B1012B4ED0022B6BD16BE045
:10523000734D283D2D68C5F340153DB3704D283D95
:105240002D68C5F3C1066F4D25FA06F201EE102A4E
:10525000F8EE411A01EE100AB8EE411A81EE812AE9
:105260009FED691AC0EE811A654D10352D68C5F3A2
:10527000080501EE105AB8EE411A31EE811AF7EE28
:10528000001A31EE211A22EE010A1CE001EE100A8A
:10529000B8EE411ADFED5D1A81EE812A9FED5A1AB0
:1052A000C0EE811A564D10352D68C5F3080501EE84
:1052B000105AB8EE411A31EE811AF7EE001A31EEAB
:1052C000211A22EE010A5BE001EE100AB8EE411A43
:1052D000DFED4F1A81EE812A9FED4B1AC0EE811A45
:1052E000474D10352D68C5F3080501EE105AB8EE8C
:1052F000411A31EE811AF7EE001A31EE211A22EE30
:10530000010A3DE077E01DE001EE100AB8EE411A17
:105310009FED402AC2EE011A9FED3B1A80EE812AD2
:10532000374D10352D68C5F3080501EE105AB8EE5B
:10533000411A32EE011AB7EE002A31EE021A21EEBE
:10534000810A1DE001EE100AB8EE411ADFED301AB5
:1053500081EE812A9FED2C1AC0EE811A284D10355E
:105360002D68C5F3080501EE105AB8EE411A31EE6A
:10537000811AF7EE001A31EE211A22EE010A00BF5F
:1053800000BF1F4D10352D68C5F3462501EE105A9C
:10539000B8EE411AF7EE001A31EE211AC0EE011AEA
:1053A000BCEEE11A81ED001A154D10352D68C5F3DC
:1053B000064501EE105AB8EE411AF7EE001A31EE2A
:1053C000211AC0EE011ABCEEE11A81ED011A0C4D52
:1053D00010352D68C5F3066501EE105AB8EE411A76
:1053E000F7EE001A31EE211AC0EE011ABCEEE11AF6
:1053F00081ED021A03E000250D604D608D6070BDE7
:10540000284402580090D003000000460024744C49
:105410000024744A20BCBE4B70B50146844D2D68F3
:1054200005F00303824D2D68C5F30550804D2D1DF9
:105430002D68C5F300247E4D1C352D68C5F3CC05C1
:1054400015FB04F501EE105AB8EE411AF0EE410AD0
:1054500000286FD023B1012B4ED0022B6BD16BE013
:10546000734D283D2D68C5F340153DB3704D283D63
:105470002D68C5F3C1066F4D25FA06F201EE102A1C
:10548000F8EE411A01EE100AB8EE411A81EE812AB7
:105490009FED691AC0EE811A654D18352D68C5F368
:1054A000080501EE105AB8EE411A31EE811AF7EEF6
:1054B000001A31EE211A22EE010A1CE001EE100A58
:1054C000B8EE411ADFED5D1A81EE812A9FED5A1A7E
:1054D000C0EE811A564D18352D68C5F3080501EE4A
:1054E000105AB8EE411A31EE811AF7EE001A31EE79
:1054F000211A22EE010A5BE001EE100AB8EE411A11
:10550000DFED4F1A81EE812A9FED4B1AC0EE811A12
:10551000474D18352D68C5F3080501EE105AB8EE51
:10552000411A31EE811AF7EE001A31EE211A22EEFD
:10553000010A3DE077E01DE001EE100AB8EE411AE5
:105540009FED402AC2EE011A9FED3B1A80EE812AA0
:10555000374D18352D68C5F3080501EE105AB8EE21
:10556000411A32EE011AB7EE002A31EE021A21EE8C
:10557000810A1DE001EE100AB8EE411ADFED301A83
:1055800081EE812A9FED2C1AC0EE811A284D183524
:105590002D68C5F3080501EE105AB8EE411A31EE38
:1055A000811AF7EE001A31EE211A22EE010A00BF2D
:1055B00000BF1F4D18352D68C5F3462501EE105A62
:1055C000B8EE411AF7EE001A31EE211AC0EE011AB8
:1055D000BCEEE11A81ED001A154D18352D68C5F3A2
:1055E000064501EE105AB8EE411AF7EE001A31EEF8
:1055F000211AC0EE011ABCEEE11A81ED011A0C4D20
:1056000018352D68C5F3066501EE105AB8EE411A3B
:10561000F7EE001A31EE211AC0EE011ABCEEE11AC3
:1056200081ED021A03E000250D604D608D6070BDB4
:10563000284402580090D003000000460024744C17
:105640000024744A20BCBE4B2DE9F04104460025DD
:10565000A846206800F00060B0F1006F30D1606EA5
:1056600048B1B0F5801F0DD0B0F5001F10D0B0F5D7
:10567000401F15D113E0F948006840F40030F749A5
:1056800008600FE00221201D03F020FA054609E022
:10569000022104F1240003F0CBFA054602E001E008
:1056A000012500BF00BF55B9EC482430006820F444
:1056B0004010616E0843E9492431086000E0A846C3
:1056C000208800F48070B0F5807F2DD1606D0528B2
:1056D0001AD2DFE800F0030A10171800DF4800684C
:1056E00040F40030DD49086010E00021201D03F087
:1056F000EDF905460AE0002104F1240003F098FAD0
:10570000054603E002E001E0012500BF00BF55B9F6
:10571000D2482430006820F00700616D0843CF496B
:105720002431086000E0A846208800F40070B0F53D
:10573000007F33D1A06D802817D003DC40B1402812
:105740001CD10CE0C02817D0B0F5807F16D114E032
:10575000C248006840F40030C049086010E00021F1
:10576000201D03F0B3F905460AE0002104F12400EE
:1057700003F05EFA054603E002E001E0012500BF08
:1057800000BF55B9B5482430006820F4E070A16D21
:105790000843B2492431086000E0A846208800F49C
:1057A0008060B0F5806F38D1D4F8A400B0F5800FD8
:1057B00019D004DC50B1B0F5001F1DD10DE0B0F5DB
:1057C000C00F17D0B0F5000F16D114E0A348006841
:1057D00040F40030A149086010E00021201D03F0D2
:1057E00075F905460AE0002104F1240003F020FACF
:1057F000054603E002E001E0012500BF00BF5DB9FE
:1058000096482C30006820F46000D4F8A4100843B7
:1058100092492C31086000E0A846208800F400601E
:10582000B0F5006F38D1D4F8A800B0F1007F19D0DE
:1058300004DC50B1B0F1807F1DD10DE0B0F1407FAC
:1058400017D0B0F1806F16D114E08448006840F49E
:1058500000308249086010E00021201D03F036F975
:1058600005460AE0002104F1240003F0E1F90546B1
:1058700003E002E001E0012500BF00BF5DB9774809
:105880002C30006820F0E060D4F8A8100843734979
:105890002C31086000E0A846206800F00070B0F1EC
:1058A000007F27D1A06CA0B1102804D0202809D0F7
:1058B00030280FD10CE06948006840F40030674997
:1058C000086009E00221201D03F000F9054603E00D
:1058D00002E001E0012500BF00BF55B95F4820305C
:1058E000006820F03000A16C08435C49203108605A
:1058F00000E0A846208800F48050B0F5805F36D1E3
:10590000E06DB0F5005F19D004DC50B1B0F5805FF8
:105910001DD10DE0B0F5405F17D0B0F5804F16D126
:1059200014E04E48006840F400304C49086010E034
:105930000021201D03F0CAF805460AE0002104F109
:10594000240003F075F9054603E002E001E00125BB
:1059500000BF00BF55B941482430006820F4E04042
:10596000E16D08433D492431086000E0A8462088E5
:1059700000F40050B0F5005F34D1206EB0F5403F28
:105980001DD007DC68B1B0F5803F0BD0B0F5003F0B
:1059900018D10DE0B0F5802F12D0B0F5A02F11D1A5
:1059A0000FE011E00121201D03F090F805460BE007
:1059B000012104F1240003F03BF9054604E003E073
:1059C00002E001E0012500BF00BF55B923482430A3
:1059D000006820F4E020216E08432049243108604B
:1059E00000E0A846208800F48040B0F5804F38D110
:1059F000D4F8AC00B0F1405F1DD007DC68B1B0F165
:105A0000805F0BD0B0F1005F18D10DE0B0F1804F96
:105A100012D0B0F1A04F11D10FE011E00121201DF3
:105A200003F054F805460BE0012104F1240003F0D3
:105A3000FFF8054604E003E002E001E0012500BFB5
:105A400000BF6DB905482C30006820F0E040D4F864
:105A5000AC10084301492C31086002E02C44025884
:105A6000A846208800F40040B0F5004F26D1E06E33
:105A700098B1B0F1805F03D0B0F1005F0ED106E0C5
:105A8000F948006840F40030F749086008E0012157
:105A9000201D03F01BF8054602E001E0012500BFD0
:105AA00000BF55B9F0482430006820F04050E16E46
:105AB0000843ED492431086000E0A846206800F062
:105AC0008070B0F1807F27D1606CA0B1012804D034
:105AD000022809D003280FD10CE0E348006840F405
