:020000040800F2
:10000000780900243D030008A94600089F43000822
:10001000A5460008B10500082154000800000000B2
:1000200000000000000000000000000093490008EC
:10003000C506000800000000AD460008954900080C
:100040005703000857030008570300085703000828
:100050005703000857030008570300085703000818
:100060005703000857030008570300085703000808
:1000700057030008570300085703000857030008F8
:1000800057030008570300085703000857030008E8
:1000900057030008570300085703000857030008D8
:1000A00057030008570300085703000857030008C8
:1000B00057030008570300085703000857030008B8
:1000C00057030008570300085703000857030008A8
:1000D000570300081154000857030008570300088D
:1000E00057030008570300080000000057030008EA
:1000F0005703000857030008570300085703000878
:100100005703000857030008570300085703000867
:100110005703000857030008570300085703000857
:100120005703000857030008570300085703000847
:100130005703000857030008570300085703000837
:1001400000000000000000000000000000000000AF
:100150005703000857030008570300085703000817
:100160005703000857030008570300085703000807
:1001700057030008570300085703000857030008F7
:1001800057030008570300085703000857030008E7
:1001900057030008570300085703000857030008D7
:1001A00057030008570300085703000857030008C7
:1001B00057030008570300085703000857030008B7
:1001C00057030008570300085703000857030008A7
:1001D0005703000857030008570300085703000897
:1001E0005703000857030008570300085703000887
:1001F0005703000857030008570300085703000877
:100200005703000857030008570300085703000866
:100210005703000857030008570300085703000856
:1002200057030008570300085703000800000000A8
:100230005703000857030008000000005703000898
:100240005703000857030008570300085703000826
:100250005703000857030008570300085703000816
:100260005703000857030008570300085703000806
:100270005703000857030008570300080000000058
:100280005703000857030008570300080000000048
:10029000000000005703000800F002F800F03EF8EC
:1002A0000AA090E8000C82448344AAF10107DA45D1
:1002B00001D100F033F8AFF2090EBAE80F0013F0E5
:1002C000010F18BFFB1A43F001031847285500001F
:1002D00048550000103A24BF78C878C1FAD85207B0
:1002E00024BF30C830C144BF04680C6070470000B0
:1002F0000023002400250026103A28BF78C1FBD82F
:10030000520728BF30C148BF0B6070471FB505F0CA
:1003100013FA00F007F91FBD10B510BD00F015F974
:100320001146FFF7F3FF05F099F900F033F903B434
:10033000FFF7F2FF03BC05F049F9000009488047C8
:1003400009480047FEE7FEE7FEE7FEE7FEE7FEE7B7
:10035000FEE7FEE7FEE7FEE704480549054A064BCF
:1003600070470000814A00089902000878030024C1
:10037000780900247805002478050024704753EAA2
:10038000020C00F069802DE9F04B4FF00006002BC5
:100390001FBFB3FA83F503FA05F424FA05F65E40AD
:1003A00012BF1643B2FA82F502FA05F4C5F1200530
:1003B0001EBF22FA05FC44EA0C04203556EA044C20
:1003C0004FEA144418BF641C4FF000084FF00009B6
:1003D000904271EB030C39D3002919BFB1FA81F7B0
:1003E00001FA07F6B0FA80F700FA07F6C7F120071E
:1003F0001EBF20FA07FC46EA0C062037B6FBF4FCC9
:10040000A7EB0507103F07F01F0BCBF120060CFAF6
:100410000BFB2CFA06F644BFB3460026202FA4BFE0
:100420005E464FF0000B5BEA060C08BF4FF0010B75
:1004300019EB0B09ABFB027C48EB0608C01B06FB63
:1004400002CC0BFB03CC71EB0C01C1E70B4602465F
:1004500041464846BDE8F08B13B54FF000004FF021
:100460000001AFF30080BDE81C40704710B5203A92
:10047000C0F00B80B1E81850203AA0E81850B1E85D
:100480001850A0E81850BFF4F5AF5FEA027C24BF13
:10049000B1E81850A0E8185044BF18C918C0BDE80A
:1004A00010405FEA827C24BF51F8043B40F8043BD3
:1004B00008BF7047D20728BF31F8023B48BF11F888
:1004C000012B28BF20F8023B48BF00F8012B7047E2
:1004D0004FF0000200B5134694469646203922BFDD
:1004E000A0E80C50A0E80C50B1F12001BFF4F7AF28
:1004F000090728BFA0E80C5048BF0CC05DF804EB0A
:10050000890028BF40F8042B08BF704748BF20F877
:10051000022B11F0804F18BF00F8012B7047704775
:100520007047704770B5064C7C44064D7D4403E02F
:10053000206820448047241DAC42F9D170BD0000E2
:10054000E8520000E85200007047754600F02CF8B1
:10055000AE4605006946534620F00700854618B0B0
:1005600020B5FFF7F9FEBDE820404FF000064FF040
:1005700000074FF000084FF0000B21F00701AC46D8
:10058000ACE8C009ACE8C009ACE8C009ACE8C009F7
:100590008D46704710B50446AFF300802046BDE895
:1005A0001040FFF7C4BE0000004870471403002449
:1005B00000BFFEE72DE9FF4104460D4616461F46E3
:1005C0004FF40070244908600020486088604FF4B0
:1005D0002020C8600020086148618861C861086205
:1005E000200A8DF80000E0B28DF80100280A8DF88D
:1005F0000200E8B28DF80300300A8DF80400F0B272
:100600008DF80500380A8DF80600F8B28DF807005D
:10061000E0B28DF80800E0B28DF80900E0B28DF884
:100620000A00E0B28DF80B00E0B28DF80C00E0B2E9
:100630008DF80D00E0B28DF80E00E0B28DF80F00DD
:1006400001236A46054800F049FE0121034800F0F5
:100650000BFFBDE8FF810000A8000024CC000024AF
:1006600010B54FF48051164801F002FA012802D16A
:1006700044F0010400E000BF4FF40051104801F0C5
:10068000F7F9012802D144F0020400E000BF4FF462
:1006900080410B4801F0ECF9012802D144F0040438
:1006A00000E000BF4FF40041054801F0E1F90128E6
:1006B00002D144F0080400E000BF204610BD000055
:1006C00000100258704772B600BFFEE710B5014631
:1006D0004A6B0868D0F884004FF6FC74A04340EAE7
:1006E00082000C68C4F884000868D0F8840020F404
:1006F0007F04088F44EA00400C68C4F88400886BCB
:1007000002440868D0F888004FF6FC74A04340EA21
:1007100082000C68C4F888000868D0F8880020F4CB
:10072000FE04888F44EA00400C68C4F88800C86B57
:1007300002EB40020868D0F8A0004FF6FC74A0431A
:1007400040EA82000C68C4F8A0000868D0F8A00055
:1007500020F4FE044020405A44EA00400C68C4F8EB
:10076000A000D1E9104004FB00220868D0F8B000D6
:100770004FF6FC74A04340EA82000C68C4F8B00055
:100780000868D0F8B00020F4FE04B1F8480044EA4C
:1007900000400C68C4F8B000D1E9124004FB00220C
:1007A0000868D0F8AC004FF6FC74A04340EA820021
:1007B0000C68C4F8AC00D1E9144004FB00220868BE
:1007C000D0F8F0004FF6FC74A04340EA82000C68B9
:1007D000C4F8F0000868D0F8F00020F47C14B1F8F8
:1007E000580044EA00400C68C4F8F000886D02EB41
:1007F00040020868D0F8C0004FF6FC74A04340EAFD
:1008000082000C68C4F8C0000868D0F8C00020F46A
:100810007C14B1F85C0044EA00400C68C4F8C000E5
:100820000868D0F8C00020F07C5491F8600044EAD9
:1008300000600C68C4F8C0002A4C486B04EB8000D0
:10084000C866CC6E886B04EB80040C670C6FC86BB9
:1008500004EBC0044C67D1E9100460434C6F04EB17
:1008600080048C67D1E9120460438C6F04EB800430
:10087000CC67D1E914046043CC6F04EB8004802082
:1008800044504458886D04EBC004842044508C6E5E
:10089000C86D60438424645804EB8004882044506D
:1008A0008C6E086E60438824645804EB80049020AA
:1008B000445040580C4CA04209D99831486840F047
:1008C00020004860032001F89809012010BDCB6E7C
:1008D00002E0002018601B1D902040589842F8D874
:1008E0000020F3E700AC0040FCD300402DE9F041CC
:1008F000054614461E46D1F804C0BCF1000F0AD1CB
:10090000D1F810C0D1F808804CEA080CB1F800808A
:100910004CEA88430BE0D1F810C04CF0804CD1F881
:1009200008804CEA080CD1F800804CEA080391F8E2
:100930002080D1F81CC04CEA086CD1F818804CEA31
:10094000080CD1F814804CEA080CD1F80C804CEA61
:100950000807D5F868C00CFB06FCD5F8848008EBC6
:100960008C021360121D1760121D002019E000F1A7
:10097000030C14F80CC04FEA0C6800F1020C14F8D8
:100980000CC048EA0C4800F1010C14F80CC048EA0D
:100990000C2C14F800804CEA080CC2F800C0121DA0
:1009A000001DDFF81880D1F80CC008EB1C4C9CF837
:1009B00000C08445DBD8BDE8F08100004457000842
:1009C0002DE9F041044601F067F8804614B9012092
:1009D000BDE8F08194F83500022808D080206065D9
:1009E00000BF002084F8340000BF0120F0E7FE497A
:1009F0002068884249D0FC4918312068884244D098
:100A0000F9493031206888423FD0F74948312068A1
:100A100088423AD0F44960312068884235D0F249A2
:100A200078312068884230D0EF4990312068884280
:100A30002BD0ED49A8312068884226D0EB492068A8
:100A4000884222D0E9491831206888421DD0E74900
:100A500030312068884218D0E44948312068884203
:100A600013D0E2496031206888420ED0DF497831E6
:100A70002068884209D0DD4990312068884204D03E
:100A8000DA49A8312068884201D1012000E0002025
:100A900068B12068006820F01E00216808602068A6
:100AA000406920F0800021684861256806E02068E0
:100AB000006820F00E00216808602568CA49206897
:100AC000884270D0C8491831206888426BD0C64926
:100AD00030312068884266D0C34948312068884256
:100AE00061D0C1496031206888425CD0BE4978310C
:100AF0002068884257D0BC4990312068884252D043
:100B0000B949A831206888424DD0B8492068884248
:100B100049D0B64918312068884244D0B3493031B1
:100B2000206888423FD0B1494831206888423AD095
:100B3000AE4960312068884235D0AC4978312068B0
:100B4000884230D0A9499031206888422BD0A749EB
:100B5000A8312068884226D0A5492068884222D042
:100B6000A3491431206888421DD0A149283120684A
:100B7000884218D09E493C312068884213D09C4955
:100B80005031206888420ED09949643120688842EB
:100B900009D0974978312068884204D094498C3133
:100BA0002068884201D1012000E0002028B1206E99
:100BB000006820F48070216E08608B4920688842AC
:100BC00049D0894918312068884244D0864930315B
:100BD000206888423FD084494831206888423AD012
:100BE000814960312068884235D07F49783120685A
:100BF000884230D07C499031206888422BD07A4995
:100C0000A8312068884226D078492068884222D0BE
:100C100076491831206888421DD0744930312068E7
:100C2000884218D0714948312068884213D06F49F2
:100C30006031206888420ED06C4978312068884243
:100C400009D06A4990312068884204D06749A831A8
:100C50002068884206D12068006820F001002168E1
:100C6000086005E02068006820F001002168086045
:100C700011E000F011FFA0EB080005280BD920209F
:100C8000606500BF002084F8340000BF032084F8B2
:100C9000350001209CE6286800F001000028E8D11A
:100CA00051492068884249D04F491831206888420C
:100CB00044D04D493031206888423FD04A494831BC
:100CC000206888423AD0484960312068884235D04F
:100CD000454978312068884230D0434990312068B6
:100CE00088422BD04049A8312068884226D03F490D
:100CF0002068884222D03D491831206888421DD0A2
:100D00003A4930312068884218D038494831206843
:100D1000884213D035496031206888420ED033496B
:100D200078312068884209D0304990312068884263
:100D300004D02E49A8312068884201D1012000E06A
:100D4000002040B1A66D94F85C0000F01F013F2028
:100D50008840B06007E0A76D94F85C0000F01F01C8
:100D600001208840786020492068884276D01E495A
:100D700018312068884271D01B4930312068884280
:100D80006CD0194948312068884267D016496031D3
:100D90002068884262D014497831206888425DD04A
:100DA000114990312068884258D00F49A8312068F5
:100DB000884253D00D49206888424FD00B491831E2
:100DC000206888424AD0094930312068884245D09D
:100DD000064948312068884240D004496031206883
:100DE00088423BD0014905E0100002401004024057
:100DF000085402587831206888422FD0254920684D
:100E000088422BD0234918312068884226D02249B5
:100E10002068884222D020491431206888421DD0A1
:100E20001D4928312068884218D01B493C31206870
:100E3000884213D018495031206888420ED0164994
:100E400064312068884209D013497831206888428B
:100E500004D011498C312068884201D1012000E082
:100E6000002068B1D4E919104860E06E40B1E06E2E
:100E7000006820F48070E16E0860D4E91C104860BE
:100E800000BF002084F8340000BF012084F8350042
:100E900000209DE5A00402400854025870B50446A5
:100EA0000CB9012070BD94F83500022803D08020D1
:100EB00060650120F6E7DC492068884249D0DA49BC
:100EC00018312068884244D0D749303120688842A0
:100ED0003FD0D5494831206888423AD0D249603164
:100EE0002068884235D0D04978312068884230D097
:100EF000CD499031206888422BD0CB49A831206859
:100F0000884226D0C9492068884222D0C749183172
:100F1000206888421DD0C54930312068884218D0E9
:100F2000C24948312068884213D0C04960312068E6
:100F300088420ED0BD4978312068884209D0BB492B
:100F400090312068884204D0B849A831206888428E
:100F500001D1012000E00020F0B3042084F8350026
:100F6000B149206888424BD0AF4918312068884287
:100F700046D0AD4930312068884241D0AA49483135
:100F8000206888423CD0A84960312068884237D028
:100F9000A54978312068884232D0A3499031206831
:100FA00088422DD0A049A8312068884228D09F4986
:100FB0002068884224D09D491831206888421FD07B
:100FC0009A493031206888421AD0984948312068BF
:100FD000884215D0954900E020E0603120688842C1
:100FE0000ED0924978312068884209D08F499031DB
:100FF0002068884204D08D49A8312068884206D1F3
:101000002068006820F001002168086009E120687C
:10101000006820F001002168086002E12068006893
:1010200020F00E00216808607F492068884249D07E
:101030007D4918312068884244D07B49303120688E
:1010400088423FD078494831206888423AD0764972
:1010500060312068884235D07349783120688842F1
:1010600030D071499031206888422BD06E49A83128
:101070002068884226D06D492068884222D06B497A
:101080001831206888421DD0684930312068884274
:1010900018D0664948312068884213D063496031CE
:1010A000206888420ED0614978312068884209D092
:1010B0005E4990312068884204D05C49A83120689C
:1010C000884206D12068006820F00100216808608D
:1010D00005E02068006820F001002168086052499E
:1010E0002068884270D050491831206888426BD0FF
:1010F0004D4930312068884266D04B4948312068DC
:10110000884261D048496031206888425CD04649B5
:1011100078312068884257D043499031206888420E
:1011200052D04149A831206888424DD03F492068BB
:10113000884249D03D4918312068884244D03B4913
:101140003031206888423FD0384948312068884291
:101150003AD0364960312068884235D033497831F9
:101160002068884230D031499031206888422BD0A5
:101170002E49A8312068884226D02D49206888420F
:1011800022D02B491431206888421DD028492831AB
:101190002068884218D026493C312068884213D004
:1011A00023495031206888420ED02149643120689B
:1011B000884209D01E4978312068884204D01C49F1
:1011C0008C312068884201D1012000E00020D8B194
:1011D000206E006820F48070216E0860A56D94F880
:1011E0005C0000F01F01012088406860D4E91910FC
:1011F0004860E06E40B1E06E006820F48070E16EFF
:101200000860D4E91C10486000BF002084F8340056
:1012100000BF012084F83500206D10B12046216DFB
:10122000884700203EE60000100002401004024003
:101230000854025830B5034693F89840012C01D069
:10124000022C3ED11868806D084030B91868C06D16
:1012500040F001001D68E8650EE01868806D0840E8
:10126000884206D11868C06D40F002001D68E8652C
:1012700002E003201D68E86501F4007030B11868D1
:10128000D0F8E00010431D68C5F8E00001F480606C
:1012900030B11868D0F8E40010431D68C5F8E400C8
:1012A00000BF1868406D0B4D0D4028431D686865F0
:1012B0000948006840EA9170074D286000BF00208F
:1012C00030BDD3F89C0040F00200C3F89C00012020
:1012D000F6E70000FFFFCF3F14A800402DE9F041E2
:1012E00004460E4690461D4694F89870706800B902
:1012F00000E000BF012F01D0022F2BD12068D0F8D1
:10130000C000C0F3054095FAA5F1B1FA81F1884219
:1013100008D8D4F89C0040F02000C4F89C000120BC
:10132000BDE8F0812068D0F8CC00284038B1D4F86E
:101330009C0040F04000C4F89C000120F0E795FAC2
:10134000A5F0B0FA80F3424631462046FFF7CEFAC8
:101350000020E5E7D4F89C0040F00200C4F89C00AF
:101360000120DDE7F0B5024692F89860012E01D029
:10137000022E43D1C868072800D100BF086818BBF7
:10138000C868072800D000BFC86807280BD1088AA2
:101390004FF0605747EA0040CF6940EA07208F6965
:1013A00040EA07040AE0087A80070F7B40EAC7603A
:1013B0000F8A40EA07404F6940EA0704D76E486841
:1013C00007EB80031C6017E0C868072800D000BF47
:1013D0000F7B086940EA4774C868072801D18D6906
:1013E00003E00F7A486940EA8775176F486807EB92
:1013F000C0031C601B1D1D600020F0BDD2F89C00C6
:1014000040F00200C2F89C000120F6E770B50446E7
:10141000049D94F8980001280AD1080140EA82004E
:1014200040EA430028432668C6F88000002070BDCB
:10143000D4F89C0040F00400C4F89C000120F6E7BA
:1014400010B5034693F89800012805D142EA01201F
:101450001C68A064002010BDD3F89C0040F004007C
:10146000C3F89C000120F6E7024692F89800022893
:1014700004D11068C0F8D01000207047D2F89C004A
:1014800040F00800C2F89C000120F6E7014691F800
:101490009800012807D10868C06840F400000A6875
:1014A000D06000207047D1F89C0040F00400C1F8E3
:1014B0009C000120F6E7000070B594B004464C2271
:1014C000B34901A8FEF7D2FF14B9012014B070BDD2
:1014D000B0492068884203D1206800F580706060C0
:1014E000A068B0F5407F00D100BF206C00B100BF04
:1014F000A06C00B100BF206D00B100BF206E00B134
:1015000000BFD4E91710084400B100BF94F8980058
:1015100028B9002084F89900204600F03DF92068A1
:10152000806920F010002168886100F0B5FA054656
:101530000EE000F0B1FA401B0A2809D9983460681F
:1015400040F001006060032004F898090120BDE725
:101550002068806900F008000828EAD020688069C7
:1015600040F001002168886100F096FA05460EE01F
:1015700000F092FA401B0A2809D99834606840F0BC
:1015800001006060032004F8980901209EE72068AC
:10159000806900F001000028EAD02068806940F0EE
:1015A000020021688861207C012806D120688069BA
:1015B00020F040002168886105E02068806940F0E3
:1015C000400021688861607C012806D1206880691C
:1015D00040F480402168886105E02068806920F43B
:1015E000804021688861A07C012806D1206880693C
:1015F00020F480502168886105E02068806940F40B
:101600008050216888612068806920F44070A1685A
:101610000843216888612068806920F0A40021685F
:1016200088612068006920F0100021680861E06886
:10163000012806D12068806940F004002168886193
:1016400020E0E068F0B1E068022815D020688069E9
:1016500040F08000216888612068006940F0100037
:1016600021680861E06803280CD12068806940F097
:1016700020002168886105E02068806940F0200032
:1016800021688861207E401E4106E069401E41EAD3
:101690000020216A491E0843A18A491E40EA0140F0
:1016A0002168C861A068B0F5407F0FD1A06A401ED4
:1016B000E16A491E40EA0121206B401E41EA001107
:1016C000A08C401E41EA00402168C860206E38B1FD
:1016D0002068D0F8C000616E08432168C1F8C000DE
:1016E000D4E91710084460B12068D0F8C80020F091
:1016F000070001AAA16E52F8211008432168C1F821
:10170000C800206C60B12068D0F8BC0020F0070051
:1017100001AA616C52F8211008432168C1F8BC008D
:10172000A06C68B12068D0F8BC0020F0700101AA5C
:10173000E06C52F8200041EA00102168C1F8BC00BA
:10174000206D68B12068D0F8BC0020F4E06101AAE7
:10175000606D52F8200041EA00202168C1F8BC0009
:101760000C492068884205D16068806820F0030039
:1017700061688860002044F8940FA0600120207107
:10178000943C2046FEF7A2FF064630469EE6000047
:101790005457000800A0004010B5B6B0044614210C
:1017A00031A8FEF795FEBC2102A8FEF791FE1E4966
:1017B0002068884236D14FF40040029040031D90CB
:1017C00002A800F0C1FC08B1FEF77DFF00BF17487A
:1017D000006840F48070154908600846006800F40D
:1017E0008070019000BF00BF00BF10480C38006837
:1017F00040F001000D490C3908600846006800F00F
:101800000100019000BF00BF4FF4C0503190022092
:1018100032900020339034900920359031A904484B
:1018200000F022F836B010BD00A00040EC44025891
:1018300000000258014691F8980001280CD10220BE
:1018400081F898000868806920F001000A689061BA
:101850000020C1F89C007047D1F89C0040F00400C3
:10186000C1F89C000120F6E7F8B502460023734D4D
:10187000DEE001279F400E6806EA0704002C71D0C5
:101880004E68012E08D04E68022E05D04E68112EEB
:1018900002D04E68122E13D190685F000326BE401E
:1018A000B0435F00CE68BE40304390605068012670
:1018B0009E40B0430E79C6F300169E403043506000
:1018C000D0685F000326BE40B0435F008E68BE4014
:1018D0003043D0604E68022E02D04E68122E13D1D3
:1018E000DF0802F1200656F827005E07F70E0F26E4
:1018F000BE40B0435F07FF0E0E69BE403043DF08B5
:1019000002F1200646F8270010685F000326BE405B
:10191000B0430E7906F003065F00BE40304310600E
:101920004E6806F08056B6F1805F1BD100BF444E72
:10193000366846F00206424F3E603E46366806F084
:101940000206009600BF00BF3E4E9F0856F82700D3
:101950009E07370F0F26BE40B0433B4EB24202D126
:1019600000262EE063E0394EB24201D1012628E084
:10197000374EB24201D1022623E0364EB24201D1A7
:1019800003261EE0344EB24201D1042619E0334E44
:10199000B24201D1052614E0314EB24201D10626F1
:1019A0000FE0304EB24201D107260AE02E4EB2427D
:1019B00001D1082605E02D4EB24201D1092600E0F2
:1019C0000A269F073F0FBE4030431E4E9F0846F831
:1019D00027002868A0434E6806F48036B6F5803F9D
:1019E00000D1204328606868A0434E6806F40036A2
:1019F000B6F5003F00D1204368604FF0B046306834
:101A0000A0434E6806F48016B6F5801F00D120432F
:101A10004FF0B04630607068A0434E6806F4001680
:101A2000B6F5001F00D120434FF0B04670605B1C3C
:101A30000E68DE40002E7FF41CAFF8BD8000005819
:101A4000F4440258080400580000025800040258E8
:101A500000080258000C02580010025800140258E6
:101A600000180258001C0258002002580024025896
:101A7000024613690B400BB1012000E000207047C3
:101A80000AB1816101E00B0483617047014800687D
:101A9000000C70470010005C0148006870470000AF
:101AA0007C00002403480068034909780844014980
:101AB000086070477C0000248400002410B50320D7
:101AC00000F0BCF801F0CCFA10490968C1F3032119
:101AD0000F4A515C01F01F0120FA01F40B48006825
:101AE00000F00F001146085C00F01F0024FA00F01F
:101AF00008490860084804600F2000F00FF808B19A
:101B0000012010BD00F036F80020FAE71844025812
:101B1000C85700088C0000248800002470B50446D3
:101B20001148007808B9012070BD0F4800784FF4C3
:101B30007A71B1FBF0F00D490968B1FBF0F5284668
:101B400002F0CCF808B10120EEE7102C07D20022F9
:101B50002146501E00F034F80548046001E00120E1
:101B6000E2E70020E0E70000840000248800002471
:101B70008000002408B500BF0648006840F002005D
:101B8000044908600846006800F00200009000BFA9
:101B900000BF08BDF44402580146084600280DDB8A
:101BA00000BF00BF00F01F0301229A4043099B00C1
:101BB00003F1E023C3F8002100BF00BF00BF70475E
:101BC0002DE9F05F80460D46164603F02BFC0746D4
:101BD00039462A46334601F00700C0F1070ABAF138
:101BE000040F02D94FF0040A01E0C0F1070AD14600
:101BF00000F1040ABAF1070F02D24FF0000A01E027
:101C0000A0F1030AD4464FF0010A0AFA09FAAAF130
:101C1000010A0AEA020A0AFA0CFA4FF0010B0BFA5F
:101C20000CFBABF1010B0BEA030B4AEA0B04214658
:101C3000404603F0FFFBBDE8F09F000000BF00F04E
:101C40000702064B19684FF6FF031940044B0B437C
:101C500043EA0221014B196000BF70470CED00E020
:101C60000000FA0570B5044615480068C0F380000E
:101C700048B91348006800F00700A04201D00120D5
:101C800070BD0020FCE70E48006820F007002043EC
:101C90000B490860FFF700FF054607E0FFF7FCFE71
:101CA000401BB0F57A7F01D90120E9E704480838E4
:101CB0000068C0F340300028F0D00020E0E70000CA
:101CC0000C48025810B501F081F905490968C1F3C3
:101CD0000211044A515C01F01F01C84010BD000010
:101CE00020440258C857000870B50146844D2D683D
:101CF00005F00303824D2D68C5F30530804D2D1D81
:101D00002D68C5F300147E4D14352D68C5F3CC0540
:101D100015FB04F501EE105AB8EE411AF0EE410A37
:101D200000286FD023B1012B4ED0022B6BD16BE07A
:101D3000734D283D2D68C5F340153DB3704D283DCA
:101D40002D68C5F3C1066F4D25FA06F201EE102A83
:101D5000F8EE411A01EE100AB8EE411A81EE812A1E
:101D60009FED691AC0EE811A654D10352D68C5F3D7
:101D7000080501EE105AB8EE411A31EE811AF7EE5D
:101D8000001A31EE211A22EE010A1CE001EE100ABF
:101D9000B8EE411ADFED5D1A81EE812A9FED5A1AE5
:101DA000C0EE811A564D10352D68C5F3080501EEB9
:101DB000105AB8EE411A31EE811AF7EE001A31EEE0
:101DC000211A22EE010A5BE001EE100AB8EE411A78
:101DD000DFED4F1A81EE812A9FED4B1AC0EE811A7A
:101DE000474D10352D68C5F3080501EE105AB8EEC1
:101DF000411A31EE811AF7EE001A31EE211A22EE65
:101E0000010A3DE077E01DE001EE100AB8EE411A4C
:101E10009FED402AC2EE011A9FED3B1A80EE812A07
:101E2000374D10352D68C5F3080501EE105AB8EE90
:101E3000411A32EE011AB7EE002A31EE021A21EEF3
:101E4000810A1DE001EE100AB8EE411ADFED301AEA
:101E500081EE812A9FED2C1AC0EE811A284D103593
:101E60002D68C5F3080501EE105AB8EE411A31EE9F
:101E7000811AF7EE001A31EE211A22EE010A00BF94
:101E800000BF1F4D10352D68C5F3462501EE105AD1
:101E9000B8EE411AF7EE001A31EE211AC0EE011A1F
:101EA000BCEEE11A81ED001A154D10352D68C5F311
:101EB000064501EE105AB8EE411AF7EE001A31EE5F
:101EC000211AC0EE011ABCEEE11A81ED011A0C4D87
:101ED00010352D68C5F3066501EE105AB8EE411AAB
:101EE000F7EE001A31EE211AC0EE011ABCEEE11A2B
:101EF00081ED021A03E000250D604D608D6070BD1C
:101F0000284402580090D003000000460024744C7E
:101F10000024744A20BCBE4B70B50146844D2D6828
:101F200005F00303824D2D68C5F30550804D2D1D2E
:101F30002D68C5F300247E4D1C352D68C5F3CC05F6
:101F400015FB04F501EE105AB8EE411AF0EE410A05
:101F500000286FD023B1012B4ED0022B6BD16BE048
:101F6000734D283D2D68C5F340153DB3704D283D98
:101F70002D68C5F3C1066F4D25FA06F201EE102A51
:101F8000F8EE411A01EE100AB8EE411A81EE812AEC
:101F90009FED691AC0EE811A654D18352D68C5F39D
:101FA000080501EE105AB8EE411A31EE811AF7EE2B
:101FB000001A31EE211A22EE010A1CE001EE100A8D
:101FC000B8EE411ADFED5D1A81EE812A9FED5A1AB3
:101FD000C0EE811A564D18352D68C5F3080501EE7F
:101FE000105AB8EE411A31EE811AF7EE001A31EEAE
:101FF000211A22EE010A5BE001EE100AB8EE411A46
:10200000DFED4F1A81EE812A9FED4B1AC0EE811A47
:10201000474D18352D68C5F3080501EE105AB8EE86
:10202000411A31EE811AF7EE001A31EE211A22EE32
:10203000010A3DE077E01DE001EE100AB8EE411A1A
:102040009FED402AC2EE011A9FED3B1A80EE812AD5
:10205000374D18352D68C5F3080501EE105AB8EE56
:10206000411A32EE011AB7EE002A31EE021A21EEC1
:10207000810A1DE001EE100AB8EE411ADFED301AB8
:1020800081EE812A9FED2C1AC0EE811A284D183559
:102090002D68C5F3080501EE105AB8EE411A31EE6D
:1020A000811AF7EE001A31EE211A22EE010A00BF62
:1020B00000BF1F4D18352D68C5F3462501EE105A97
:1020C000B8EE411AF7EE001A31EE211AC0EE011AED
:1020D000BCEEE11A81ED001A154D18352D68C5F3D7
:1020E000064501EE105AB8EE411AF7EE001A31EE2D
:1020F000211AC0EE011ABCEEE11A81ED011A0C4D55
:1021000018352D68C5F3066501EE105AB8EE411A70
:10211000F7EE001A31EE211AC0EE011ABCEEE11AF8
:1021200081ED021A03E000250D604D608D6070BDE9
:10213000284402580090D003000000460024744C4C
:102140000024744A20BCBE4B2DE9F0410446002512
:10215000A846206800F00060B0F1006F30D1606EDA
:1021600048B1B0F5801F0DD0B0F5001F10D0B0F50C
:10217000401F15D113E0F948006840F40030F749DA
:1021800008600FE00221201D02F092FA054609E0E6
:10219000022104F1240002F03DFB054602E001E0CB
:1021A000012500BF00BF55B9EC482430006820F479
:1021B0004010616E0843E9492431086000E0A846F8
:1021C000208800F48070B0F5807F2DD1606D0528E7
:1021D0001AD2DFE800F0030A10171800DF48006881
:1021E00040F40030DD49086010E00021201D02F0BD
:1021F0005FFA05460AE0002104F1240002F00AFB20
:10220000054603E002E001E0012500BF00BF55B92B
:10221000D2482430006820F00700616D0843CF49A0
:102220002431086000E0A846208800F40070B0F572
:10223000007F33D1A06D802817D003DC40B1402847
:102240001CD10CE0C02817D0B0F5807F16D114E067
:10225000C248006840F40030C049086010E0002126
:10226000201D02F025FA05460AE0002104F12400B1
:1022700002F0D0FA054603E002E001E0012500BFCC
:1022800000BF55B9B5482430006820F4E070A16D56
:102290000843B2492431086000E0A846208800F4D1
:1022A0008060B0F5806F38D1D4F8A400B0F5800F0D
:1022B00019D004DC50B1B0F5001F1DD10DE0B0F510
:1022C000C00F17D0B0F5000F16D114E0A348006876
:1022D00040F40030A149086010E00021201D02F008
:1022E000E7F905460AE0002104F1240002F092FA21
:1022F000054603E002E001E0012500BF00BF5DB933
:1023000096482C30006820F46000D4F8A4100843EC
:1023100092492C31086000E0A846208800F4006053
:10232000B0F5006F38D1D4F8A800B0F1007F19D013
:1023300004DC50B1B0F1807F1DD10DE0B0F1407FE1
:1023400017D0B0F1806F16D114E08448006840F4D3
:1023500000308249086010E00021201D02F0A8F939
:1023600005460AE0002104F1240002F053FA054674
:1023700003E002E001E0012500BF00BF5DB977483E
:102380002C30006820F0E060D4F8A81008437349AE
:102390002C31086000E0A846206800F00070B0F121
:1023A000007F27D1A06CA0B1102804D0202809D02C
:1023B00030280FD10CE06948006840F400306749CC
:1023C000086009E00221201D02F072F9054603E0D1
:1023D00002E001E0012500BF00BF55B95F48203091
:1023E000006820F03000A16C08435C49203108608F
:1023F00000E0A846208800F48050B0F5805F36D118
:10240000E06DB0F5005F19D004DC50B1B0F5805F2D
:102410001DD10DE0B0F5405F17D0B0F5804F16D15B
:1024200014E04E48006840F400304C49086010E069
:102430000021201D02F03CF905460AE0002104F1CC
:10244000240002F0E7F9054603E002E001E001257F
:1024500000BF00BF55B941482430006820F4E04077
:10246000E16D08433D492431086000E0A84620881A
:1024700000F40050B0F5005F34D1206EB0F5403F5D
:102480001DD007DC68B1B0F5803F0BD0B0F5003F40
:1024900018D10DE0B0F5802F12D0B0F5A02F11D1DA
:1024A0000FE011E00121201D02F002F905460BE0CA
:1024B000012104F1240002F0ADF9054604E003E037
:1024C00002E001E0012500BF00BF55B923482430D8
:1024D000006820F4E020216E084320492431086080
:1024E00000E0A846208800F48040B0F5804F38D145
:1024F000D4F8AC00B0F1405F1DD007DC68B1B0F19A
:10250000805F0BD0B0F1005F18D10DE0B0F1804FCB
:1025100012D0B0F1A04F11D10FE011E00121201D28
:1025200002F0C6F805460BE0012104F1240002F098
:1025300071F9054604E003E002E001E0012500BF77
:1025400000BF6DB905482C30006820F0E040D4F899
:10255000AC10084301492C31086002E02C440258B9
:10256000A846208800F40040B0F5004F26D1E06E68
:1025700098B1B0F1805F03D0B0F1005F0ED106E0FA
:10258000F948006840F40030F749086008E001218C
:10259000201D02F08DF8054602E001E0012500BF94
:1025A00000BF55B9F0482430006820F04050E16E7B
:1025B0000843ED492431086000E0A846206800F097
:1025C0008070B0F1807F27D1606CA0B1012804D069
:1025D000022809D003280FD10CE0E348006840F43A
:1025E0000030E149086009E00221201D02F060F896
:1025F000054603E002E001E0012500BF00BF55B938
:10260000D9482030006820F00300616C0843D649A7
:102610002031086000E0A846206800F48000B0F592
:10262000800F7DD1D148006840F48070CF490860A8
:10263000FFF732FA064606E0FFF72EFA801B642801
:1026400001D9032505E0C948006800F4807000281E
:10265000F2D000BF85BBC4484430006800F440702D
:10266000B4F8B01001F44071884213D0BE48443031
:10267000006820F44077BC484430006840F4803063
:10268000B949443108600846006820F48030086089
:1026900008460760D4F8B000B0F5807F15D1FFF789
:1026A000FBF9064609E0FFF7F7F9801B41F2883194
:1026B000884202D9032507E038E0AB48443000687F
:1026C000C0F340000028EED000BF55BB00BFB4F8F7
:1026D000B00000F44070B0F5407F0ED1A2481C3825
:1026E000006820F47C51A24AD4F8B000104041EABE
:1026F00010109D491C39086007E09B481C38006891
:1027000020F47C5098491C39086097484430006890
:10271000B4F8B010C1F30B0108439349443101E010
:1027200005E001E0086002E0A84600E0A846207845
:1027300000F0010068B3A06F182819D005DC48B17B
:10274000082808D0102816D10BE0202811D02828FE
:1027500011D10FE011E00121201D01F0A9FF054674
:102760000BE0012104F1240002F054F8054604E0D6
:1027700003E002E001E0012500BF00BF55B97A483F
:102780002830006820F03800A16F084376492831CE
:10279000086000E0A846207800F00200022828D156
:1027A000606F062815D2DFE800F003040A11121347
:1027B00011E00121201D01F07BFF05460BE0012106
:1027C00004F1240002F026F8054604E003E002E0EC
:1027D00001E0012500BF00BF55B9634828300068FB
:1027E00020F00700616F08435F492831086000E06E
:1027F000A846207800F0040004282AD1D4F89000DC
:10280000062815D2DFE800F003040A11121311E0C4
:102810000121201D01F04CFF05460BE0012104F1D0
:10282000240001F0F7FF054604E003E002E001E0C8
:10283000012500BF00BF5DB94B482C30006820F077
:102840000700D4F89010084347492C31086000E095
:10285000A846207800F02000202836D1D4F88C003B
:10286000B0F1405F1DD007DC68B1B0F1805F0BD0E4
:10287000B0F1005F18D10DE0B0F1804F12D0B0F18F
:10288000A04F11D10FE011E00021201D01F010FF39
:1028900005460BE0022104F1240001F0BBFF0546D0
:1028A00004E003E002E001E0012500BF00BF5DB9E4
:1028B0002D482830006820F0E040D4F88C10084300
:1028C00029492831086000E0A846207800F040003F
:1028D000402836D1D4F89800B0F5406F1DD007DC01
:1028E00068B1B0F5806F0BD0B0F5006F18D10DE076
:1028F000B0F5805F12D0B0F5A05F11D10FE011E00C
:102900000021201D01F0D4FE05460BE0022104F158
:10291000240001F07FFF054604E003E002E001E04F
:10292000012500BF00BF5DB90F482C30006820F4BE
:10293000E050D4F8981008430B492C31086000E0AF
:10294000A846207800F0800080283AD1D4F89C0076
:10295000B0F5C04F23D00DDC98B1B0F5005F11D0B9
:10296000B0F5804F1ED113E02C44025800480258A5
:10297000FFFCFF0FB0F5004F12D0B0F5204F11D182
:102980000FE011E00021201D01F092FE05460BE052
:10299000022104F1240001F03DFF054604E003E0BC
:1029A00002E001E0012500BF00BF4DB9BE4800684C
:1029B00020F46040D4F89C100843BB49086000E054
:1029C000A846207800F00800082817D1D4F8800025
:1029D000B0F5805F07D1022104F1240001F01AFF55
:1029E00008B14FF00108B048001F006820F44050C3
:1029F000D4F880100843AC49091F0860207800F023
:102A00001000102815D1D4F89400B0F5807F07D1BC
:102A1000022104F1240001F0FDFE08B14FF001088D
:102A2000A148006820F44070D4F8941008439E49EF
:102A30000860206800F40020B0F5002F26D1D4F8FB
:102A4000A00030B1B0F5803F09D0B0F5003F0ED105
:102A50000CE00021201D01F02BFE054609E00221BB
:102A600004F1240001F0D6FE054602E001E0012554
:102A700000BF00BF4DB98C48006820F44030D4F846
:102A8000A01008438849086000E0A846206800F4C8
:102A90008020B0F5802F2DD1D4F88400B0F5801FB0
:102AA00006D0B0F5001F0CD0B0F5401F11D10FE0DB
:102AB0007D482C38006840F400307B492C39086090
:102AC00009E0012104F1240001F0A4FE054602E022
:102AD00001E0012500BF00BF5DB97348001F006819
:102AE00020F44010D4F8841008436F49091F08608F
:102AF00000E0A846206800F48030B0F5803F24D183
:102B0000E06C18B1B0F5803F0FD108E066482C3872
:102B1000006840F4003064492C39086007E0022165
:102B2000201D01F0C5FD054601E0012500BF00BFE5
:102B300055B95D480C38006820F48030E16C0843DA
:102B400059490C39086000E0A846206800F00050A0
:102B5000B0F1005F07D1022104F1240001F05AFE18
:102B600008B14FF00108206800F40030B0F5003FD4
:102B700027D1E06FA0B1B0F5807F06D0B0F5007F1F
:102B80000CD0B0F5407F0CD109E047482C380068E4
:102B900040F4003044492C39086004E003E002E0CE
:102BA00001E0012500BF00BF55B93F48001F006884
:102BB00020F44070E16F08433B49091F086000E0C2
:102BC000A846206800F48010B0F5801F09D136486F
:102BD0000838006820F00040216F08433249083966
:102BE0000860206800F08050B0F1805F0AD12E4864
:102BF0004838006820F48040D4F8B41008432A49CB
:102C000048390860206800F40010B0F5001F09D1B1
:102C100025480838006820F08070A16E08432249DA
:102C200008390860206800F08040B0F1804F11D171
:102C300000BF1D484838006820F400401A49483950
:102C4000086008460068D4F8B810084316494839A7
:102C5000086000BF206800F00040B0F1004F09D1CB
:102C600011480C38006820F04050216D08430E498F
:102C70000C390860206800F40000B0F5000F0AD19C
:102C80000948001F006820F44000D4F88810084369
:102C90000549091F0860B8F1000F02D10020BDE806
:102CA000F0810120FBE70000584402582DE9F04173
:102CB00004460D4614B90120BDE8F081BD48006806
:102CC00000F00F00A8420ED2BA48006820F00F00B2
:102CD0002843B84908600846006800F00F00A84281
:102CE00001D00120E8E7207800F0040004280ED18C
:102CF000B1492069096801F07001884207D9AE48DE
:102D0000006820F0700021690843AB490860207812
:102D100000F00800082811D1A749091D6069096859
:102D200001F07001884209D9A348001D006820F015
:102D3000700061690843A049091D0860207800F00F
:102D40001000102811D19C49091DA069096801F4DF
:102D5000E061884209D99848001D006820F4E060CD
:102D6000A16908439449091D0860207800F02000FB
:102D7000202811D190490831E069096801F07001FB
:102D8000884209D98C480830006820F07000E16959
:102D90000843894908310860207800F002000228C1
:102DA0000ED18549E068096801F00F01884207D912
:102DB0008148006820F00F00E16808437E49086000
:102DC000207800F00100002850D07B48006820F4F3
:102DD0007060A1680843784908606068022807D1DC
:102DE000754818380068C0F34040F8B9012063E71F
:102DF0006068032807D1704818380068C0F3406045
:102E0000A0B9012058E76068012807D16A4818383E
:102E10000068C0F3002048B901204DE76648183823
:102E20000068C0F3800008B9012045E7624808380F
:102E3000006820F00700616808435F4908390860AE
:102E4000FEF72AFE064608E0FEF726FE801B41F24A
:102E50008831884201D903202EE757480838006896
:102E600000F038006168B0EBC10FEDD1207800F0C0
:102E7000020002280ED15049E068096801F00F01F4
:102E8000884207D24C48006820F00F00E1680843F0
:102E9000494908604748006800F00F00A8420ED971
:102EA0004448006820F00F00284342490860084663
:102EB000006800F00F00A84201D00120FCE6207855
:102EC00000F0040004280ED13B492069096801F094
:102ED0007001884207D23848006820F070002169EC
:102EE000084335490860207800F00800082811D10F
:102EF0003149091D6069096801F07001884209D2F1
:102F00002D48001D006820F07000616908432A49BF
:102F1000091D0860207800F01000102811D1264902
:102F2000091DA069096801F4E061884209D22248BC
:102F3000001D006820F4E060A16908431E49091DD6
:102F40000860207800F02000202811D11A490831AB
:102F5000E069096801F07001884209D2164808301A
:102F6000006820F07000E1690843134908310860E7
:102F700000F076F810490968C1F303210F4A515C4B
:102F800001F01F0120FA01F70B48006800F00F0064
:102F90001146085C00F01F0027FA00F0084908609D
:102FA0000848076008480068FEF7B8FD80464046BC
:102FB00082E600000020005218440258C85700085A
:102FC0008C000024880000248000002410B500F04C
:102FD00047F80D490968C1F303210C4A515C01F01F
:102FE0001F0120FA01F40848006800F00F001146A4
:102FF000085C00F01F0024FA00F00549086005484D
:1030000004600846006810BD18440258C8570008FC
:103010008C0000248800002400B5FFF7D7FF054985
:103020000968C1F30211044A515C01F01F01C84054
:1030300000BD00001C440258C857000800B5FFF747
:10304000C5FF05490968C1F30221044A515C01F03A
:103050001F01C84000BD00001C440258C8570008AA
:10306000F0B5824E366806F0380636B1082E15D017
:10307000102E15D0182E7DD114E07C4E103E3668EF
:10308000C6F3401646B1794E103E3668C6F3C10706
:10309000774E26FA07F000E07548E5E07548E3E072
:1030A0007548E1E0714E1836366806F003046F4E3D
:1030B00018363668C6F305116C4E1C36366806F0B5
:1030C00001056A4E24363668C6F3CC0616FB05F6B3
:1030D00001EE106AB8EE410A002971D024B1012C2A
:1030E00050D0022C6DD16DE0604E103E3668C6F3B4
:1030F00040163EB35D4E103E3668C6F3C1075C4EC7
:1031000026FA07F301EE103AF8EE411A01EE101A12
:10311000B8EE411A81EE812A9FED581AC0EE011ACD
:10312000524E20363668C6F3080601EE106AB8EE35
:10313000411A31EE811AF7EE001A31EE211A62EED1
:10314000010A1EE001EE101AB8EE411ADFED4C1A2A
:1031500081EE812A9FED491AC0EE011A434E2036B6
:103160003668C6F3080601EE106AB8EE411A31EE71
:10317000811A00E076E0F7EE001A31EE211A62EED5
:10318000010A5BE001EE101AB8EE411A9FED3D2AEC
:10319000C2EE011A9FED391A80EE012A334E203615
:1031A0003668C6F3080601EE106AB8EE411A32EE30
:1031B000011AB7EE002A31EE021A61EE810A3DE0F3
:1031C0004EE01DE001EE101AB8EE411ADFED2E1AA6
:1031D00081EE812A9FED291AC0EE011A234E203676
:1031E0003668C6F3080601EE106AB8EE411A31EEF1
:1031F000811AF7EE001A31EE211A62EE010A1DE083
:1032000001EE101AB8EE411A9FED1E2AC2EE011A05
:103210009FED1A1A80EE012A144E20363668C6F346
:10322000080601EE106AB8EE411A32EE011AB7EE46
:10323000002A31EE021A61EE810A00BF00BF0B4E78
:1032400020363668C6F34626721C01EE102AB8EE08
:10325000411AC0EE811ABCEEE11A11EE100A00E02C
:10326000002001E0034800BF00BFF0BD1044025839
:103270000090D00300093D0040787D010000004629
:103280000024744C0024744A20BCBE4B2DE9F04746
:10329000044614B90120BDE8F087207800F0010051
:1032A000002870D0FE48006800F03808FC4818304C
:1032B000D0F80090B8F1100F06D0B8F1180F0FD168
:1032C00009F0030002280BD1F54810380068C0F35C
:1032D000404000286AD06068002867D10120DAE702
:1032E00000BF6068B0F5803F08D1ED481038006835
:1032F00040F48030EA49103908602EE0606868B90F
:10330000E7481038006820F48030E549103908603B
:103310000846006820F4802008601EE06068B0F570
:10332000A02F0DD1DE481038006840F48020DC4921
:10333000103908600846006840F4803008600CE0EE
:10334000D7481038006820F48030D549103908601B
:103350000846006820F48020086000BF606898B1CB
:10336000FEF79AFB054606E0FEF796FB401B642835
:1033700001D903208FE7CA4810380068C0F34040E5
:103380000028F1D012E012E0FEF786FB054606E0C9
:10339000FEF782FB401B642801D903207BE7C0486D
:1033A00010380068C0F340400028F1D100BF2078F9
:1033B00000F0020002287BD1B948006800F038080C
:1033C000B7481830D0F80090B8F1000F05D0B8F128
:1033D000180F3AD109F00300B0BBB14810380068AB
:1033E000C0F3800018B1E06808B9012053E700BFBE
:1033F000FEF74CFB41F20301884219D820694028AE
:103400000AD1A7480C38006820F47C3040F4003022
:10341000A3490C39086016E0A1480C38006820F474
:103420007C30216940EA01309D490C3908600AE08E
:103430009B480C38006820F0FE40217C40EA016087
:1034400097490C39086067E0FFE7E06888B3944863
:103450001038006820F01900E168084390491039DD
:103460000860FEF719FB054606E0FEF715FB401B5A
:10347000022801D903200EE7894810380068C0F3FC
:1034800080000028F1D000BFFEF700FB41F20301ED
:1034900088421BD8206940280CD181480C3800682C
:1034A00020F47C3040F400307D490C39086018E08D
:1034B00033E017E07A480C38006820F47C3021694A
:1034C00040EA013076490C3908600AE074480C384B
:1034D000006820F0FE40217C40EA016070490C3910
:1034E000086019E06E481038006820F001006C494F
:1034F00010390860FEF7D0FA054606E0FEF7CCFA70
:10350000401B022801D90320C5E665481038006831
:10351000C0F380000028F1D100BF207800F0100037
:1035200010287CD15E48006800F038085C481830EC
:10353000D0F80090B8F1080F06D0B8F1180F3DD1BF
:1035400009F00300012839D1554810380068C0F34C
:10355000002020B1E069802801D001209BE600BF57
:10356000FEF794FA41F2030188421AD8206A202813
:103570000AD14B480C38006820F0F84040F08040F9
:1035800047490C39086018E045480C38006820F0BD
:10359000F84094F8201040EA816041490C390860F5
:1035A0000BE03F48001F006820F07C5094F820108A
:1035B00040EA01603A49091F086066E0E06978B3B3
:1035C00037481038006840F08000354910390860ED
:1035D000FEF762FA054606E0FEF75EFA401B022897
:1035E00001D9032057E62E4810380068C0F30020A8
:1035F0000028F1D000BFFEF749FA41F203018842EA
:103600001CD8206A20280CD125480C38006820F0EE
:10361000F84040F0804022490C3908601AE035E05B
:1036200019E01F480C38006820F0F84094F820108A
:1036300040EA81601A490C3908600BE01848001F05
:10364000006820F07C5094F8201040EA0160144992
:10365000091F086019E012481038006820F0800047
:103660000F4910390860FEF717FA054606E0FEF725
:1036700013FA401B022801D903200CE60848103831
:103680000068C0F300200028F1D100BF207800F0CE
:103690000800082834D16069D8B10148643001E0DD
:1036A00010440258006840F00100EF490860FEF73E
:1036B000F3F9054606E0FEF7EFF9401B022801D9B1
:1036C0000320E8E5E8480068C0F340000028F2D095
:1036D00016E0E548006820F00100E3490860FEF7C5
:1036E000DBF9054606E0FEF7D7F9401B022801D9B1
:1036F0000320D0E5DC480068C0F340000028F2D188
:10370000207800F02000202836D1A069D0B1D6481A
:103710007438006840F48050D34974390860FEF76B
:10372000BBF9054606E0FEF7B7F9401B022801D9B0
:103730000320B0E5CC4874380068C0F3403000285E
:10374000F1D019E0C8487438006820F48050C649A8
:1037500074390860FEF7A0F9054606E0FEF79CF90B
:10376000401B022801D9032095E5BF487438006842
:10377000C0F340300028F1D1207800F00400042884
:103780007DD1BA48006840F48070B8490860FEF7FF
:1037900083F9054606E0FEF77FF9401B642801D94E
:1037A000032078E5B148006800F480700028F2D06A
:1037B00000BFA068012808D1AB48001F006840F096
:1037C0000100A949091F08602DE0A06868B9A64852
:1037D000001F006820F00100A349091F0860084687
:1037E000006820F0040008601DE0A06805280DD1E5
:1037F0009D48001F006840F004009B49091F0860B5
:103800000846006840F0010008600CE09648001F80
:10381000006820F001009449091F0860084600680C
:1038200020F00400086000BFA068A0B1FEF734F9E2
:10383000054608E0FEF730F9401B41F28831884226
:1038400001D9032027E58848001F0068C0F3400025
:103850000028EFD013E0FEF71FF9054608E0FEF759
:103860001BF9401B41F28831884201D9032012E53F
:103870007D48001F0068C0F340000028EFD1606A57
:1038800000287DD078486438006800F03800182897
:1038900077D0606A022875D173487438006820F0C8
:1038A0008070714974390860FEF7F6F8054606E045
:1038B000FEF7F2F8401B022801D90320EBE46A4826
:1038C00074380068C0F340600028F1D100BFD4E92B
:1038D0000A1041EA001064494C39096840F2F33299
:1038E0009143084360494C390860208E401EC0F364
:1038F0000800616B491E4FF47E4202EA41210843F1
:10390000218F491ED20102EA014108433C21095D91
:10391000491E120202EA0161084353494439086012
:1039200000BF081F006820F00100091F08604E4812
:10393000403800684FF6F8718843A16C40EAC10036
:1039400049494039086048484838006820F00C0070
:10395000216C08434449483908600846006820F053
:103960000200616C08434049483908600846006815
:1039700040F4803008600846006840F4003002E0FF
:103980006FE041E025E008600846006840F48020D0
:1039900008600846006840F001000860324874384A
:1039A000006840F08070304974390860FEF774F8A0
:1039B000054606E0FEF770F8401B022801D90320F7
:1039C00069E4294874380068C0F340600028F1D0E9
:1039D00047E025487438006820F080702249743927
:1039E0000860FEF759F8054606E0FEF755F8401B5B
:1039F000022801D903204EE41B4874380068C0F344
:103A000040600028F1D12CE017484C380768164870
:103A100044380668606A012821D007F00301A06AD3
:103A200081421CD1C7F30511E06A884217D1C6F361
:103A30000801206B401E814211D1606B401EC6F30D
:103A4000462188420BD1A06B401EC6F30641884236
:103A500005D1E06B401EC6F30661884201D001200B
:103A600019E4002017E4000074440258004802588A
:103A700070B5044600260CB9012070BD606A00B91B
:103A800000BF0021A1625649206888420CD05549E8
:103A90002068884208D054492068884204D0E068F1
:103AA0000F2801D90120E8E7204600F065FF054610
:103AB0004B492068884209D04A492068884205D08D
:103AC00049492068884201D0082D0DD84449206812
:103AD000884207D043492068884203D04249206881
:103AE000884203D1102D01D90120C6E794F8810046
:103AF00028B9002084F88000204600F077F80220E2
:103B000084F881002068006820F0010021680860C6
:103B1000A069B0F1806F11D16068B0F5800F01D15C
:103B2000A06B28B1606848B9A06BB0F1805F05D187
:103B30002068006840F4805021680860A16AE0694C
:103B400008433043E16B0843E1680843216888601B
:103B5000616A606B0843A16B0843A169084321694E
:103B6000084361690843216A084361680843E16CBE
:103B70000843A1680843A16C0843A16D084321686C
:103B8000C860606878B92068806820F4C05040F44C
:103B90000060216888602068806820F4C06040F47C
:103BA0008060216888602068006D20F00100216835
:103BB0000865606800F48000B0F5800F07D12068C8
:103BC000C06820F00040616D08432168C860002093
:103BD000C4F88400012084F8810000204DE7000033
:103BE0000030014000380040003C004010B5B6B045
:103BF0000446142131A8FCF76BFCBC2102A8FCF799
:103C000067FC3249206888425ED1801402901920F6
:103C100003904FF4F071049108210591022106915F
:103C200007910021089109910A914FF48050199051
:103C300002A8FEF789FA08B1FCF745FD00BF244849
:103C4000006840F48040224908600846006800F49B
:103C50008040019000BF00BF00BF1D4808380068C9
:103C600040F004001A49083908600846006800F06E
:103C70000400019000BF00BF00BF0846006840F08C
:103C8000010008600846006800F00100019000BFD4
:103C900000BF0620319002203290002033903490F3
:103CA0000520359031A90B48FDF7DEFD4FF400707B
:103CB00031900220329000203390349005203590CE
:103CC00031A90548FDF7D0FD36B010BD00380040E1
:103CD000E8440258000802580000025870B5044633
:103CE0002546681EB0F1807F01D301200FE0681ED9
:103CF0004FF0E02148610F214FF0FF3001F09AFBB7
:103D000000204FF0E021886107200861002070BD8D
:103D1000014600BF91F88000012801D102207047C0
:103D2000012081F8800000BF2420C1F884000868C9
:103D300002680868006820F001000B68186022F033
:103D4000005200204866086802602020C1F8840004
:103D500000BF002081F8800000BF00BFDFE7704790
:103D6000704770B504460D4600BF94F880000128E6
:103D700001D1022070BD012084F8800000BF242002
:103D8000C4F88400206806682068006820F00100FC
:103D9000216808602068806820F0606028432168FE
:103DA0008860204600F0EEFE206806602020C4F8FF
:103DB000840000BF002084F8800000BF00BFD9E766
:103DC00070B504460D4600BF94F88000012801D16B
:103DD000022070BD012084F8800000BF2420C4F8B8
:103DE0008400206806682068006820F001002168CF
:103DF00008602068806820F060402843216888605F
:103E0000204600F0BFFE206806602020C4F8840031
:103E100000BF002084F8800000BF00BFD9E77047D2
:103E2000704770472DE9F04704462068C56920684F
:103E300006682068876840F60F0005EA0009B9F1B6
:103E4000000F0FD105F0200060B106F0200010B97E
:103E500007F0805030B1206F10B12046216F8847A5
:103E6000BDE8F087B9F1000F7ED0DE48384018B9C0
:103E7000DD4830400028F7D005F0010058B106F4C5
:103E8000807040B1012021680862D4F88C0040F0B5
:103E90000100C4F88C0005F0020058B107F00100E1
:103EA00040B1022021680862D4F88C0040F0040080
:103EB000C4F88C0005F0040058B107F0010040B1CF
:103EC000042021680862D4F88C0040F00200C4F895
:103ED0008C0005F0080070B106F0200010B9C14850
:103EE000384040B1082021680862D4F88C0040F0C6
:103EF0000800C4F88C0005F4006060B106F0806032
:103F000048B14FF4006021680862D4F88C0040F09A
:103F10002000C4F88C00D4F88C00002844D005F0B0
:103F2000200050B106F0200010B907F0805020B1F9
:103F3000206F10B12046216F8847D4F88CA02068EC
:103F4000806800F04000402802D00AF0280028B322
:103F5000204600F007FF2068806800F040004028FD
:103F600018D12068806800E01FE020F04000216840
:103F70008860E06F50B19D48E16F0865E06FFCF725
:103F80008DFF88B1E06F016D88470DE02046FFF797
:103F900048FF09E02046FFF744FF05E02046FFF711
:103FA00040FF0020C4F88C005AE7E06E012872D16F
:103FB00005F0100000286ED006F010000028FAD09E
:103FC0001020216808622068806800F040004028C6
:103FD0007ED1E06F00688649884258D0E06F006863
:103FE00083491831884252D0E06F006880493031EF
:103FF00088424CD0E06F00687D494831884246D005
:10400000E06F00687A496031884240D0E06F006814
:104010007749783188423AD0E06F0068744990312E
:10402000884234D0E06F00687149A83188422ED0B0
:10403000E06F00686F49884229D0E06F00686D49E1
:104040001831884223D0E06F00686A4930318842D5
:104050001DD0E06F006867494831884217D0E06F93
:10406000006864496031884211D0E06F006861499E
:10407000783188420BD0E06F00685E499031884209
:1040800005D0E06F00685B49A831884204D1E06F39
:104090000068406803E068E0E06F006840681FFA6D
:1040A00080F8B8F1000F35D0B4F85C00404531DD40
:1040B000A4F85E80E06FC069B0F5807F21D02068F1
:1040C000006820F48070216808602068806800E043
:1040D00021E020F00100216888602068806820F0DD
:1040E0004000216888602020C4F888000020E06635
:1040F0002068006820F0100021680860E06FFCF77D
:104100005FFCB4F85C00B4F85E20801A81B22046EF
:10411000FFF725FEA4E634F85C0F6188401A1FFA09
:1041200080F860885C3CF8B1B8F1000F1CD02068C2
:10413000006820F490702168086020688068294930
:10414000C9430840216888602020C4F88800002006
:10415000E06620672068006820F010002168086091
:1041600041462046FFF7FBFD7AE605F4801050B18A
:1041700007F4800038B14FF48010216808622046AF
:10418000FFF74EFE6CE605F0800058B106F08000A7
:1041900010B907F4000028B1606F10B12046616FBC
:1041A00088475DE605F0400030B106F0400018B1E8
:1041B000204600F0F5FD53E605F4000030B106F0AE
:1041C000804018B12046FFF72AFE49E605F08070CE
:1041D00030B106F0004018B12046FFF7C1FD3FE6C0
:1041E00000BF3DE601000010200100044B4D000817
:1041F000100002401004024010B504460CB9012022
:1042000010BDA06900B100E000BFD4F8840028B957
:10421000002084F88000204600F02AF82420C4F80A
:1042200084002068006820F00100216808602046B2
:1042300000F0C8FD012800D1E2E7A06A10B12046D5
:1042400000F0CCFC2068406820F490402168486071
:104250002068806820F02A00216888602068006853
:1042600040F0010021680860204600F033FDC7E7F8
:1042700010B5B6B00446142131A8FCF729F9BC21C9
:1042800002A8FCF725F940492068884235D1022070
:10429000029000201F9002A8FDF756FF08B1FCF71E
:1042A00012FA00BF3948006840F40020374908601E
:1042B0000846006800F40020019000BF00BF00BF66
:1042C00032480838006840F0080030490839086072
:1042D0000846006800F00800019000BF00BF0320FE
:1042E0003190022032900020339034900820359095
:1042F00031A92748FDF7B8FA43E0264920688842EB
:104300003FD1012002900020209002A8FDF71CFF61
:1043100008B1FCF7D8F900BF1C480830006840F02D
:1043200010001A49083108600846006800F01000C3
:10433000019000BF00BF00BF14480838006840F07B
:1043400002001249083908600846006800F00200BF
:10435000019000BF00BF4FF44040319002203290E6
:104360000020339034900420359031A90A48FDF79D
:104370007BFA002211462520FDF722FC2520FDF7BF
:104380000BFC36B010BD0000004C0040E844025861
:10439000000C02580010014000040258704700BF92
:1043A000FEE7000010B52048204908604FF4407037
:1043B000886000211D48C160012101740021417401
:1043C000012181744161082181611F21C16108219E
:1043D000016201214162082181621F21C16208211D
:1043E00001630021416301218163C16301640421F0
:1043F0004164022181640421C16401210165042119
:104400004165022181650121C165102101660021FC
:10441000416612218166FDF74FF808B1FCF753F9A8
:104420000248FDF707FA10BD00A00040CC000024B0
:1044300000B587B0142102A8FCF74AF800BF47482E
:10444000006840F01000454908600846006800F028
:104450001000019000BF00BF00BF0846006840F098
:10446000800008600846006800F08000019000BFEE
:1044700000BF00BF0846006840F00400086008461E
:10448000006800F00400019000BF00BF00BF0846B4
:10449000006840F0010008600846006800F0010074
:1044A000019000BF00BF00BF0846006840F0020056
:1044B00008600846006800F00200019000BF00BFDD
:1044C00000BF0846006840F0080008600846006821
:1044D00000F00800019000BF00BF01220421204825
:1044E000FDF7CEFA002238211D48FDF7C9FA002257
:1044F00001211C48FDF7C4FA002210211A48FDF7DB
:10450000BFFA3C2002900120039000200490059007
:1045100002A91348FDF7A8F901200290039000209A
:104520000490059002A90F48FDF79EF91020029013
:104530000120039000200490059002A90A48FDF78D
:1045400093F94FF47040029000200390049002A968
:104550000348FDF789F907B000BD0000E0440258A8
:1045600000100258000802580000025810B5154803
:10457000154908604FF480004860002112488160AE
:104580000721C1600021016141614FF080618161BB
:104590008900C1610021016241628162C1624FF004
:1045A0008041416300218163C1630164416481648E
:1045B000C164016541658165FFF75AFA08B1FCF7EE
:1045C00082F810BD003800406C01002410B5184876
:1045D000184908604FF4E1304860002115488160B7
:1045E000C16001610C21416100218161C1610162F1
:1045F000416200200F4988620846FFF7FDFD08B1BF
:10460000FCF761F800210B48FFF7DAFB08B1FCF773
:104610005AF800210748FFF7A4FB08B1FCF753F84C
:104620000448FFF775FB08B1FCF74DF810BD00001A
:10463000004C0040F401002410B5184818490860E7
:104640004FF4E1304860002115488160C16001618C
:104650000C21416100218161C16101624162002040
:104660000F4988620846FFF7C7FD08B1FCF72BF831
:1046700000210B48FFF7A4FB08B1FCF724F8002148
:104680000748FFF76EFB08B1FCF71DF80448FFF779
:104690003FFB08B1FCF717F810BD00000010014007
:1046A0008402002400BFFEE700BFFEE77047000061
:1046B0002DE9F04104460E4600275548006800F0F9
:1046C0000300032802D10120BDE8F08150482838BA
:1046D000006820F080604E4928390860FDF7DCF959
:1046E000054606E0FDF7D8F9401B022801D9032052
:1046F000EAE7474828380068C0F3C0600028F1D1D5
:1047000000BF4348006820F47C30216840EA013053
:104710003F490860A088401EC0F30800A168491EF8
:104720004FF47E4202EA41210843A189491ED20189
:1047300002EA01410843217C491E120202EA01619A
:10474000084333491031086000BF3148001D00683C
:1047500020F0C000616908432D49091D0860084622
:10476000006820F02000A16908432949091D08605C
:104770000846006820F010000860254814300068E2
:104780004FF6F8718843E16940EAC10020491431CD
:1047900008601F48001D006840F010001C49091DFA
:1047A00008602EB90846006840F40020086012E056
:1047B000012E08D11648001D006840F480101449ED
:1047C000091D086007E01248001D006840F4001051
:1047D0000F49091D08600E482838006840F08060C5
:1047E0000B4928390860FDF757F9054606E0FDF743
:1047F00053F9401B022801D9032065E704482838F3
:104800000068C0F3C0600028F1D038465CE70000C3
:10481000284402582DE9F04104460E460027554829
:10482000006800F00300032802D10120BDE8F081F8
:1048300050482838006820F080504E4928390860D8
:10484000FDF72AF9054606E0FDF726F9401B022888
:1048500001D90320EAE7474828380068C0F34070D0
:104860000028F1D100BF4348006820F07C70218807
:1048700040EA01503F490860A088401EC0F308008C
:10488000A168491E4FF47E4202EA41210843A189F2
:10489000491ED20102EA01410843217C491E12024D
:1048A00002EA0161084333491831086000BF31480A
:1048B000001D006820F44060616908432D49091D0E
:1048C00008600846006820F40070A169084329497F
:1048D000091D08600846006820F4807008602548BB
:1048E0001C3000684FF6F8718843E16940EAC10066
:1048F00020491C3108601F48001D006840F480708A
:104900001C49091D08602EB90846006840F4800063
:10491000086012E0012E08D11648001D006840F41E
:1049200000001449091D086007E01248001D0068D6
:1049300040F080700F49091D08600E482838006853
:1049400040F080500B4928390860FDF7A5F805466E
:1049500006E0FDF7A1F8401B022801D9032065E716
:10496000044828380068C0F340700028F1D0384669
:104970005CE700002844025810B501460124C86BCA
:1049800004EB5013C868421CD01DC20802FB03F0A0
:1049900010BD704710B5FDF785F810BD00B59DB08E
:1049A0004C210AA8FBF794FD202102A8FBF790FDFB
:1049B0000220FDF757F900BF002001902D48006844
:1049C00040F440402B4908600846006800F440402D
:1049D00001902948006840F0010027490860084616
:1049E000006800F00100019000BF00BF00BF214837
:1049F000006800F40050B0F5005FF8D11F4800686F
:104A000020F00300801C1D49086001200A9000046A
:104A10000B90022013900221149105211591C021C1
:104A2000169102211791182118910221199108213C
:104A30001A9100211B911C910AA8FEF727FC08B1CE
:104A4000FBF741FE3F2002900320039000200490DA
:104A50000820059040200690079000010890402013
:104A60000990042102A8FEF721F908B1FBF72BFEFB
:104A70001DB000BD184802582C04005828440258A4
:104A80003648006840F470003449086034480068D3
:104A900000F00F00072806D23148006820F00F0010
:104AA000C01D2F4908602F48006840F001002D49C3
:104AB000086000202B49103108602A4800682A4904
:104AC0000840284908602648006800F00F000728C1
:104AD00006D92348006820F00F00C01D2049086057
:104AE0000020204918310860091D0860091D086070
:104AF0001E481C49283108601D48091D08601D48D2
:104B0000091D08600020091D08601A48091D086079
:104B10000020091D08601748091D08600020091DB4
:104B200008601048006820F480200E4908600020CA
:104B30000C4960310860104800686FF30F00B0F155
:104B4000005F02D201200D49086043F2D2000C49F7
:104B500008604803014980390860704788ED00E02B
:104B600000200052004402587FEDF6EA00020202E3
:104B70000000FF01800201010010005C088100516B
:104B80000040005270B5456E2DB90125A0F86A505D
:104B9000A0F868501CE0102310240568AD68C5F328
:104BA00042610568AD686A0F0A4DAD5C15FB04F5FE
:104BB000094EB65C95FBF6F5A0F86A50054D6D5CA4
:104BC00015FB03F5044E765C95FBF6F5A0F86850EE
:104BD00070BD0000B8570008C057000890F82810B2
:104BE00001F0010139B10168496821F40031C26A5C
:104BF00011430268516090F8281001F00201022967
:104C000007D10168496821F48031026B11430268C1
:104C1000516090F8281001F00401042907D10168BF
:104C2000496821F48021426B11430268516090F879
:104C3000281001F00801082907D10168496821F40A
:104C40000041826B11430268516090F8281001F016
:104C50001001102907D10168896821F48051C26BC5
:104C600011430268916090F8281001F0200120297A
:104C700007D10168896821F40051026C1143026870
:104C8000916090F8281001F04001402913D101688B
:104C9000496821F48011426C114302685160416CF3
:104CA000B1F5801F07D10168496821F4C001826C09
:104CB00011430268516090F8281001F080018029AA
:104CC00007D10168496821F40021C26C11430268D0
:104CD0005160704738B504460020C4F88C00FCF7DA
:104CE000DBFE05462068006800F0080008280CD1AB
:104CF0006FF07E402B4600224FF4001100902046BA
:104D000000F026FB08B1032038BD2068006800F0E1
:104D1000040004280CD16FF07E402B4600224FF493
:104D200080010090204600F013FB08B10320EBE760
:104D30002020C4F88400C4F888000020E06600BF8A
:104D400084F8800000BF00BFDEE770B50546AC6B9D
:104D50000020A4F85E00A4F856002046FFF761F892
:104D600070BD00000168096821F49071026811604B
:104D700001688968094A114002689160C16E012981
:104D800005D10168096821F0100102681160202135
:104D9000C0F888100021C16601677047FEFFFFEF71
:104DA00010B504462068006820F0400021680860C3
:104DB0002020C4F88400002060672046FFF7EEFA48
:104DC00010BD00002DE9F04F89B005460020089085
:104DD000F8492868884200D100E000BF2969A86826
:104DE000084369690843E96940EA010828680068DE
:104DF000F149084040EA08002968086028684068CE
:104E000020F44050E968084329684860D5F81880C4
:104E1000E8492868884202D0286A40EA08082868D9
:104E20008068E649084040EA0800296888602868E8
:104E3000C06A20F00F00696A08432968C86200BF91
:104E4000DF492868884220D1DE48006800F0380039
:104E5000182811D005DC48B1082809D0102811D134
:104E600008E020280AD028280CD109E001240BE012
:104E7000042409E0082407E0102405E0202403E0CE
:104E8000402401E0802400BFF8E0CF492868884230
:104E900019D1CC48006800F00700062810D2DFE8DE
:104EA00000F0030507090B0D00240BE0042409E0C2
:104EB000082407E0102405E0202403E0402401E05A
:104EC000802400BFDAE0C1492868884219D1BD4872
:104ED000006800F00700062810D2DFE800F00305A4
:104EE00007090B0D00240BE0042409E0082407E067
:104EF000102405E0202403E0402401E0802400BFCA
:104F0000BCE0B3492868884219D1AE48006800F077
:104F10000700062810D2DFE800F0030507090B0D93
:104F200000240BE0042409E0082407E0102405E035
:104F3000202403E0402401E0802400BF9EE0A54936
:104F40002868884219D19F48006800F007000628A9
:104F500010D2DFE800F0030507090B0D00240BE079
:104F6000042409E0082407E0102405E0202403E0DD
:104F7000402401E0802400BF80E0974928688842EF
:104F800020D19048006800F03800182811D005DCC6
:104F900048B1082809D0102811D108E020280AD0EB
:104FA00028280CD109E001240BE0042409E008249E
:104FB00007E0102405E0202403E0402401E08024E1
:104FC00000BF5BE085492868884219D17D480068A8
:104FD00000F00700062810D2DFE800F003050709FB
:104FE0000B0D00240BE0042409E0082407E0102442
:104FF00005E0202403E0402401E0802400BF3DE0E0
:1050000077492868884219D16E48006800F0070087
:10501000062810D2DFE800F0030507090B0D002475
:105020000BE0042409E0082407E0102405E0202414
:1050300003E0402401E0802400BF1FE05D492868B0
:1050400088421AD15F48001D006800F0070006285A
:1050500010D2DFE800F0030507090B0D02240BE076
:10506000042409E0082407E0102405E0202403E0DC
:10507000402401E0802400BF00E0802400BF4D49AF
:10508000286888427DD1102C1AD006DC022C09D069
:10509000042C0BD0082C29D10DE0202C21D0402C41
:1050A00024D120E0FCF70EFE064623E005A8FCF71D
:1050B0001BFE069E1EE002A8FCF72EFF039E19E0D1
:1050C000404854380068C0F3401040B13D4854385F
:1050D0000068C0F3C101434820FA01F600E0414EE8
:1050E00008E0414E06E04FF4004603E000260120B0
:1050F000089000BF00BF002E10D03C49686A31F80C
:105100001000B6FBF0F9686800EB4000484503D892
:1051100068680003484502D20120089004E1334941
:10512000686A31F810C06246002330461946FBF722
:1051300026F94FF4807C00220346A3FB0C0B01FBF5
:105140000CB103FB021C69684908034659184CEB73
:105150000200CDE90010D5F804C0624600230846DD
:105160000199FBF70CF90746B7F5407F06D3B7F571
:10517000801F03D22868C760D6E002E001200890B3
:10518000D2E0E869B0F5004F7CD1082C39D005DCBD
:105190005CB1012C2CD0042C4CD12DE0102C35D03E
:1051A000202C42D0402C45D141E0FDF735FF06468A
:1051B00044E00000000C0058F369FFCFFFF4FF113A
:1051C0000010014054440258004400400048004090
:1051D000004C0040005000400014014000780040A6
:1051E000007C00400090D00300093D00A05700085B
:1051F000FDF724FF064621E005A8FCF775FD069E95
:105200001CE002A8FCF788FE039E17E04C480068EB
:10521000C0F3401038B14A480068C0F3C1014948A2
:1052200020FA01F600E0474E08E0474E06E04FF452
:10523000004603E000260120089000BF00BF06B32F
:105240004249686A31F81000B6FBF0F04000696826
:1052500000EB5100B0FBF1F087B2102F0FD3B7F580
:10526000803F0CD24FF6F07007EA000AC7F3420005
:105270004AEA000A2868C0F80CA055E002E00120C4
:10528000089051E0082C1AD005DC5CB1012C0DD03F
:10529000042C2DD10EE0102C16D0202C23D0402C25
:1052A00026D122E0FDF7B8FE064625E0FDF7C6FE52
:1052B000064621E005A8FCF717FD069E1CE002A8A3
:1052C000FCF72AFE039E17E01D480068C0F340105B
:1052D00038B11B480068C0F3C1011A4820FA01F632
:1052E00000E0184E08E0184E06E04FF4004603E0D8
:1052F00000260120089000BF00BFAEB11349686AC4
:1053000031F81000B6FBF0F0696800EB5100B0FB1B
:10531000F1F087B2102F05D3B7F5803F02D228688D
:10532000C76001E0012008900120A5F86A00A5F8F7
:105330006800002028676867089809B0BDE8F08F0A
:10534000004402580090D00300093D00A057000817
:105350002DE9F04104460D4617469846069E4AE060
:10536000701C002847D0FCF797FBA0EB0800B04268
:1053700000D8C6B92068006820F4D07021680860A1
:105380002068806820F00100216888602020C4F82F
:105390008400C4F8880000BF002084F8800000BFAB
:1053A0000320BDE8F0812068006800F0040010B31D
:1053B0002068C069C0F3C020E8B14FF400602168E4
:1053C00008622068006820F4D070216808602068B6
:1053D000806820F00100216888602020C4F88400E3
:1053E000C4F88800C4F88C0000BF002084F8800056
:1053F00000BF0320D5E72068C0692840A84201D13A
:10540000012000E00020B842AAD00020C9E7000037
:1054100010B50248FEF706FD10BD0000840200240E
:1054200000BFFEE702480068C0F30220704700009A
:105430000CED00E010B5002804DB0A07130E054A46
:10544000135406E00A07140E034A00F00F031B1F53
:10545000D45410BD00E400E018ED00E010B5084899
:1054600000F01CF9002405E0002004EB4401054A8B
:105470005054641C082CF7D3014800F041F910BDCA
:10548000000000249000002410B5044600BF2CB991
:1054900000BF72B6FBF717F900BFFEE700BF0B486D
:1054A00000F0FCF820680078012804D12168481C2D
:1054B00000F0F4F805E000BF72B6FBF704F900BF96
:1054C000FEE7024800F01CF910BD000000000024B7
:1054D00010B5044600BF2CB900BF72B6FBF7F3F855
:1054E00000BFFEE700BF0A4800F0D8F82068007847
:1054F000012803D100202168087005E000BF72B6C2
:10550000FBF7E1F800BFFEE7014800F0F9F810BD35
:105510000000002470B50446002C2CD0174800F081
:10552000BDF8002521E005EB45001549085CD8B918
:1055300005EB4500084420600120216808702068C0
:10554000461C00BF00BF2EB900BF72B6FBF7BBF808
:1055500000BFFEE700BF00203070707000BF07483A
:1055600000F0CEF8012070BD6D1C082DDBD3034880
:1055700000F0C6F800BF0020F5E70000000000249E
:105580009000002410B5044600BF2CB900BF72B6CD
:10559000FBF799F800BFFEE700BF0B4800F07EF86C
:1055A00020680078012804D12168481C00F0A8F880
:1055B00005E000BF72B6FBF786F800BFFEE70248C1
:1055C00000F09EF810BD000000000024014600BF5E
:1055D0007047000000B589B00020019002900220C1
:1055E00003900120049000200590069001A91A481C
:1055F000FBF7B8FE4FF0804001900020029002209F
:1056000003900120049000200590069001A9124803
:10561000FBF7A8FE002003460222114600900E4828
:10562000FBF7F4FE002201210B48FBF703FE0022EA
:105630004FF000710848FBF7FDFD0748406A064A35
:10564000D26A00FB02F100220348FBF7F9FE024890
:10565000FBF71CFF09B000BDCC000024FCF72EFABC
:10566000FFF79CF9FEF7E4FEFEF7E6FFFEF7AEFF5C
:10567000FEF77CFFFEF796FEFAF7F2FF0649088078
:10568000FFF7A8FF06E000231A46194641F28830CA
:10569000FAF790FFF7E700007800002470B50446A1
:1056A00000BFEFF3108000F0010572B600BF00BF2D
:1056B00000BFBFF34F8F00BF00BF00BF00BF00BFE0
:1056C00000BFBFF36F8F00BF00BF00BF00BF2CB98A
:1056D00000BF72B6FAF7F7FF00BFFEE700BF6078C1
:1056E00008B9257008E06078FF2805D100BF72B6C0
:1056F000FAF7E9FF00BFFEE76078401C607070BDFC
:1057000010B5044600BF2CB900BF72B6FAF7DBFF34
:1057100000BFFEE700BF607828B900BF72B6FAF795
:10572000D2FF00BFFEE76078401E6070607810B95D
:10573000207800B962B610BD4FF04070E1EE100A5B
:10574000704700000001020304050607080C10144E
:1057500018203040000000000000000000000000A1
:105760000000000000000000010000000200000036
:10577000030000000400000000000000050000001D
:105780000000000000000000000000000600000013
:105790000000000000000000000000000700000002
:1057A000010002000400060008000A000C001000BE
:1057B00020004000800000010101010307010000FA
:1057C00008040204080101010000000001020304B2
:1057D0000102030406070809535049300000000085
:1057E000666C61736830000057323551333242566F
:1057F000000000001858000800000024900000007D
:10580000D4020008A858000890000024E80800000E
:10581000F002000849FCFFFF00000000E05700080C
:1058200000000000E8570008EF40160000004000AC
:10583000010000000010000020000000D857000800
:105840000000000000000000000000000000000058
:105850000000000000000000000000000000000048
:105860000000000000000000000000000000000038
:105870000000000000000000000000000000000028
:105880000000000000000000000000000000000018
:1058900000000000000000001000000001000000F7
:0858A0000090D0030090D0033A
:040000050800029954
:00000001FF
